:020000040800F2
:10000000C8080020050100088120000879200008A8
:100010007D2000087D0700081D2300080000000067
:10002000000000000000000000000000AD200008FB
:10003000BD0700080000000083200008AF20000872
:100040001F0100081F0100081F0100081F01000810
:100050001F0100081F0100081F0100081F01000800
:100060001F0100081F0100081F0100088107000888
:100070001F0100081F0100081F0100081F010008E0
:100080001F0100081F010008190600081F010008D1
:100090001F0100081F0100081F0100081F010008C0
:1000A0001F0100081F0100081F0100081F010008B0
:1000B0001F0100081F0100081F0100081F010008A0
:1000C0001F0100081F0100081F0100081F01000890
:1000D0001F0100081F0100081F0100081F01000880
:1000E0001F0100081F0100081F010008DFF810D0E1
:1000F00000F068FA00F03CF80048004715350008A9
:10010000C80800200648804706480047FEE7FEE78B
:10011000FEE7FEE7FEE7FEE7FEE7FEE7FEE7FEE7B7
:10012000B9200008ED00000840EA01039B0703D056
:1001300009E008C9121F08C0042AFAD203E011F826
:10014000013B00F8013B521EF9D27047D2B201E0E8
:1001500000F8012B491EFBD270470022F6E710B5CC
:1001600013460A4604461946FFF7F0FF204610BD25
:1001700070B5054C054D03E0206820448047241DE0
:10018000AC42F9D170BD00001439000818390008DC
:100190000920704709207047704770470920704751
:1001A000024801464860001D70470000180000200A
:1001B00070B5054600F04FF804461DB1284600F022
:1001C0001FF808B1A06801E055F8140C2061012067
:1001D0002073BDE8704000F02EB8040001D000F09C
:1001E00004F92046FFF7E4FF02680B689A4205D144
:1001F00040684968884201D101207047002070475B
:1002000010B50349FFF7F0FF80F0010010BD0000BA
:100210000836000810B5044600F01DF8783CC069A7
:10022000214600F07EF8002804D12046BDE81040A9
:1002300003F048B910BD10B500F00DF8016919B10F
:1002400000220261884701E080688047AFF30080A8
:1002500010B5AFF3008070B5FFF7A2FF0468054644
:10026000A4B9202003F08EF9040011D00949002020
:100270002C60C4E900010849A1602073206160611D
:100280000649A06109B100F038F8E061204670BD70
:10029000AFF30080000000005102000800000000E1
:1002A00070B504000D4609D004F12000FFF79CFF53
:1002B00020B12068A84201D1204670BD002000F086
:1002C0003BF8D5E90023A0F15801C1E90023002241
:1002D00040F85C2C40F8642C40F8682C40F8785DBD
:1002E00070BD0000004870472000002070470000EB
:1002F0000048704724000020704710B5882003F0A4
:1003000041F9002801D00021017010BD802902D8D8
:1003100008B1017809B100207047012100F8081BDD
:10032000704718B100F10802914201D000207047D7
:10033000002101707047000070B50446FFF78BFF85
:10034000783405462646204603F01CF9040007D100
:100350003146E869FFF7DAFF040001D1FFF728FF13
:100360000AA104F12000D1E90021C0E90021002107
:10037000A162E16261612161A161E161A868E0605F
:100380006868A06004F1780070BD000041524D0023
:10039000432B2B000000000070B5FFF75CFF4469A1
:1003A000054614B90020FFF703FFE06904F12006B9
:1003B000401CE0613046FFF723FF002801D026688B
:1003C00003E0286800F10100286002D04FF000022D
:1003D00000E022684FF000013046AFF30080304665
:1003E000092000BF3046FFF7F8FE70B50546466AA3
:1003F000FFF731FF04462846FFF702FF20B12946E8
:100400006069FFF74DFF07E0A5F12000C169491EB3
:10041000C1612168491E21604169491C416101692E
:1004200011B96169016160612846AFF3008030460F
:1004300070BD000073B50C46FFF70DFF54F80C1C9F
:10044000203C31B1E169491EE1610168491E01604A
:100450007CBD616804F1780509B1284688472846C3
:10046000BDE87C40FFF7D6BEFFF7BFFF2846FFF789
:10047000D1FEFFF791FF70B50D46A0F158044C492D
:10048000A160012140F85C1C40E91E52FFF7E3FE29
:1004900001682A46491C016000212046AFF3008014
:1004A0002046092000BF2046FFF797FE2DE9FF4DAB
:1004B0009A4693460E468046FFF7A2FE002875D165
:1004C000A8F12000012708F1580805680024CDF89C
:1004D00008803146284602F0FDFD10B1CAF80080C0
:1004E00062E0284602F076FE0190304602F072FE8D
:1004F00000903049019802F0EDFD20B92D49009897
:1005000002F0E8FD20B1DDE9001002F0F3FD08BBC8
:100510002849019802F0DEFDC0B1307A297A00F056
:10052000030001F00301641C31EA00023ED130EA0D
:10053000010100D077B1C00700D100270298ED6813
:10054000F6680028C5D000680290C2E7012C02D0EE
:100550006CB109D02AE01849304602F0BBFD18B151
:10056000BBF1000F22D1B9E7BBF1000F1ED1134937
:10057000019802F0AFFD20B91149019802F0AAFDDF
:10058000A0B100200090019033462A4603A902A89A
:1005900002F08AFE002804D00399CAF800101CB1AA
:1005A000022004B0BDE8F08D0120FAE70020F8E752
:1005B000350400082C360008843600083836000858
:1005C00044360008064C074D06E0E06840F00103A1
:1005D00094E8070098471034AC42F6D3FFF78AFD41
:1005E000F43800081439000838B5684602F09AFD5E
:1005F0000420FFF7A1FE694602F08CFD0446684620
:1006000002F098FD024A03492046FFF734FF00003C
:10061000353100085C36000810B5024800F0A2F938
:1006200010BD00003000002070B504460025206891
:10063000806800F00100F0B12068806820F00100BF
:100640002168886000F0D0FE05460EE000F0CCFE88
:10065000401B022809D9A06A40F01000A062E06A9D
:1006600040F00100E062012070BD2068806800F069
:1006700001000028EAD10020F6E770B505466C6A53
:10068000A06A00F05000E0B9A06A40F40070A062D7
:100690002068806800F46020B0F5602F0DD1207BC9
:1006A00058B9A06A20F48070A062A06A00F480505B
:1006B00018B9A06A40F00100A062204600F032F9AB
:1006C00003E0206A016B2846884770BD70B5054677
:1006D0006C6AA06A40F04000A062E06A40F004004A
:1006E000E062204600F03DF970BD70B50446656AD1
:1006F000284600F035F970BD38B5044600250020C5
:1007000000902068806800F0010080BB206880684D
:1007100040F0010021688860164800681649B0FB67
:10072000F1F0009002E00098401E00900098002830
:10073000F9D100F059FE054613E000F055FE401BCC
:1007400002280ED9A06A40F01000A062E06A40F0D2
:100750000100E06200BF002084F8240000BF0120F7
:1007600038BD2068806800F001000028E5D0002036
:10077000F6E700001400002040420F0000BFFEE733
:1007800010B5024800F042FB10BD000060000020E0
:1007900030B590F840500124AC40C56B6C600468E3
:1007A00063604468102C04D10468A2600468E160AE
:1007B00003E00468A1600468E26030BD70477047E0
:1007C0007047000038B5024600230020009000BFAB
:1007D00092F82400012801D1022038BD012082F8BE
:1007E000240000BF4868072812D21068406B0C79BB
:1007F000641E04EB84051F24AC40A0430D796D1EDC
:1008000005EB85050C68AC4020431468606327E065
:1008100048680D2812D21068006B0C79E41F04EBB5
:1008200084051F24AC40A0430D79ED1F05EB850521
:100830000C68AC4020431468206311E01068C06A63
:100840000C790D3C04EB84051F24AC40A0430D79CA
:100850000D3D05EB85050C68AC4020431468E06253
:1008600008680A2812D31068C0680C780A3C04EBA8
:1008700044050724AC40A0430D780A3D05EB45052F
:100880008C68AC4020431468E0600FE01068006999
:100890000C7804EB44050724AC40A0430D7805EB2D
:1008A00045058C68AC402043146820610868102816
:1008B00002D00868112827D1174C1068A0421ED119
:1008C0001068806800F40000F0B91068806840F497
:1008D00000001468A0600868102815D10F4800684F
:1008E0000F4CB0FBF4F000EB80004000009002E001
:1008F0000098401E009000980028F9D104E0906A0A
:1009000040F020009062012300BF002082F8240004
:1009100000BF184661E700000024014014000020D9
:1009200040420F0010B504460948A0420ED10948C4
:100930000188094802F064F806484188074802F037
:100940005FF802220349024800F0A0F910BD000040
:100950003000002000000020D8010020F801002015
:100960007047704710B504462068406800F02000CA
:1009700020282FD12068006800F00200022829D129
:10098000A06A00F0100018B9A06A40F40070A062DC
:100990002068806800F46020B0F5602F13D1207BC0
:1009A00088B92068406820F0200021684860A06A6B
:1009B00020F48070A062A06A00F4805018B9A06A88
:1009C00040F00100A0622046FFF7ACFF6FF012007C
:1009D000216808602068406800F0800080283BD1D2
:1009E0002068006800F00400042835D1A06A00F0F7
:1009F000100018B9A06A40F40050A0622068806816
:100A000000F4E040B0F5E04F0DD02068406800F4FD
:100A10008060D0B92068806800F46020B0F5602F55
:100A200013D1207B88B92068406820F080002168BD
:100A30004860A06A20F48050A062A06A00F4807030
:100A400018B9A06A40F00100A0622046FFF7B8FE86
:100A50006FF00C00216808602068406800F04000DA
:100A600040280FD12068006800F0010050B1A06A52
:100A700040F48030A062204600F0A8F86FF001003A
:100A80002168086010BD00002DE9F04104460027F0
:100A900000250026A84614B90120BDE8F081A06811
:100AA00010B1207D00B100BFA06A30B90020E06223
:100AB00084F82400204600F08BF82046FFF7B4FDB0
:100AC0000746A06A00F01000002873D1002F71D1F2
:100AD000A06A20F4885040F00200A062E1696068DA
:100AE0000843217B40EA41000643A068B0F5807FBF
:100AF00002D0A068012802D14FF4807000E00020ED
:100B00000543207D012811D1207B38B9A069401E02
:100B10004FF4006141EA4030054307E0A06A40F02D
:100B20002000A062E06A40F00100E06220684068B6
:100B300020F4694028432168486020688068214982
:100B40000840304321688860A068B0F5807F02D0FB
:100B5000A068012802D14FF4807000E00020B0F5B9
:100B6000807F03D1208A401E4FEA00582068C06A67
:100B700020F4700040EA08002168C862206880689C
:100B800011490840B04208D10020E062A06A20F07C
:100B9000020040F00100A06211E0A06A20F0020013
:100BA00040F01000A062E06A40F00100E06201271E
:100BB00005E0FFE7A06A40F01000A0620127384678
:100BC0006BE70000FDF7E1FFFE0E1FFF704700001E
:100BD00010B586B004460020029003900490059062
:100BE00025492068884244D100BF2448806940F4E8
:100BF0000070224988610846806900F40070019005
:100C000000BF00BF00BF0846806940F00400886153
:100C10000846806900F00400019000BF00BF032077
:100C20000290039002A9164800F040FA15481649B0
:100C30000860002048600021134881608021C16065
:100C4000490001618900416100218161C16100F0B9
:100C5000ABF908B1FFF7B3FD00BF0B482062446257
:100C600000BF00221146122000F044FC122000F0C8
:100C700031FC06B010BD000000240140001002400D
:100C80000008014008000240600000202DE9F0410A
:100C900004460D461646002757492068884203D06F
:100CA00056492068884205D15348001D006800F469
:100CB000702000E0002000287ED100BF94F82400BE
:100CC000012802D10220BDE8F081012084F824002F
:100CD00000BF2046FFF710FD0746002F6DD1A06A28
:100CE00040F60161884340F48070A0624349206867
:100CF000884209D14048001D006800F4702008B9FE
:100D0000012002E0002000E0012078B1A06A20F478
:100D10008010A0622068406800F4806000B3A06A80
:100D200020F4005040F48050A06219E0A06A40F422
:100D30008010A06230492068884203D02F49206883
:100D4000884205D12C48001D006800F4806000E056
:100D5000002028B1A06A20F4005040F48050A06226
:100D6000A06A00F4805020B1E06A20F00600E06242
:100D700001E00020E06200BF002084F8240000BFF2
:100D80001F48216A88621F48216AC8621E48216A7A
:100D900008636FF00200216808602068806840F4F2
:100DA000807021688860226802F14C0133462A462F
:100DB000206A00F02DF901E01AE014E02068806854
:100DC00000F46020B0F5602F06D12068806840F400
:100DD000A000216888600CE02068806840F48010E2
:100DE0002168886005E000BF002084F8240000E04E
:100DF0000127384667E70000002401400028014031
:100E00007B060008EB060008CD06000870B5044616
:100E1000E06B05682068066894F84010042088405C
:100E20002840002846D006F00400002842D0206860
:100E3000006800F0200028B92068006820F0040055
:100E40002168086057492068884201D1042027E0C2
:100E5000544914312068884201D1402020E0514992
:100E600028312068884201D1001519E04D493C31F4
:100E70002068884202D14FF4804011E04949503146
:100E80002068884202D14FF4802009E0454964314E
:100E90002068884202D14FF4800001E04FF080606A
:100EA000404908394860E06A00287AD02046E16A63
:100EB000884776E094F84010022088402840A0B38C
:100EC00006F0020088B32068006800F0200040B9F6
:100ED0002068006820F00A0021680860012084F87A
:100EE000210030492068884201D1022028E02D49A4
:100EF00014312068884201D1202021E0294928317D
:100F00002068884201D140151AE026493C3120680A
:100F1000884202D14FF4005012E02249503120683B
:100F2000884203D14FF400300AE017E01D496431D4
:100F30002068884202D14FF4001001E04FF00070A9
:100F400018490839486000BF002084F8200000BF1D
:100F5000A06A30B32046A16A884722E094F8401086
:100F6000082088402840E0B106F00800C8B1206899
:100F7000006820F00E002168086094F840100120FD
:100F80008840E16B48600120A06384F8210000BF25
:100F9000002084F8200000BF206B10B12046216B98
:100FA000884770BD080002400146002209B90120AF
:100FB0007047164B0868C01A1423B0FBF3F080008A
:100FC000086412480838C863022081F821000868C4
:100FD000026843F6F0708243D1E901031843CB68FD
:100FE00018430B6918434B6918438B691843CB6945
:100FF000184302430868026000208863012081F8DA
:101000002100002081F8200000BFD1E70800024045
:101010002DE9F04104460D4616461F464FF00008E4
:1010200000BF94F82000012802D10220BDE8F08121
:10103000012084F8200000BF94F8210001282CD161
:10104000022084F821000020A0632068006820F0BE
:101050000100216808603B46324629462046FFF7DA
:1010600097FBE06A30B12068006840F00E0021680C
:1010700008600BE02068006820F004002168086028
:101080002068006840F00A00216808602068006855
:1010900040F001002168086006E000BF002084F8ED
:1010A000200000BF4FF002084046BFE72DE9F84797
:1010B0000346002294466EE14FF0010808FA02F45C
:1010C000D1F8008008EA0400A0427DD1DFF8DCA25C
:1010D000D1F80480A8EB0A09D0453AD014DCB8F165
:1010E000030F50D009DCB8F1000F31D0B8F1010F77
:1010F0001CD0B8F1020F49D120E0B8F1110F18D07F
:10110000B8F1120F42D11EE0B9F5881F25D006DCD8
:10111000B9F5803F20D0B9F5801F37D11AE0B9F575
:10112000001F18D0B9F5041F30D117E0D1F80CC05A
:101130002DE0D1F80C8008F1040C28E0D1F80C80E7
:1011400008F1080C23E0D1F80C8008F10C0C1EE02B
:1011500000BF00BF00BF00BF00BF00BFD1F80880C4
:10116000B8F1000F02D14FF0040C0BE0D1F8088069
:10117000B8F1010F03D14FF0080C1C6102E04FF0F1
:10118000080C5C6103E04FF0000C00E000BF00BF02
:10119000FF2801D8984601E003F104084646FF28DD
:1011A00002D84FEA820803E0A2F108084FEA880853
:1011B0004746D6F800804FF00F0909FA07F928EAE8
:1011C00009080CFA07F900E088E048EA0908C6F8BF
:1011D0000080D1F8048008F08058B8F1805F7DD19C
:1011E00000BFDFF8CC81D8F8188048F00108DFF89C
:1011F000C091C9F81880C846D8F8188008F00108CE
:10120000CDF8008000BF00BF4FEAB9384FEA92091D
:1012100058F829504FEA82784FEA18794FF00F08B2
:1012200008FA09F825EA0805DFF88881434502D164
:101230004FF0000816E0DFF88081434502D14FF0FF
:1012400001080FE0DFF87481434502D14FF0020836
:1012500008E0DFF86C81434502D14FF0030801E05C
:101260004FF004084FEA82794FEA197908FA09F831
:1012700048EA0505DFF84C814FEA920948F8295001
:10128000D1F8048008F48038B8F5803F0AD1DFF83F
:101290003881D8F8008048EA0008DFF82C91C9F8B6
:1012A000008009E0DFF82081D8F8008028EA0008F3
:1012B000DFF81491C9F80080D1F8048008F40038F0
:1012C000B8F5003F10D1DFF8008108F10408D8F824
:1012D000008048EA0008DFF8F09000E05AE009F1E9
:1012E0000409C9F800800DE0DFF8DC8008F104088B
:1012F000D8F8008028EA0008DFF8CC9009F104094A
:10130000C9F80080D1F8048008F48018B8F5801F6F
:101310000ED1DFF8B48008F10808D8F8008048EA58
:101320000008DFF8A49009F10809C9F800800DE071
:10133000DFF8948008F10808D8F8008028EA00084F
:10134000DFF8849009F10809C9F80080D1F8048019
:1013500008F40018B8F5001F0ED1DFF86C8008F112
:101360000C08D8F8008048EA0008DFF85C9009F122
:101370000C09C9F800800DE0DFF84C8008F10C087A
:10138000D8F8008028EA0008DFF83C9009F10C0941
:10139000C9F80080521CD1F8008028FA02F8B8F190
:1013A000000F7FF489AEBDE8F8870000000011103F
:1013B0000010024000080140000C014000100140F4
:1013C00000140140080001400004014002469368F7
:1013D0000B400BB1012000E0002070470AB1016111
:1013E00001E00B040361704701480068704700008A
:1013F00008000020034800680349097808440149AF
:1014000008607047080000201000002010B5084850
:10141000006840F0100006490860032000F0A8F8BA
:10142000002000F007F800F02BF8002010BD0000AD
:101430000020024070B504460E4800784FF47A71DF
:10144000B1FBF0F00C490968B1FBF0F5284600F05B
:10145000A1FC08B1012070BD102C07D2002221464A
:10146000501E00F047F80548046001E00120F2E753
:101470000020F0E710000020140000200C000020E5
:1014800008B500BF1148806940F001000F4988612C
:101490000846806900F00100009000BF00BF00BF57
:1014A0000846C06940F08050C8610846C06900F035
:1014B0008050009000BF00BF00BF0549486820F081
:1014C000E06040F08070486000BF08BD001002403E
:1014D0000000014001460846002809DB00F01F0318
:1014E00001229A4043099B0003F1E023C3F8002145
:1014F00000BF70472DE9F05F80460D461646002775
:1015000001F078FE074639462A46334601F00700C7
:10151000C0F1070ABAF1040F02D94FF0040A01E042
:10152000C0F1070AD14600F1040ABAF1070F02D24E
:101530004FF0000A01E0A0F1030AD4464FF0010A7F
:101540000AFA09FAAAF1010A0AEA020A0AFA0CFAE4
:101550004FF0010B0BFA0CFBABF1010B0BEA030B89
:101560004AEA0B042146404601F04CFEBDE8F09FDC
:1015700000BF00F00702064B19684FF6FF03194041
:10158000044B0B4343EA0221014B196000BF704733
:101590000CED00E00000FA05F8B504460026002531
:1015A000207800F0010000286AD000274248C06976
:1015B00000F0805068B900BF3F48C06940F08050DB
:1015C0003D49C8610846C06900F08050009000BFE6
:1015D00001273A48006800F48070B0B937480068C5
:1015E00040F4807035490860FFF7FEFE064606E0CD
:1015F000FFF7FAFE801B642801D90320F8BD2F48AD
:10160000006800F480700028F2D02B48006A00F4D3
:1016100040752DB3A08800F44070A84220D0264821
:10162000006A20F440750120254908600020086008
:101630002148056205F0010090B1FFF7D5FE06468E
:1016400008E0FFF7D1FE801B41F28831884201D9C2
:101650000320D3E71848006A00F002000028F0D009
:101660001548006A20F44070616808431249086216
:10167000012F04D10846C06920F08050C86100BF26
:10168000207800F00200022807D10B48406820F4BF
:101690004040A168084308494860207800F01000E5
:1016A000102807D10448406820F48000E16808430E
:1016B000014948600020A1E700100240007000408E
:1016C0004004424270B504460D460CB9012070BD7D
:1016D0005A48006800F00700A8420ED25748006838
:1016E00020F007002843554908600846006800F0CC
:1016F0000700A84201D00120E9E7207800F00200AD
:1017000002281DD1207800F00400042805D14C489F
:10171000406840F4E0604A494860207800F00800E2
:10172000082805D14648406840F460504449486064
:101730004348406820F0F000A168084340494860F1
:10174000207800F0010078B36068012806D13C4899
:10175000006800F4003090B90120B8E76068022802
:1017600006D13748006800F0007040B90120AEE7AC
:101770003348006800F0020008B90120A7E73048AC
:10178000406820F00300616808432D494860FFF776
:101790002BFE064609E0FFF727FE801B41F2883149
:1017A000884202D9032092E707E02548406800F00C
:1017B0000C006168B0EB810FEDD12048006800F0AB
:1017C0000700A8420ED91D48006820F007002843F2
:1017D0001A4908600846006800F00700A84201D0D6
:1017E000012074E7207800F00400042807D1144891
:1017F000406820F4E060E1680843114948602078BF
:1018000000F00800082808D10D48406820F4605016
:10181000216940EAC1000A49486000F03FF80849E0
:101820004968C1F30311074A515CC8400649086082
:1018300006480068FFF7FEFD002048E70020024050
:1018400000100240F0350008140000200C000020B9
:1018500001480068704700001400002000B5FFF741
:10186000F7FF04494968C1F30221034A515CC840AB
:1018700000BD0000001002400036000800B5FFF770
:10188000E7FF04494968C1F3C221034A515CC840DB
:1018900000BD00000010024000360008F0B585B021
:1018A0000FF26C0C9CE8E01001A8A0E8E0101CA569
:1018B0002D68009500210022002300240020194DEE
:1018C000696801F00C05F5B1042D02D0082D19D17D
:1018D00001E0154819E001ADC1F38346AC5D01F4A8
:1018E000803555B10F4D6D68C5F340451DF8052095
:1018F0000D4D6543B5FBF2F302E00C4D04FB05F31F
:10190000184602E000BF084800BF00BF05B0F0BDA8
:1019100002030405060708090A0B0C0D0E0F101030
:10192000010200000010024000127A0000093D0090
:10193000F8B504460CB90120F8BD207800F001008C
:10194000002878D0F848406800F00C0004280CD03B
:10195000F548406800F00C00082811D1F2484068B2
:1019600000F48030B0F5803F0AD1EF48006800F401
:10197000003000285FD0606800285CD10120DBE7E0
:1019800000BF6068B0F5803F06D1E748006840F4CA
:101990008030E549086028E0606858B9E24800688E
:1019A00020F48030E04908600846006820F4802078
:1019B00008601AE06068B0F5A02F0BD1DA48006823
:1019C00040F48020D84908600846006840F4803020
:1019D00008600AE0D448006820F48030D2490860EA
:1019E0000846006820F48020086000BF606888B165
:1019F000FFF7FAFC054606E0FFF7F6FC401B6428FB
:101A000001D9032098E7C848006800F40030002896
:101A1000F2D010E0FFF7E8FC054606E0FFF7E4FC33
:101A2000401B642801D9032086E7BF48006800F402
:101A300000300028F2D1207800F00200022857D1AF
:101A4000B948406800F00C0050B1B748406800F059
:101A50000C00082818D1B448406800F4803098B9C8
:101A6000B148006800F0020020B12069012801D0CF
:101A7000012061E7AC48006820F0F800616940EAA5
:101A8000C100A949086033E02069E8B10120A749F5
:101A90000860FFF7A9FC054606E0FFF7A5FC401B20
:101AA000022801D9032047E79F48006800F00200A0
:101AB0000028F2D09C48006820F0F800616940EAF4
:101AC000C1009949086013E0002098490860FFF7B9
:101AD0008BFC054606E0FFF787FC401B022801D976
:101AE000032029E79048006800F002000028F2D1A6
:101AF000207800F0080008282DD1A069B8B1012095
:101B00008B490860FFF770FC054606E0FFF76CFCA8
:101B1000401B022801D903200EE78348406A00F0E9
:101B200002000028F2D0012000F0ACFA13E00020FF
:101B30007F490860FFF758FC054606E0FFF754FCB4
:101B4000401B022801D90320F6E67748406A00F0DE
:101B500002000028F2D1207800F00400042873D19C
:101B600000277148C06900F0805070B900BF6E480E
:101B7000C06940F080506C49C8610846C06900F0F7
:101B80008050009000BF00BF01276A48006800F441
:101B90008070B0B96748006840F48070654908609B
:101BA000FFF722FC054606E0FFF71EFC401B6428F9
:101BB00001D90320C0E65F48006800F48070002867
:101BC000F2D000BFE068012806D15748006A40F013
:101BD00001005549086227E0E06858B95248006A98
:101BE00020F00100504908620846006A20F0040015
:101BF000086219E0E06805280BD14B48006A40F004
:101C00000400494908620846006A40F00100086281
:101C10000AE04548006A20F001004349086208468E
:101C2000006A20F00400086200BFE068A0B1FFF77E
:101C3000DBFB054609E0FFF7D7FB401B41F288318B
:101C4000884202D9032077E622E03748006A00F094
:101C500002000028EFD012E0FFF7C6FB054608E0BF
:101C6000FFF7C2FB401B41F28831884201D90320B3
:101C700062E62D48006A00F002000028F0D1012F32
:101C800005D12948C06920F080502749C86100BFAC
:101C9000E069C8B32448406800F00C00082860D010
:101CA000E069022848D1002020490866FFF79CFB24
:101CB000054606E0FFF798FB401B022801D90320E8
:101CC0003AE61948006800F000700028F2D1206A56
:101CD000B0F5803F07D11448406820F40030A16877
:101CE000084311494860D4E9080108430E4949688E
:101CF00021F4741108430C49486001200B4908661F
:101D0000FFF772FB054607E03DE0FFF76DFB401B68
:101D1000022801D903200FE60348006800F0007094
:101D20000028F2D02FE000000010024000004242E4
:101D30008004424200700040002014490866FFF70A
:101D400053FB054606E0FFF74FFB401B022801D975
:101D50000320F1E50E48006800F000700028F2D181
:101D600011E0E069012800D1E6E50948466806F47B
:101D70008031206A814204D106F47011606A814288
:101D800001D00120D8E50020D6E500000000424245
:101D90000010024070B504462546681EB0F1807FF1
:101DA00001D301200FE0681E4FF0E02148610F21B0
:101DB0004FF0FF3001F026FA00204FF0E02188615B
:101DC00007200861002070BD10B504460CB9012041
:101DD00010BDA06900B100E000BF94F8390028B937
:101DE000002084F83800204600F028F8242084F8E9
:101DF00039002068C06820F400502168C86020467F
:101E000000F086F92068006920F49040216808619C
:101E10002068406920F02A00216848612068C06875
:101E200040F400502168C8600020E063202084F85E
:101E3000390084F83A000020CAE7000010B586B0E7
:101E40000446002002900390049005901A492068EF
:101E500088422ED100BF1948806940F4804017495C
:101E600088610846806900F48040019000BF00BF8F
:101E700000BF0846806940F0040088610846806918
:101E800000F00400019000BF00BF4815029002203E
:101E900003900320059002A90948FFF707F94FF4C2
:101EA0008060029000200390049002A90448FFF78C
:101EB000FDF806B010BD00000038014000100240DF
:101EC000000801402DE9F84304460D4616461F461A
:101ED0004FF0000994F83A00202860D105B116B9F6
:101EE0000120BDE8F88300BF94F83800012801D133
:101EF0000220F6E7012084F8380000BF0020E063EC
:101F0000222084F83A00FFF76FFA8146A685E6851D
:101F100039E0E08D401EE085A068B0F5805F1BD100
:101F20004B46002220212046009700F0C1F908B15D
:101F30000320D6E7A846206938B920684068C0F376
:101F40000800A8F80000AD1C1DE020684068C0B281
:101F5000A8F800006D1C16E04B4600222021204608
:101F6000009700F0A5F908B10320BAE7206920B96D
:101F70002068406805F8010B05E02068406800F023
:101F80007F0005F8010BE08D0028C2D1202084F8E5
:101F90003A0000BF002084F8380000BFA1E702200B
:101FA0009FE72DE9F84304460D4616461F464FF0BD
:101FB000000994F8390020285CD105B116B9012038
:101FC000BDE8F88300BF94F83800012801D1022051
:101FD000F6E7012084F8380000BF0020E0632120EC
:101FE00084F83900FFF700FA8146A684E6842BE0E6
:101FF000E08C401EE084A068B0F5805F16D14B46AF
:10200000002280212046009700F052F908B10320F9
:10201000D6E7A846B8F80000C0F308002168486079
:10202000206908B9AD1C0FE06D1C0DE04B46002285
:1020300080212046009700F03BF908B10320BFE75C
:1020400015F8010B21684860E08C0028D0D14B4680
:10205000002240212046009700F02AF908B1032011
:10206000AEE7202084F8390000BF002084F8380053
:1020700000BFA5E70220A3E700BFFEE700BFFEE721
:102080007047704708B508490968C9084FF47A7263
:10209000B1FBF2F14143009100BF00BF00994A1E1D
:1020A00000920029F9D108BD14000020704710B536
:1020B000FFF7A0F910BD00001148006840F00100D2
:1020C0000F490860084640680E4908400C494860BE
:1020D000084600680C49084009490860084600683D
:1020E00020F4802008600846406820F4FE00486024
:1020F0004FF41F008860C80304490860704700005F
:10210000001002400000FFF8FFFFF6FE08ED00E0BF
:1021100070B504462168096921F44051E268114311
:10212000226811612269A1681143626941EA0205CE
:102130002168C96841F20C62914329432268D16049
:102140002168496921F44071A269114322685161F3
:10215000564A2168914254D1FFF790FB00EBC00131
:1021600001EB001162689200B1FBF2F100EBC002DA
:1021700002EB001263689B00B2FBF3F26423B2FB34
:10218000F3F202EBC20303EB0212A1EB8201322253
:1021900002EB01116422B1FBF2F101F0F00100EB5E
:1021A000C00202EB001263689B00B2FBF3F26423EF
:1021B000B2FBF3F201EB021200EBC00101EB0011E4
:1021C00063689B00B1FBF3F100EBC00303EB00136A
:1021D0006668B600B3FBF6F36426B3FBF6F303EBD5
:1021E000C30606EB0313A1EB8301322303EB0111BA
:1021F0006423B1FBF3F101F00F01114422689160F7
:1022000053E0FFF72BFB00EBC00101EB001162680C
:102210009200B1FBF2F100EBC00202EB0012636826
:102220009B00B2FBF3F26423B2FBF3F202EBC203B6
:1022300003EB0212A1EB8201322202EB01116422B4
:10224000B1FBF2F101F0F00100EBC00202EB001271
:1022500063689B00B2FBF3F26423B2FBF3F201EB81
:10226000021200EBC00101EB001163689B00B1FB9F
:10227000F3F100EBC00303EB00136668B600B3FB99
:10228000F6F36426B3FBF6F303EBC30606EB031386
:10229000A1EB8301322303EB01116423B1FBF3F1C2
:1022A00001F00F0111442268916070BD00380140B7
:1022B0002DE9F04104460D4617469846069E21E05A
:1022C000701CF8B12EB1FFF78FF8A0EB0800B042F8
:1022D00018D92068C06820F4D0702168C8602068D0
:1022E000406920F0010021684861202084F839000D
:1022F00084F83A0000BF002084F8380000BF0320B3
:10230000BDE8F081206800682840A84201D1012082
:1023100000E00020B842D3D00020F1E700BFFEE784
:1023200008B500BF0A48406940F00100084948610B
:102330000846406900F00100009000BF00221146ED
:102340000B20FFF7D7F80B20FFF7C4F808BD0000FB
:10235000001002400EB50020009001900290194834
:102360001949086081151848816001210173002115
:1023700001754FF46021C1610020134948600221BA
:1023800011480161FEF780FB08B1FEF718FA002042
:102390000090012001900320029069460A48FEF750
:1023A00011FA08B1FEF70BFA01200090022001900B
:1023B0000320029069460448FEF704FA08B1FEF7CC
:1023C000FEF90EBD002401403000002000B585B0AC
:1023D0000020019002900390049000BF2148806982
:1023E00040F020001F4988610846806900F0200005
:1023F000009000BF00BF0846806940F0040088617B
:102400000846806900F00400009000BF00BF084645
:10241000806940F0080088610846806900F0080083
:10242000009000BF00224FF400410F48FEF7D6FF96
:102430004FF4004001900120029000200390022000
:10244000049001A90848FEF731FE4FF48070019016
:1024500000200290039001A90448FEF727FE05B072
:1024600000BD000000100240000C014000080140C7
:1024700010B50D480078102802DB00200A490870CA
:102480000A480949097850F8210060B106480178E6
:102490000078401C044A1070044850F8214020681D
:1024A00001682046884710BD04000020E400002099
:1024B00000B58FB01048069010480790104808905B
:1024C0001048099010480A9010480B9010480C9042
:1024D00010480D9010480E90182209A96846FDF783
:1024E00023FE0E4806A90EC900F0B1FD0B4800F00E
:1024F00093F80FB000BD0000380100204C0100200F
:10250000600100207401002088010020B00100203B
:10251000C4010020D8010020F8010020180200208A
:1025200010B5044601231A4621460448FFF7CAFCA9
:1025300008B9012010BD0020FCE70000A400002025
:1025400010B5044601231A4621460448FFF729FD29
:1025500008B9012010BD0020FCE70000A400002005
:1025600010B50849084800F071F90849064800F01C
:10257000BAF90749044800F096F90348001D00F035
:102580004BF810BD1802002058020020C0020020A5
:10259000E913000810B500234FF400420F4910481A
:1025A00000F0CCF90F490E4800F0C1F90E490C4873
:1025B00000F0C0F90A4800F02FF80C4800F02CF8A1
:1025C0000B4800F029F80B4800F026F80A4800F004
:1025D00023F80A4800F020F810BD0000000C01406C
:1025E000240100204D2600085D2700083801002046
:1025F0004C010020600100207401002088010020AF
:1026000000B5034800F008F8024800F005F800BDE6
:10261000D8010020F801002001460A48007810285F
:102620000DDA51B1074802780078401C054B18704C
:10263000054840F82210012070470020FCE70020E8
:10264000FAE7000004000020E400002070B5044612
:102650000D461646324629462046FEF7BFFE70BD9F
:1026600010B500234FF480720749084800F02DFA96
:102670000749064800F025FA0648FFF7CDFF06484F
:10268000FFF7CAFF10BD0000000801409C010020B8
:102690005D270008B0010020C401002000B593B000
:1026A000282109A8FDF759FD142104A8FDF755FDBF
:1026B00000200090019002900390012009900004F6
:1026C0000A9000200B9001200D9002201090C10371
:1026D00011914FF4E011129109A8FFF729F908B1FF
:1026E000FEF76DF80F200490022005900020069060
:1026F0004FF4806007904FF4A0600890022104A876
:10270000FEF7E0FF08B1FEF75AF8022000908003C0
:1027100002906846FEF740FF08B1FEF750F813B08C
:1027200000BD000010B50B480B4908604FF4E130C4
:102730004860002108488160C16001610C2141614D
:1027400000218161C161FFF73FFB08B1FEF737F857
:1027500010BD000000380140A400002070B5044600
:102760000D4629462046FEF731FE012800D170BDF6
:102770000020FCE738B5684600F0E8FC0420FDF7CF
:10278000DBFD694600F0DAFC0446684600F0E6FC32
:10279000024A03492046FDF76EFE00005D31000845
:1027A0006836000810B50A490A4800F058F90A4985
:1027B0000A4800F019F80748FFF72EFF0848FFF70E
:1027C0002BFF0648FFF728FF0648FFF725FF10BD3F
:1027D000212500087402002041250008A4020020E1
:1027E00080020020BC0200204161704738B50446D9
:1027F000606900B938BD201D00F08AFB38B1201D8A
:1028000000F0A6FB009068466169884700BF00BFE2
:10281000F0E7000070B504460D46204600F04EFC7F
:1028200004462946201D00F0B1FB041F0248206029
:1028300000206061204670BDA837000810B504462E
:10284000201D00F0B9FB041F204610BD01B101613D
:10285000704710B50446206900F0B5FB10BD10B5F7
:102860000446206900F0B8FB10BD10B5044620698D
:1028700000F0BBFB10BD10B50446206900F0BEFBA4
:1028800010BD10B50446206900F0BEFB10BD10B5A8
:102890000446206900F0BEFB10BD10B50446206957
:1028A00000F0BEFB10BD8161704770B50446206921
:1028B00000B970BDA069A0B1A0698047A168401AA5
:1028C000E16888420DD9A0698047A060D4E9040579
:1028D00000F0FDFB0646286831460268284690470E
:1028E00000BF00BFE5E74161704710B504462069AD
:1028F00000F0C2FB10BD000010B50446204600F0F9
:102900006DF80446201D00F0D9FB041F0648206026
:102910002C3060600020A0604FF4FA70E06000206E
:1029200020616061204610BDB4370008704701B1D6
:10293000C160704701B10161704770474160028119
:102940008372704710B50446206908B1606808B901
:10295000002010BD2189226960689047F9E710B511
:102960000446E06808B1606800B910BD2189012201
:10297000E3686068984700BFF7E710B50446E06871
:1029800008B1606800B910BD21890022E368606861
:10299000984700BFF7E710B504462046FFF7D2FF7F
:1029A00018B12046FFF7E9FF02E02046FFF7D7FF06
:1029B00010BD000010B50446204600F07FFB044621
:1029C00004482060002060602081A072E0602061E7
:1029D000204610BDEC370008704700000149016037
:1029E00070470000F83700084369C268D21AC26015
:1029F000C2680A44C260037CC2681A4142617047DF
:102A000030B504460D46A56029462046FFF7ECFF89
:102A100030BD704710B50446204600F04FFB044619
:102A20000648206000206060A060E0600320207401
:102A300000206061A061E061204610BD20380008E0
:102A4000704770B504460D462946606800F069FA83
:102A500070BD10B50446606800F07AFA10BD01B18F
:102A60008160704738B5044600200090A06840B1EE
:102A70006846A168884720B19DF800102046FFF7FE
:102A8000E0FF38BD2DE9F04104460E46204600F037
:102A900015FB04460948206000206060A060002704
:102AA000102000F083FB05460127314600F06EFA46
:102AB0000546002760602046BDE8F0812C380008FC
:102AC000704701B1C1607047704701B970474160FC
:102AD0000281837200BFF9E710B50446E06808B1CF
:102AE000606808B9002010BD2189E26860689047DD
:102AF000F9E7000010B50446204600F0DFFA04466E
:102B000004482060002060602081A072206120467F
:102B100010BD000038380008704770B505460C46F7
:102B200022460121284600F001F870BD2DE9FE4340
:102B300005460F4690460026002401208DF800002F
:102B4000ADF80270CDF80480AA208DF80800A968BD
:102B5000081D3C2100F0E5F901266C4605E014F85B
:102B6000011BAA68101D00F0DCF93000A6F101017C
:102B7000CEB2F4D102260DF1020405E014F8011BD7
:102B8000AA68101D00F0CDF93000A6F10101CEB207
:102B9000F4D1042601AC05E014F8011BAA68101D4D
:102BA00000F0BFF93000A6F10101CEB2F4D1012648
:102BB00002AC05E014F8011BAA68101D00F0B1F981
:102BC0003000A6F10101CEB2F4D1A968081D3E2162
:102BD00000F0A7F9BDE8FE837047000070B5044619
:102BE0000D46204600F06AFA0446201D00F08AF9DE
:102BF000041F0348206010306060A560204670BD4F
:102C000044380008704770B504460D4600262E462D
:102C10007078C01E0B2832D2DFE800F006070809E2
:102C20000E13181D22272C002AE029E028E0206A34
:102C300002681168884723E0206A02685168884763
:102C40001EE0206A02689168884719E0206A0268DD
:102C5000D168884714E0206A0268116988470FE04C
:102C6000206A0268516988470AE0206A026891690F
:102C7000884705E0206A0268D169884700E000BF04
:102C800000BF70BD70B50446606800B970BD606873
:102C9000FFF7DFFE05463C2D0AD10120A07700207A
:102CA00020812189481C208104F10A004554EDE768
:102CB000A07FA0B12189481C208104F10A0045545D
:102CC0003E2D06D10020A07704F10B012046FFF72E
:102CD0009AFF2089142802D100202081A07700BF0C
:102CE000D4E7000070B504460D461646204600F0B5
:102CF000E5F9044605482060002060602081A07747
:102D0000206265602662204670BD000060380008C1
:102D100070470268496802EB21210968084470473E
:102D20002DE9FF4D8CB01446DDE91C688B46002769
:102D30001046199D00F04EFA704900F0CBF998B397
:102D4000A0680F9900F0C6F9C8B1DBF8000010B117
:102D50000C99884204D13078022801D0286828B123
:102D6000012028600020CBF80000C3E00120307073
:102D70001A98C8F800000C98CBF8000012E0DDE9C2
:102D80001A1202A880E846011898CDE90005A26849
:102D900059460F9B0C98FFF7C3FF002803D0286803
:102DA000002800D10127A5E0FFE7204600F012FA35
:102DB000534900F08FF9002869D018980B9440F31C
:102DC000400008901898103440F30000099089E002
:102DD000606800F001010A910C9969B10A9969B122
:102DE00021460C98FFF795FF82461A9850B120793A
:102DF000800707D5012006E00020F5E70C9901EBDC
:102E00002020F1E70020009020680F9900F062F97F
:102E100020B3DBF8000008B1504507D16068C10756
:102E200002D03178012901D0296829B10120286018
:102E30000020CBF8000029E0C00701D0022000E00C
:102E4000012030700098C8F80000CBF800A03DE0E9
:102E5000089800E00998401C4CD142E000990020FD
:102E60008DF81C0007AACDE90428069006AB189837
:102E7000CDE90213CDE900052268594650460F9B63
:102E8000FFF74EFF0028286802D020B1002731E06C
:102E90000028FBD125E0069820B92079C00701D091
:102EA00020680690307858B19DF81C10022901D195
:102EB000022805D01B98006880B1069988420DD180
:102EC0009DF81C0030701B9806990160D8F800002E
:102ED000012730B10A980028BCD0B9E7012028604A
:102EE000D4E708340B98C16800EBC1001030A04251
:102EF0003FF66EAF10B03846BDE8F08D38360008AA
:102F00004436000801490160704700006C38000831
:102F1000014648890A89904201D00120704700206B
:102F2000FCE730B504460D46207B38B9218960683E
:102F300045542189204600F01EF8208120896189AE
:102F4000884202D10120207301E00020207330BDAF
:102F500030B50446002560892189884209D00020C7
:102F6000207361896068455C6189204600F003F840
:102F70006081284630BD02461388481C834201D137
:102F800000207047481C80B20146FAE72DE9F04165
:102F900004460E4600202081608120732680002791
:102FA000012000F003F9054620782870002007462C
:102FB00065602046BDE8F08110B50446606800F009
:102FC000EDF8204610BD10B50446A06AFFF7D5FC09
:102FD000606AFFF7C4FC10BD10B50446606AFFF7D5
:102FE000CCFCA06AFFF7BBFC10BD10B50446A06A7C
:102FF000FFF7C3FC606AFFF7C0FC10BD10B50446C4
:10300000206AFFF7ACFC10BD10B50446A069FFF7BD
:10301000A6FC10BD10B50446206AFFF7AEFC10BD3B
:1030200010B50446A069FFF7A8FC10BD10B5044612
:10303000E06AFFF751FD10B12046FFF7D6FF206B85
:10304000FFF74AFD606B00F03FF8A06010BD0FB4C1
:10305000019981610299C1610399016204994162F8
:10306000059981620699C1620799016308994163D4
:103070000999816304B0704710B504462046FFF7F4
:10308000B4FF2046FFF7C6FF10BD000010B5044690
:10309000204600F013F80446064820600220207104
:1030A000062060710020A060E06020616061E06344
:1030B000204610BD783800087047000001490160C3
:1030C000704700008438000801464869704701468F
:1030D0008868704770B50C46A04207D0406800BFB2
:1030E00005462046406800BF854201D1012070BDE1
:1030F000002070BD70B50C46A04209D0406800BFEA
:1031000005462046406800BF854201D0012070BDC1
:10311000002070BD10B500F025F80149016010BD18
:10312000C038000810B500F023F80149016010BD57
:10313000C038000810B5AFF3008010BD10B500F026
:1031400011F80149016010BDD438000810B500F035
:103150000FF80149016010BDD438000810B5AFF375
:10316000008010BD0149016070470000E838000888
:103170000149016070470000E838000810B50446B6
:10318000241F2046FFF791FB10BD70B504460D4685
:10319000241F29462046FFF7C0FC70BD10B500F083
:1031A00001F810BD10B500F08DF910BD10B5040088
:1031B00007D1012405E0FDF79BF8006800B9044839
:1031C0008047204600F0DEF90028F4D010BD000052
:1031D0007527000810B530B1006820B14038C46BC5
:1031E0002CB1204610BDFDF7FFF9002010BDFDF702
:1031F000FBF9F6E702480068C0F3022070470000C0
:103200000CED00E010B5002804DB0A07130E054A98
:10321000135406E00A07140E034A00F00F031B1FA5
:10322000D45410BD00E400E018ED00E02DE9F041B9
:10323000074690460E460025102000F0A3F9040032
:103240000BD0C4F80C80C4E90176FDF74BF8016897
:10325000216004602846BDE8F0810125FAE72DE9E8
:10326000F0410646FDF73EF8804613E026B1E068DF
:10327000B04201D025460EE020682860D4E9010163
:10328000D8F800708847204600F01CF9D8F80000F4
:10329000B84200D045462C68002CE7D1BDE8F0814B
:1032A0000020FDF729B800002DE9F04D00248AB078
:1032B0000126CDE908649B4617468A46254600B19B
:1032C0000068CAF8005080461046FFF783FF114996
:1032D000FFF700FF08B1B86800E0032008A907AABB
:1032E000CDE904218DF81C5006AB069509A9CDE95E
:1032F0000263CDE900015B463A4651464046FFF77E
:103300000FFD10B1089800B101240AB02046BDE8B5
:10331000F08D00004436000802E008C8121F08C102
:10332000002AFAD170477047002001E001C1121F46
:10333000002AFBD17047000010B54748FFF73AFB61
:103340000446464A4649FFF771FF4648FFF732FBFD
:103350000446424A4249FFF769FF4348FFF72AFB08
:1033600004463E4A3E49FFF761FF4048FFF722FB13
:1033700004463A4A3A49FFF759FF3D48FFF71AFB1E
:103380000446364A3649FFF751FF3A48FFF712FB29
:103390000446324A3249FFF749FF3748FFF7AAFB94
:1033A00004462E4A3549FFF741FF3548FFF7A2FB97
:1033B00004462A4A3149FFF739FF3248FFF79AFBA2
:1033C0000446264A2D49FFF731FF2F48FFF722FB1D
:1033D0000446224A2D49FFF729FF2D48FFF71AFB23
:1033E00004461E4A2949FFF721FF2A48FFF74EFEEF
:1033F00004461A4A2849FFF719FF2848FFF77CFAC4
:103400000446164A2649FFF711FF32212548FFF7E7
:1034100039FB0446114A2449FFF708FF1F4A214996
:103420002248FFF75FFC04460C4A2149FFF7FEFEE5
:1034300032212048FFF7EEF90446084A1E49FFF7FB
:10344000F5FE1C491D48FFF7C9FB0446034A1C4909
:10345000FFF7ECFE10BD0000240100200000000872
:10346000D9290008380100204C010020600100200B
:1034700074010020880100209C010020192B000805
:10348000B0010020C4010020D8010020412A00081A
:10349000F801002018020020B9300008580200206E
:1034A0002D29000874020020C12A00088002002093
:1034B000112D0008A40200203D280008BC020020B5
:1034C000052C000810B5002821D0114B0022001F48
:1034D000196803E0814203D80A4649680029F9D1F6
:1034E00052B11368841A9C4204D1006818441060D9
:1034F000104602E0506000E0186039B102680B1A13
:10350000934203D10B681A4402604968416010BDC0
:103510002800002010B5FDF779FFFFF7BFF8FEF790
:1035200055FFFEF7FDFEFEF715FFFFF7FBF8FFF76F
:1035300031F8FFF795F8FFF763F8FEF7B9FFFFF7EB
:103540000FF8FFF72FF902220B490C48FDF79EFBFD
:10355000FDF74AFF04460DE0FEF78AFFFDF744FF42
:10356000001BB0F5FA7F05D9FDF73EFF044604487D
:10357000FFF711FAF0E70000000000203000002003
:1035800024010020F0B50B30154D20F00701002478
:10359000144A0FE003688B420BD38B4205D95E1AA5
:1035A00043184768C3E9006700E04368136002C03E
:1035B00004E0021D10680028ECD12046002802D14A
:1035C000286808B10020F0BD064A07481060074A85
:1035D000121A22F00702C0E9002401202860D7E770
:1035E0002C00002028000020CC020020C80400206D
:1035F00000000000000000000102030406070809A3
:10360000000000000102030441524D00432B2B0037
:1036100000000000A03800088C3600087C36000846
:10362000A0380008AE3600087C360008A038000834
:10363000D036000820360008A0380008F43600080C
:1036400014360008A038000819370008143600089E
:10365000A03800083F3700087C360008A038000872
:103660006737000874360008A0380008763700086D
:103670007436000890380008833700089038000836
:1036800090370008B03800089D3700084E31305F91
:103690005F637878616269763131375F5F636C614F
:1036A00073735F747970655F696E666F45004E3144
:1036B000305F5F637878616269763131375F5F7060
:1036C000626173655F747970655F696E666F4500EE
:1036D0004E31305F5F637878616269763131395F8E
:1036E0005F706F696E7465725F747970655F696E23
:1036F000666F45004E31305F5F637878616269764E
:103700003132305F5F73695F636C6173735F7479CB
:1037100070655F696E666F45004E31305F5F63783C
:1037200078616269763132315F5F766D695F636CB3
:103730006173735F747970655F696E666F45004E83
:1037400031305F5F637878616269763132335F5F11
:1037500066756E64616D656E74616C5F74797065B9
:103760005F696E666F4500537431306261645F74E7
:103770007970656964005374396261645F616C6C6F
:103780006F6300537439657863657074696F6E0098
:10379000537439747970655F696E666F00760000E6
:1037A0000000000000000000ED27000800000000FD
:1037B00000000000832800089B2800085328000808
:1037C0005F2800086B280008772800088F28000869
:1037D000EB280008AB280008FCFFFFFF00000000FA
:1037E0007D31000800000000000000003B290008B7
:1037F0000000000000000000A1320008A132000813
:10380000A1320008A1320008A1320008A13200084C
:10381000A1320008A13200080000000000000000F2
:10382000132A00080000000000000000652A0008BC
:103830000000000000000000C92A0008000000008D
:1038400000000000D92B00081B2B0008FCFFFFFF25
:10385000000000008B3100080000000000000000A4
:10386000852C00080000000000000000A1320008C4
:1038700000000000000000002D30000800000000E3
:1038800000000000A132000800000000143600080B
:1038900000000000000000000000000038360008B2
:1038A000000000000000000000000000503600088A
:1038B0000000000000000000000000005C3600086E
:1038C000353100080000000000000000000000008A
:1038D000683600085D3100080000000000000000AC
:1038E0000000000074360008000000000000000026
:1038F000000000001839000800000020300000001F
:1039000018330008483900083000002098080000EB
:103910002833000825FAFFFF000000000000000027
:103920000000000010000000010000000024F4006E
:103930000000000000000000000000000000000087
:0839400000000000000000007F
:04000005080000ED02
:00000001FF
