:020000040800F2
:100000007808002005010008AB1F0008A31F0008A6
:10001000A71F00087D070008492200080000000013
:10002000000000000000000000000000D91F0008D0
:10003000BD07000800000000AD1F0008DB1F00081E
:100040001F0100081F0100081F0100081F01000810
:100050001F0100081F0100081F0100081F01000800
:100060001F0100081F0100081F0100088107000888
:100070001F0100081F0100081F0100081F010008E0
:100080001F0100081F010008190600081F010008D1
:100090001F0100081F0100081F0100081F010008C0
:1000A0001F0100081F0100081F0100081F010008B0
:1000B0001F0100081F0100081F0100081F010008A0
:1000C0001F0100081F0100081F0100081F01000890
:1000D0001F0100081F0100081F0100081F01000880
:1000E0001F0100081F0100081F010008DFF810D0E1
:1000F00000F068FA00F03CF800480047992F00082B
:10010000780800200648804706480047FEE7FEE7DB
:10011000FEE7FEE7FEE7FEE7FEE7FEE7FEE7FEE7B7
:10012000E51F0008ED00000840EA01039B0703D02B
:1001300009E008C9121F08C0042AFAD203E011F826
:10014000013B00F8013B521EF9D27047D2B201E0E8
:1001500000F8012B491EFBD270470022F6E710B5CC
:1001600013460A4604461946FFF7F0FF204610BD25
:1001700070B5054C054D03E0206820448047241DE0
:10018000AC42F9D170BD0000CC330008D033000878
:100190000920704709207047704770470920704751
:1001A000024801464860001D704700002000002002
:1001B00070B5054600F04FF804461DB1284600F022
:1001C0001FF808B1A06801E055F8140C2061012067
:1001D0002073BDE8704000F02EB8040001D000F09C
:1001E00004F92046FFF7E4FF02680B689A4205D144
:1001F00040684968884201D101207047002070475B
:1002000010B50349FFF7F0FF80F0010010BD0000BA
:100210005431000810B5044600F01DF8783CC06960
:10022000214600F07EF8002804D12046BDE81040A9
:1002300002F08ABE10BD10B500F00DF8016919B1C9
:1002400000220261884701E080688047AFF30080A8
:1002500010B5AFF3008070B5FFF7A2FF0468054644
:10026000A4B9202002F034FF040011D00949002075
:100270002C60C4E900010849A1602073206160611D
:100280000649A06109B100F038F8E061204670BD70
:10029000AFF30080000000005102000800000000E1
:1002A00070B504000D4609D004F12000FFF79CFF53
:1002B00020B12068A84201D1204670BD002000F086
:1002C0003BF8D5E90023A0F15801C1E90023002241
:1002D00040F85C2C40F8642C40F8682C40F8785DBD
:1002E00070BD0000004870472800002070470000E3
:1002F000004870472C000020704710B5882002F09D
:10030000E7FE002801D00021017010BD802902D82D
:1003100008B1017809B100207047012100F8081BDD
:10032000704718B100F10802914201D000207047D7
:10033000002101707047000070B50446FFF78BFF85
:10034000783405462646204602F0C2FE040007D156
:100350003146E869FFF7DAFF040001D1FFF728FF13
:100360000AA104F12000D1E90021C0E90021002107
:10037000A162E16261612161A161E161A868E0605F
:100380006868A06004F1780070BD000041524D0023
:10039000432B2B000000000070B5FFF75CFF4469A1
:1003A000054614B90020FFF703FFE06904F12006B9
:1003B000401CE0613046FFF723FF002801D026688B
:1003C00003E0286800F10100286002D04FF000022D
:1003D00000E022684FF000013046AFF30080304665
:1003E000092000BF3046FFF7F8FE70B50546466AA3
:1003F000FFF731FF04462846FFF702FF20B12946E8
:100400006069FFF74DFF07E0A5F12000C169491EB3
:10041000C1612168491E21604169491C416101692E
:1004200011B96169016160612846AFF3008030460F
:1004300070BD000073B50C46FFF70DFF54F80C1C9F
:10044000203C31B1E169491EE1610168491E01604A
:100450007CBD616804F1780509B1284688472846C3
:10046000BDE87C40FFF7D6BEFFF7BFFF2846FFF789
:10047000D1FEFFF791FF70B50D46A0F158044C492D
:10048000A160012140F85C1C40E91E52FFF7E3FE29
:1004900001682A46491C016000212046AFF3008014
:1004A0002046092000BF2046FFF797FE2DE9FF4DAB
:1004B0009A4693460E468046FFF7A2FE002875D165
:1004C000A8F12000012708F1580805680024CDF89C
:1004D00008803146284602F07BFB10B1CAF8008044
:1004E00062E0284602F0E0FB0190304602F0DCFBBF
:1004F00000903049019802F06BFB20B92D4900981B
:1005000002F066FB20B1DDE9001002F071FB08BBD0
:100510002849019802F05CFBC0B1307A297A00F0DA
:10052000030001F00301641C31EA00023ED130EA0D
:10053000010100D077B1C00700D100270298ED6813
:10054000F6680028C5D000680290C2E7012C02D0EE
:100550006CB109D02AE01849304602F039FB18B1D5
:10056000BBF1000F22D1B9E7BBF1000F1ED1134937
:10057000019802F02DFB20B91149019802F028FBE7
:10058000A0B100200090019033462A4603A902A89A
:1005900002F0F4FB002804D00399CAF800101CB143
:1005A000022004B0BDE8F08D0120FAE70020F8E752
:1005B0003504000878310008D03100088431000883
:1005C00090310008064C074D06E0E06840F001035A
:1005D00094E8070098471034AC42F6D3FFF78AFD41
:1005E000AC330008CC33000838B5684602F018FB7D
:1005F0000420FFF7A1FE694602F00AFB04466846A4
:1006000002F016FB024A03492046FFF734FF0000C0
:10061000312C0008A831000810B5024800F0A2F9FA
:1006200010BD00003800002070B504460025206889
:10063000806800F00100F0B12068806820F00100BF
:100640002168886000F0D0FE05460EE000F0CCFE88
:10065000401B022809D9A06A40F01000A062E06A9D
:1006600040F00100E062012070BD2068806800F069
:1006700001000028EAD10020F6E770B505466C6A53
:10068000A06A00F05000E0B9A06A40F40070A062D7
:100690002068806800F46020B0F5602F0DD1207BC9
:1006A00058B9A06A20F48070A062A06A00F480505B
:1006B00018B9A06A40F00100A062204600F032F9AB
:1006C00003E0206A016B2846884770BD70B5054677
:1006D0006C6AA06A40F04000A062E06A40F004004A
:1006E000E062204600F03DF970BD70B50446656AD1
:1006F000284600F035F970BD38B5044600250020C5
:1007000000902068806800F0010080BB206880684D
:1007100040F0010021688860164800681649B0FB67
:10072000F1F0009002E00098401E00900098002830
:10073000F9D100F059FE054613E000F055FE401BCC
:1007400002280ED9A06A40F01000A062E06A40F0D2
:100750000100E06200BF002084F8240000BF0120F7
:1007600038BD2068806800F001000028E5D0002036
:10077000F6E700001C00002040420F0000BFFEE72B
:1007800010B5024800F042FB10BD000068000020D8
:1007900030B590F840500124AC40C56B6C600468E3
:1007A00063604468102C04D10468A2600468E160AE
:1007B00003E00468A1600468E26030BD70477047E0
:1007C0007047000038B5024600230020009000BFAB
:1007D00092F82400012801D1022038BD012082F8BE
:1007E000240000BF4868072812D21068406B0C79BB
:1007F000641E04EB84051F24AC40A0430D796D1EDC
:1008000005EB85050C68AC4020431468606327E065
:1008100048680D2812D21068006B0C79E41F04EBB5
:1008200084051F24AC40A0430D79ED1F05EB850521
:100830000C68AC4020431468206311E01068C06A63
:100840000C790D3C04EB84051F24AC40A0430D79CA
:100850000D3D05EB85050C68AC4020431468E06253
:1008600008680A2812D31068C0680C780A3C04EBA8
:1008700044050724AC40A0430D780A3D05EB45052F
:100880008C68AC4020431468E0600FE01068006999
:100890000C7804EB44050724AC40A0430D7805EB2D
:1008A00045058C68AC402043146820610868102816
:1008B00002D00868112827D1174C1068A0421ED119
:1008C0001068806800F40000F0B91068806840F497
:1008D00000001468A0600868102815D10F4800684F
:1008E0000F4CB0FBF4F000EB80004000009002E001
:1008F0000098401E009000980028F9D104E0906A0A
:1009000040F020009062012300BF002082F8240004
:1009100000BF184661E70000002401401C000020D1
:1009200040420F0010B504460948A0420ED10948C4
:100930000188094801F037FF06484188074801F05F
:1009400032FF02220349024800F0A0F910BD000066
:100950003800002000000020D4010020F401002015
:100960007047704710B504462068406800F02000CA
:1009700020282FD12068006800F00200022829D129
:10098000A06A00F0100018B9A06A40F40070A062DC
:100990002068806800F46020B0F5602F13D1207BC0
:1009A00088B92068406820F0200021684860A06A6B
:1009B00020F48070A062A06A00F4805018B9A06A88
:1009C00040F00100A0622046FFF7ACFF6FF012007C
:1009D000216808602068406800F0800080283BD1D2
:1009E0002068006800F00400042835D1A06A00F0F7
:1009F000100018B9A06A40F40050A0622068806816
:100A000000F4E040B0F5E04F0DD02068406800F4FD
:100A10008060D0B92068806800F46020B0F5602F55
:100A200013D1207B88B92068406820F080002168BD
:100A30004860A06A20F48050A062A06A00F4807030
:100A400018B9A06A40F00100A0622046FFF7B8FE86
:100A50006FF00C00216808602068406800F04000DA
:100A600040280FD12068006800F0010050B1A06A52
:100A700040F48030A062204600F0A8F86FF001003A
:100A80002168086010BD00002DE9F04104460027F0
:100A900000250026A84614B90120BDE8F081A06811
:100AA00010B1207D00B100BFA06A30B90020E06223
:100AB00084F82400204600F08BF82046FFF7B4FDB0
:100AC0000746A06A00F01000002873D1002F71D1F2
:100AD000A06A20F4885040F00200A062E1696068DA
:100AE0000843217B40EA41000643A068B0F5807FBF
:100AF00002D0A068012802D14FF4807000E00020ED
:100B00000543207D012811D1207B38B9A069401E02
:100B10004FF4006141EA4030054307E0A06A40F02D
:100B20002000A062E06A40F00100E06220684068B6
:100B300020F4694028432168486020688068214982
:100B40000840304321688860A068B0F5807F02D0FB
:100B5000A068012802D14FF4807000E00020B0F5B9
:100B6000807F03D1208A401E4FEA00582068C06A67
:100B700020F4700040EA08002168C862206880689C
:100B800011490840B04208D10020E062A06A20F07C
:100B9000020040F00100A06211E0A06A20F0020013
:100BA00040F01000A062E06A40F00100E06201271E
:100BB00005E0FFE7A06A40F01000A0620127384678
:100BC0006BE70000FDF7E1FFFE0E1FFF704700001E
:100BD00010B586B004460020029003900490059062
:100BE00025492068884244D100BF2448806940F4E8
:100BF0000070224988610846806900F40070019005
:100C000000BF00BF00BF0846806940F00400886153
:100C10000846806900F00400019000BF00BF032077
:100C20000290039002A9164800F040FA15481649B0
:100C30000860002048600021134881608021C16065
:100C4000490001618900416100218161C16100F0B9
:100C5000ABF908B1FFF7B3FD00BF0B482062446257
:100C600000BF00221146122000F044FC122000F0C8
:100C700031FC06B010BD000000240140001002400D
:100C80000008014008000240680000202DE9F04102
:100C900004460D461646002757492068884203D06F
:100CA00056492068884205D15348001D006800F469
:100CB000702000E0002000287ED100BF94F82400BE
:100CC000012802D10220BDE8F081012084F824002F
:100CD00000BF2046FFF710FD0746002F6DD1A06A28
:100CE00040F60161884340F48070A0624349206867
:100CF000884209D14048001D006800F4702008B9FE
:100D0000012002E0002000E0012078B1A06A20F478
:100D10008010A0622068406800F4806000B3A06A80
:100D200020F4005040F48050A06219E0A06A40F422
:100D30008010A06230492068884203D02F49206883
:100D4000884205D12C48001D006800F4806000E056
:100D5000002028B1A06A20F4005040F48050A06226
:100D6000A06A00F4805020B1E06A20F00600E06242
:100D700001E00020E06200BF002084F8240000BFF2
:100D80001F48216A88621F48216AC8621E48216A7A
:100D900008636FF00200216808602068806840F4F2
:100DA000807021688860226802F14C0133462A462F
:100DB000206A00F02DF901E01AE014E02068806854
:100DC00000F46020B0F5602F06D12068806840F400
:100DD000A000216888600CE02068806840F48010E2
:100DE0002168886005E000BF002084F8240000E04E
:100DF0000127384667E70000002401400028014031
:100E00007B060008EB060008CD06000870B5044616
:100E1000E06B05682068066894F84010042088405C
:100E20002840002846D006F00400002842D0206860
:100E3000006800F0200028B92068006820F0040055
:100E40002168086057492068884201D1042027E0C2
:100E5000544914312068884201D1402020E0514992
:100E600028312068884201D1001519E04D493C31F4
:100E70002068884202D14FF4804011E04949503146
:100E80002068884202D14FF4802009E0454964314E
:100E90002068884202D14FF4800001E04FF080606A
:100EA000404908394860E06A00287AD02046E16A63
:100EB000884776E094F84010022088402840A0B38C
:100EC00006F0020088B32068006800F0200040B9F6
:100ED0002068006820F00A0021680860012084F87A
:100EE000210030492068884201D1022028E02D49A4
:100EF00014312068884201D1202021E0294928317D
:100F00002068884201D140151AE026493C3120680A
:100F1000884202D14FF4005012E02249503120683B
:100F2000884203D14FF400300AE017E01D496431D4
:100F30002068884202D14FF4001001E04FF00070A9
:100F400018490839486000BF002084F8200000BF1D
:100F5000A06A30B32046A16A884722E094F8401086
:100F6000082088402840E0B106F00800C8B1206899
:100F7000006820F00E002168086094F840100120FD
:100F80008840E16B48600120A06384F8210000BF25
:100F9000002084F8200000BF206B10B12046216B98
:100FA000884770BD080002400146002209B90120AF
:100FB0007047164B0868C01A1423B0FBF3F080008A
:100FC000086412480838C863022081F821000868C4
:100FD000026843F6F0708243D1E901031843CB68FD
:100FE00018430B6918434B6918438B691843CB6945
:100FF000184302430868026000208863012081F8DA
:101000002100002081F8200000BFD1E70800024045
:101010002DE9F04104460D4616461F464FF00008E4
:1010200000BF94F82000012802D10220BDE8F08121
:10103000012084F8200000BF94F8210001282CD161
:10104000022084F821000020A0632068006820F0BE
:101050000100216808603B46324629462046FFF7DA
:1010600097FBE06A30B12068006840F00E0021680C
:1010700008600BE02068006820F004002168086028
:101080002068006840F00A00216808602068006855
:1010900040F001002168086006E000BF002084F8ED
:1010A000200000BF4FF002084046BFE72DE9F84797
:1010B0000346002294466EE14FF0010808FA02F45C
:1010C000D1F8008008EA0400A0427DD1DFF8DCA25C
:1010D000D1F80480A8EB0A09D0453AD014DCB8F165
:1010E000030F50D009DCB8F1000F31D0B8F1010F77
:1010F0001CD0B8F1020F49D120E0B8F1110F18D07F
:10110000B8F1120F42D11EE0B9F5881F25D006DCD8
:10111000B9F5803F20D0B9F5801F37D11AE0B9F575
:10112000001F18D0B9F5041F30D117E0D1F80CC05A
:101130002DE0D1F80C8008F1040C28E0D1F80C80E7
:1011400008F1080C23E0D1F80C8008F10C0C1EE02B
:1011500000BF00BF00BF00BF00BF00BFD1F80880C4
:10116000B8F1000F02D14FF0040C0BE0D1F8088069
:10117000B8F1010F03D14FF0080C1C6102E04FF0F1
:10118000080C5C6103E04FF0000C00E000BF00BF02
:10119000FF2801D8984601E003F104084646FF28DD
:1011A00002D84FEA820803E0A2F108084FEA880853
:1011B0004746D6F800804FF00F0909FA07F928EAE8
:1011C00009080CFA07F900E088E048EA0908C6F8BF
:1011D0000080D1F8048008F08058B8F1805F7DD19C
:1011E00000BFDFF8CC81D8F8188048F00108DFF89C
:1011F000C091C9F81880C846D8F8188008F00108CE
:10120000CDF8008000BF00BF4FEAB9384FEA92091D
:1012100058F829504FEA82784FEA18794FF00F08B2
:1012200008FA09F825EA0805DFF88881434502D164
:101230004FF0000816E0DFF88081434502D14FF0FF
:1012400001080FE0DFF87481434502D14FF0020836
:1012500008E0DFF86C81434502D14FF0030801E05C
:101260004FF004084FEA82794FEA197908FA09F831
:1012700048EA0505DFF84C814FEA920948F8295001
:10128000D1F8048008F48038B8F5803F0AD1DFF83F
:101290003881D8F8008048EA0008DFF82C91C9F8B6
:1012A000008009E0DFF82081D8F8008028EA0008F3
:1012B000DFF81491C9F80080D1F8048008F40038F0
:1012C000B8F5003F10D1DFF8008108F10408D8F824
:1012D000008048EA0008DFF8F09000E05AE009F1E9
:1012E0000409C9F800800DE0DFF8DC8008F104088B
:1012F000D8F8008028EA0008DFF8CC9009F104094A
:10130000C9F80080D1F8048008F48018B8F5801F6F
:101310000ED1DFF8B48008F10808D8F8008048EA58
:101320000008DFF8A49009F10809C9F800800DE071
:10133000DFF8948008F10808D8F8008028EA00084F
:10134000DFF8849009F10809C9F80080D1F8048019
:1013500008F40018B8F5001F0ED1DFF86C8008F112
:101360000C08D8F8008048EA0008DFF85C9009F122
:101370000C09C9F800800DE0DFF84C8008F10C087A
:10138000D8F8008028EA0008DFF83C9009F10C0941
:10139000C9F80080521CD1F8008028FA02F8B8F190
:1013A000000F7FF489AEBDE8F8870000000011103F
:1013B0000010024000080140000C014000100140F4
:1013C00000140140080001400004014002469368F7
:1013D0000B400BB1012000E0002070470AB1016111
:1013E00001E00B040361704701480068704700008A
:1013F00010000020034800680349097808440149A7
:1014000008607047100000201800002010B5084840
:10141000006840F0100006490860032000F0A8F8BA
:10142000002000F007F800F02BF8002010BD0000AD
:101430000020024070B504460E4800784FF47A71DF
:10144000B1FBF0F00C490968B1FBF0F5284600F05B
:10145000A1FC08B1012070BD102C07D2002221464A
:10146000501E00F047F80548046001E00120F2E753
:101470000020F0E7180000201C00002014000020CD
:1014800008B500BF1148806940F001000F4988612C
:101490000846806900F00100009000BF00BF00BF57
:1014A0000846C06940F08050C8610846C06900F035
:1014B0008050009000BF00BF00BF0549486820F081
:1014C000E06040F08070486000BF08BD001002403E
:1014D0000000014001460846002809DB00F01F0318
:1014E00001229A4043099B0003F1E023C3F8002145
:1014F00000BF70472DE9F05F80460D461646002775
:1015000001F0E2FB074639462A46334601F0070060
:10151000C0F1070ABAF1040F02D94FF0040A01E042
:10152000C0F1070AD14600F1040ABAF1070F02D24E
:101530004FF0000A01E0A0F1030AD4464FF0010A7F
:101540000AFA09FAAAF1010A0AEA020A0AFA0CFAE4
:101550004FF0010B0BFA0CFBABF1010B0BEA030B89
:101560004AEA0B042146404601F0B6FBBDE8F09F75
:1015700000BF00F00702064B19684FF6FF03194041
:10158000044B0B4343EA0221014B196000BF704733
:101590000CED00E00000FA05F8B504460026002531
:1015A000207800F0010000286AD000274248C06976
:1015B00000F0805068B900BF3F48C06940F08050DB
:1015C0003D49C8610846C06900F08050009000BFE6
:1015D00001273A48006800F48070B0B937480068C5
:1015E00040F4807035490860FFF7FEFE064606E0CD
:1015F000FFF7FAFE801B642801D90320F8BD2F48AD
:10160000006800F480700028F2D02B48006A00F4D3
:1016100040752DB3A08800F44070A84220D0264821
:10162000006A20F440750120254908600020086008
:101630002148056205F0010090B1FFF7D5FE06468E
:1016400008E0FFF7D1FE801B41F28831884201D9C2
:101650000320D3E71848006A00F002000028F0D009
:101660001548006A20F44070616808431249086216
:10167000012F04D10846C06920F08050C86100BF26
:10168000207800F00200022807D10B48406820F4BF
:101690004040A168084308494860207800F01000E5
:1016A000102807D10448406820F48000E16808430E
:1016B000014948600020A1E700100240007000408E
:1016C0004004424270B504460D460CB9012070BD7D
:1016D0005A48006800F00700A8420ED25748006838
:1016E00020F007002843554908600846006800F0CC
:1016F0000700A84201D00120E9E7207800F00200AD
:1017000002281DD1207800F00400042805D14C489F
:10171000406840F4E0604A494860207800F00800E2
:10172000082805D14648406840F460504449486064
:101730004348406820F0F000A168084340494860F1
:10174000207800F0010078B36068012806D13C4899
:10175000006800F4003090B90120B8E76068022802
:1017600006D13748006800F0007040B90120AEE7AC
:101770003348006800F0020008B90120A7E73048AC
:10178000406820F00300616808432D494860FFF776
:101790002BFE064609E0FFF727FE801B41F2883149
:1017A000884202D9032092E707E02548406800F00C
:1017B0000C006168B0EB810FEDD12048006800F0AB
:1017C0000700A8420ED91D48006820F007002843F2
:1017D0001A4908600846006800F00700A84201D0D6
:1017E000012074E7207800F00400042807D1144891
:1017F000406820F4E060E1680843114948602078BF
:1018000000F00800082808D10D48406820F4605016
:10181000216940EAC1000A49486000F03FF80849E0
:101820004968C1F30311074A515CC8400649086082
:1018300006480068FFF7FEFD002048E70020024050
:10184000001002403C3100081C0000201400002061
:1018500001480068704700001C00002000B5FFF739
:10186000F7FF04494968C1F30221034A515CC840AB
:1018700000BD0000001002404C31000800B5FFF729
:10188000E7FF04494968C1F3C221034A515CC840DB
:1018900000BD0000001002404C310008F0B585B0DA
:1018A0000FF26C0C9CE8E01001A8A0E8E0101CA569
:1018B0002D68009500210022002300240020194DEE
:1018C000696801F00C05F5B1042D02D0082D19D17D
:1018D00001E0154819E001ADC1F38346AC5D01F4A8
:1018E000803555B10F4D6D68C5F340451DF8052095
:1018F0000D4D6543B5FBF2F302E00C4D04FB05F31F
:10190000184602E000BF084800BF00BF05B0F0BDA8
:1019100002030405060708090A0B0C0D0E0F101030
:10192000010200000010024000127A0000093D0090
:10193000F8B504460CB90120F8BD207800F001008C
:10194000002878D0F848406800F00C0004280CD03B
:10195000F548406800F00C00082811D1F2484068B2
:1019600000F48030B0F5803F0AD1EF48006800F401
:10197000003000285FD0606800285CD10120DBE7E0
:1019800000BF6068B0F5803F06D1E748006840F4CA
:101990008030E549086028E0606858B9E24800688E
:1019A00020F48030E04908600846006820F4802078
:1019B00008601AE06068B0F5A02F0BD1DA48006823
:1019C00040F48020D84908600846006840F4803020
:1019D00008600AE0D448006820F48030D2490860EA
:1019E0000846006820F48020086000BF606888B165
:1019F000FFF7FAFC054606E0FFF7F6FC401B6428FB
:101A000001D9032098E7C848006800F40030002896
:101A1000F2D010E0FFF7E8FC054606E0FFF7E4FC33
:101A2000401B642801D9032086E7BF48006800F402
:101A300000300028F2D1207800F00200022857D1AF
:101A4000B948406800F00C0050B1B748406800F059
:101A50000C00082818D1B448406800F4803098B9C8
:101A6000B148006800F0020020B12069012801D0CF
:101A7000012061E7AC48006820F0F800616940EAA5
:101A8000C100A949086033E02069E8B10120A749F5
:101A90000860FFF7A9FC054606E0FFF7A5FC401B20
:101AA000022801D9032047E79F48006800F00200A0
:101AB0000028F2D09C48006820F0F800616940EAF4
:101AC000C1009949086013E0002098490860FFF7B9
:101AD0008BFC054606E0FFF787FC401B022801D976
:101AE000032029E79048006800F002000028F2D1A6
:101AF000207800F0080008282DD1A069B8B1012095
:101B00008B490860FFF770FC054606E0FFF76CFCA8
:101B1000401B022801D903200EE78348406A00F0E9
:101B200002000028F2D0012000F042FA13E0002069
:101B30007F490860FFF758FC054606E0FFF754FCB4
:101B4000401B022801D90320F6E67748406A00F0DE
:101B500002000028F2D1207800F00400042873D19C
:101B600000277148C06900F0805070B900BF6E480E
:101B7000C06940F080506C49C8610846C06900F0F7
:101B80008050009000BF00BF01276A48006800F441
:101B90008070B0B96748006840F48070654908609B
:101BA000FFF722FC054606E0FFF71EFC401B6428F9
:101BB00001D90320C0E65F48006800F48070002867
:101BC000F2D000BFE068012806D15748006A40F013
:101BD00001005549086227E0E06858B95248006A98
:101BE00020F00100504908620846006A20F0040015
:101BF000086219E0E06805280BD14B48006A40F004
:101C00000400494908620846006A40F00100086281
:101C10000AE04548006A20F001004349086208468E
:101C2000006A20F00400086200BFE068A0B1FFF77E
:101C3000DBFB054609E0FFF7D7FB401B41F288318B
:101C4000884202D9032077E622E03748006A00F094
:101C500002000028EFD012E0FFF7C6FB054608E0BF
:101C6000FFF7C2FB401B41F28831884201D90320B3
:101C700062E62D48006A00F002000028F0D1012F32
:101C800005D12948C06920F080502749C86100BFAC
:101C9000E069C8B32448406800F00C00082860D010
:101CA000E069022848D1002020490866FFF79CFB24
:101CB000054606E0FFF798FB401B022801D90320E8
:101CC0003AE61948006800F000700028F2D1206A56
:101CD000B0F5803F07D11448406820F40030A16877
:101CE000084311494860D4E9080108430E4949688E
:101CF00021F4741108430C49486001200B4908661F
:101D0000FFF772FB054607E03DE0FFF76DFB401B68
:101D1000022801D903200FE60348006800F0007094
:101D20000028F2D02FE000000010024000004242E4
:101D30008004424200700040002014490866FFF70A
:101D400053FB054606E0FFF74FFB401B022801D975
:101D50000320F1E50E48006800F000700028F2D181
:101D600011E0E069012800D1E6E50948466806F47B
:101D70008031206A814204D106F47011606A814288
:101D800001D00120D8E50020D6E500000000424245
:101D90000010024070B504462546681EB0F1807FF1
:101DA00001D301200FE0681E4FF0E02148610F21B0
:101DB0004FF0FF3000F090FF00204FF0E0218861ED
:101DC00007200861002070BD10B504460CB9012041
:101DD00010BDA06900B100E000BF94F8390028B937
:101DE000002084F83800204600F028F8242084F8E9
:101DF00039002068C06820F400502168C86020467F
:101E000000F01CF92068006920F490402168086106
:101E10002068406920F02A00216848612068C06875
:101E200040F400502168C8600020E063202084F85E
:101E3000390084F83A000020CAE7000010B586B0E7
:101E40000446002002900390049005901A492068EF
:101E500088422ED100BF1948806940F4804017495C
:101E600088610846806900F48040019000BF00BF8F
:101E700000BF0846806940F0040088610846806918
:101E800000F00400019000BF00BF4815029002203E
:101E900003900320059002A90948FFF707F94FF4C2
:101EA0008060029000200390049002A90448FFF78C
:101EB000FDF806B010BD00000038014000100240DF
:101EC000000801402DE9F84304460D4616461F461A
:101ED0004FF0000994F83A00202860D105B116B9F6
:101EE0000120BDE8F88300BF94F83800012801D133
:101EF0000220F6E7012084F8380000BF0020E063EC
:101F0000222084F83A00FFF76FFA8146A685E6851D
:101F100039E0E08D401EE085A068B0F5805F1BD100
:101F20004B46002220212046009700F057F908B1C7
:101F30000320D6E7A846206938B920684068C0F376
:101F40000800A8F80000AD1C1DE020684068C0B281
:101F5000A8F800006D1C16E04B4600222021204608
:101F6000009700F03BF908B10320BAE7206920B9D7
:101F70002068406805F8010B05E02068406800F023
:101F80007F0005F8010BE08D0028C2D1202084F8E5
:101F90003A0000BF002084F8380000BFA1E702200B
:101FA0009FE700BFFEE700BFFEE7704770470000F5
:101FB00008B508490968C9084FF47A72B1FBF2F113
:101FC0004143009100BF00BF00994A1E00920029C2
:101FD000F9D108BD1C000020704710B5FFF70AFAC0
:101FE00010BD00001148006840F001000F49086072
:101FF000084640680E4908400C4948600846006899
:102000000C490840094908600846006820F480200F
:1020100008600846406820F4FE0048604FF41F0046
:102020008860C8030449086070470000001002403F
:102030000000FFF8FFFFF6FE08ED00E070B5044673
:102040002168096921F44051E26811432268116155
:102050002269A1681143626941EA02052168C968E1
:1020600041F20C62914329432268D1602168496999
:1020700021F44071A269114322685161564A2168D6
:10208000914254D1FFF7FAFB00EBC00101EB0011C4
:1020900062689200B1FBF2F100EBC00202EB0012A9
:1020A00063689B00B2FBF3F26423B2FBF3F202EB32
:1020B000C20303EB0212A1EB8201322202EB0111F7
:1020C0006422B1FBF2F101F0F00100EBC00202EB7F
:1020D000001263689B00B2FBF3F26423B2FBF3F2DD
:1020E00001EB021200EBC00101EB001163689B00E1
:1020F000B1FBF3F100EBC00303EB00136668B6001D
:10210000B3FBF6F36426B3FBF6F303EBC30606EB6F
:102110000313A1EB8301322303EB01116423B1FB11
:10212000F3F101F00F0111442268916053E0FFF7D1
:1021300095FB00EBC00101EB001162689200B1FB5E
:10214000F2F100EBC00202EB001263689B00B2FBED
:10215000F3F26423B2FBF3F202EBC20303EB0212CD
:10216000A1EB8201322202EB01116422B1FBF2F1F8
:1021700001F0F00100EBC00202EB001263689B006B
:10218000B2FBF3F26423B2FBF3F201EB021200EBB9
:10219000C00101EB001163689B00B1FBF3F100EBA0
:1021A000C00303EB00136668B600B3FBF6F36426C6
:1021B000B3FBF6F303EBC30606EB0313A1EB8301BA
:1021C000322303EB01116423B1FBF3F101F00F01A2
:1021D00011442268916070BD003801402DE9F04142
:1021E00004460D4617469846069E21E0701CF8B13D
:1021F0002EB1FFF7F9F8A0EB0800B04218D920681B
:10220000C06820F4D0702168C8602068406920F060
:10221000010021684861202084F8390084F83A00E0
:1022200000BF002084F8380000BF0320BDE8F08123
:10223000206800682840A84201D1012000E0002069
:10224000B842D3D00020F1E700BFFEE708B500BFD9
:102250000A48406940F00100084948610846406961
:1022600000F00100009000BF002211460B20FFF794
:1022700041F90B20FFF72EF908BD000000100240C5
:102280000EB500200090019002901948194908608D
:1022900081151848816001210173002101754FF4F7
:1022A0006021C16100201349486002211148016189
:1022B000FEF7EAFB08B1FEF782FA00200090012049
:1022C00001900320029069460A48FEF77BFA08B1A4
:1022D000FEF775FA01200090022001900320029081
:1022E00069460448FEF76EFA08B1FEF768FA0EBDBB
:1022F000002401403800002000B585B00020019086
:1023000002900390049000BF2148806940F02000B3
:102310001F4988610846806900F02000009000BFD6
:1023200000BF0846806940F0040088610846806963
:1023300000F00400009000BF00BF0846806940F034
:10234000080088610846806900F00800009000BF1E
:1023500000224FF400410F48FFF740F84FF40040CF
:10236000019001200290002003900220049001A916
:102370000848FEF79BFE4FF4807001900020029009
:10238000039001A90448FEF791FE05B000BD0000CE
:1023900000100240000C01400008014010B50D483B
:1023A00000780D2802DB00200A4908700A48094914
:1023B000097850F8210060B1064801780078401C87
:1023C000044A1070044850F82140206801682046F3
:1023D000884710BD04000020EC00002000B58FB03D
:1023E000104806901048079010480890104809902F
:1023F00010480A9010480B9010480C9010480D900F
:1024000010480E90182209A96846FDF78DFE0E4867
:1024100006A90EC900F0A8FB0B4800F077F80FB032
:1024200000BD000034010020480100205C010020B4
:102430007001002084010020AC010020C0010020B8
:10244000D4010020F40100201402002010B504463D
:1024500001231A4621460448FFF734FD08B901203C
:1024600010BD0020FCE70000AC00002010B50449BE
:10247000044800F01FF9034800F048F810BD0000C0
:10248000140200200800002010B500234FF4004281
:102490000F49104800F02CF90F490E4800F021F9BF
:1024A0000E490C4800F020F90A4800F02FF80C48BB
:1024B00000F02CF80B4800F029F80B4800F026F843
:1024C0000A4800F023F80A4800F020F810BD000088
:1024D000000C014020010020412500085126000881
:1024E00034010020480100205C0100207001002020
:1024F0008401002000B5034800F008F8024800F00D
:1025000005F800BDD4010020F401002001460A486E
:1025100000780D280DDA51B1074802780078401C88
:10252000054B1870054840F8221001207047002024
:10253000FCE70020FAE7000004000020EC00002087
:1025400070B504460D461646324629462046FEF72B
:1025500045FF70BD10B500234FF48072074908484D
:1025600000F091F90749064800F089F90648FFF79D
:10257000CDFF0648FFF7CAFF10BD0000000801406C
:102580009801002051260008AC010020C001002065
:1025900000B593B0282109A8FDF7DFFD142104A898
:1025A000FDF7DBFD002000900190029003900120D8
:1025B000099000040A9000200B9001200D90022049
:1025C0001090C10311914FF4E011129109A8FFF787
:1025D000AFF908B1FEF7F3F80F2004900220059040
:1025E000002006904FF4806007904FF4A0600890A0
:1025F000022104A8FFF766F808B1FEF7E0F8022010
:102600000090800302906846FEF7C6FF08B1FEF70F
:10261000D6F813B000BD000010B50B480B49086098
:102620004FF4E1304860002108488160C1600161D9
:102630000C21416100218161C161FFF7C5FB08B137
:10264000FEF7BDF810BD000000380140AC000020CE
:1026500070B504460D4629462046FEF7B7FE012810
:1026600000D170BD0020FCE738B5684600F0ECFAF8
:102670000420FDF761FE694600F0DEFA0446684674
:1026800000F0EAFA024A03492046FDF7F4FE000092
:10269000592C0008B431000810B50449044800F072
:1026A000B7F80348FFF732FF10BD00004D240008C3
:1026B0005402002001B141607047416801B9704780
:1026C00000BFFCE710B50446204600F07BFA044644
:1026D0000248206000206060204610BDF4320008EF
:1026E000704701B1C160704701B101617047704727
:1026F000416002818372704710B50446206908B1B9
:10270000606808B9002010BD21892269606890477F
:10271000F9E710B50446E06808B1606800B910BD7B
:1027200021890122E3686068984700BFF7E710B588
:102730000446E06808B1606800B910BD2189002234
:10274000E3686068984700BFF7E710B50446204685
:10275000FFF7D2FF18B12046FFF7E9FF02E020465D
:10276000FFF7D7FF10BD000010B50446204600F06B
:1027700029FA044604482060002060602081A0728D
:10278000E0602061204610BD0033000870474369B7
:10279000C268D21AC260C2680A44C260037CC268BE
:1027A0001A414261704730B504460D46A56029467E
:1027B0002046FFF7ECFF30BD7047000010B504461F
:1027C000204600F0FFF904460648206000206060C3
:1027D000A060E0600320207400206061A061E061DF
:1027E000204610BD0C3300087047C28A038B9A4202
:1027F00000D17047C38A5A1CC28200F10C02D15426
:10280000C28AC3889A4201D10022C28200BFF0E787
:1028100001B1C161704770B504460D4605B970BD80
:10282000E580E688304600F027FAA06000BFF6E7B2
:1028300010B50446E06938B1201DE169884718B138
:1028400021792046FFF7D1FF10BD000070B5044686
:102850000D46204600F0B6F90446074820600020E7
:102860002071E580A060E0822083E061E18820465D
:10287000FFF7D1FF204670BD18330008704701B143
:10288000C1607047704701B970474160028183722F
:1028900000BFF9E710B50446E06808B1606808B900
:1028A000002010BD2189E26860689047F9E70000C8
:1028B00010B50446204600F085F90446044820601F
:1028C000002060602081A0722061204610BD0000C1
:1028D0002433000870470268496802EB2121096827
:1028E000084470472DE9FF4D8CB01446DDE91C68A3
:1028F0008B4600271046199D00F0D6F9704900F06C
:1029000067F998B3A0680F9900F062F9C8B1DBF8D5
:10291000000010B10C99884204D13078022801D00F
:10292000286828B1012028600020CBF80000C3E00F
:10293000012030701A98C8F800000C98CBF80000FD
:1029400012E0DDE91A1202A880E846011898CDE9E4
:102950000005A26859460F9B0C98FFF7C3FF00289B
:1029600003D02868002800D10127A5E0FFE7204612
:1029700000F09AF9534900F02BF9002869D0189813
:102980000B9440F3400008901898103440F3000076
:10299000099089E0606800F001010A910C9969B121
:1029A0000A9969B121460C98FFF795FF82461A985B
:1029B00050B12079800707D5012006E00020F5E717
:1029C0000C9901EB2020F1E70020009020680F997E
:1029D00000F0FEF820B3DBF8000008B1504507D145
:1029E0006068C10702D03178012901D0296829B176
:1029F000012028600020CBF8000029E0C00701D0AA
:102A0000022000E0012030700098C8F80000CBF8E8
:102A100000A03DE0089800E00998401C4CD142E03D
:102A2000009900208DF81C0007AACDE90428069023
:102A300006AB1898CDE90213CDE900052268594686
:102A400050460F9BFFF74EFF0028286802D020B1A8
:102A5000002731E00028FBD125E0069820B9207935
:102A6000C00701D020680690307858B19DF81C103E
:102A7000022901D1022805D01B98006880B106996F
:102A800088420DD19DF81C0030701B98069901609A
:102A9000D8F80000012730B10A980028BCD0B9E767
:102AA00001202860D4E708340B98C16800EBC1000E
:102AB0001030A0423FF66EAF10B03846BDE8F08D42
:102AC000843100089031000810B50289521C02813F
:102AD000028903889A4201D1002202810289438936
:102AE0009A4203D00A78048943681A5510BD0146FA
:102AF0004B894868C21848890B89984202D0488996
:102B0000401C488148890B88984201D100204881A7
:102B100070472DE9F04104460E4600202081608177
:102B200026800027012000F0ABF8054620782870A9
:102B30000020074665602046BDE8F08110B50446D8
:102B4000A06AFFF7F4FD606AFFF7F1FD10BD10B554
:102B50000446E06AFFF79EFE10B12046FFF7EEFF45
:102B6000206BFFF797FE10BD0FB4019981610299A8
:102B7000C1610399016204994162059981620699D4
:102B8000C16207990163089941630999816304B09F
:102B90007047000010B50446204600F013F80446C4
:102BA0000648206002202071062060710020A0608D
:102BB000E06020616061E063204610BD30330008B2
:102BC0007047000001490160704700003C33000875
:102BD00070B50C46A04207D0406800BF05462046AD
:102BE000406800BF854201D1012070BD002070BD4A
:102BF00070B50C46A04209D0406800BF054620468B
:102C0000406800BF854201D0012070BD002070BD2A
:102C100010B500F025F80149016010BD78330008B7
:102C200010B500F023F80149016010BD78330008A9
:102C300010B5AFF3008010BD10B500F011F80149D8
:102C4000016010BD8C33000810B500F00FF8014989
:102C5000016010BD8C33000810B5AFF3008010BDCB
:102C60000149016070470000A0330008014901607C
:102C700070470000A033000810B500F001F810BD47
:102C800010B5040007D1012405E0FDF731FB006811
:102C900000B904488047204600F01AFA0028F4D012
:102CA00010BD00006926000810B530B1006820B1E1
:102CB0004038C46B2CB1204610BDFDF795FC0020B8
:102CC00010BDFDF791FCF6E702480068C0F3022052
:102CD000704700000CED00E010B5002804DB0A0787
:102CE000130E054A135406E00A07140E034A00F0B7
:102CF0000F031B1FD45410BD00E400E018ED00E0EA
:102D00002DE9F041074690460E460025102000F0C0
:102D1000DFF904000BD0C4F80C80C4E90176FDF79C
:102D2000E1FA0168216004602846BDE8F0810125D0
:102D3000FAE72DE9F0410646FDF7D4FA804613E0A4
:102D400026B1E068B04201D025460EE02068286038
:102D5000D4E90101D8F800708847204600F0F4F863
:102D6000D8F80000B84200D045462C68002CE7D1C6
:102D7000BDE8F0810020FDF7BFBA00002DE9F04D5D
:102D800000248AB00126CDE908649B4617468A468E
:102D9000254600B10068CAF8005080461046FFF78B
:102DA00083FF1149FFF714FF08B1B86800E0032062
:102DB00008A907AACDE904218DF81C5006AB069599
:102DC00009A9CDE90263CDE900015B463A465146C7
:102DD0004046FFF787FD10B1089800B101240AB002
:102DE0002046BDE8F08D00009031000802E008C8E0
:102DF000121F08C1002AFAD170477047002001E075
:102E000001C1121F002AFBD17047000010B53948DC
:102E1000FFF7AAFC0446384A3849FFF771FF3848E3
:102E2000FFF7A2FC0446344A3449FFF769FF3548EE
:102E3000FFF79AFC0446304A3049FFF761FF3248F9
:102E4000FFF792FC04462C4A2C49FFF759FF2F4804
:102E5000FFF78AFC0446284A2849FFF751FF2C480F
:102E6000FFF782FC0446244A2449FFF749FF29481A
:102E7000FFF71EFD0446204A2749FFF741FF274878
:102E8000FFF716FD04461C4A2349FFF739FF244883
:102E9000FFF70EFD0446184A1F49FFF731FF21488E
:102EA000FFF78CFC0446144A1F49FFF729FF1F480F
:102EB000FFF784FC0446104A1B49FFF721FF1C481A
:102EC000FFF768FE04460C4A1A49FFF719FF1A4833
:102ED000FFF7F8FB0446084A1849FFF711FF0A21DB
:102EE0001748FFF7B3FC0446034A1649FFF708FFEB
:102EF00010BD000020010020000000088D27000800
:102F000034010020480100205C01002070010020F5
:102F10008401002098010020D5280008AC01002081
:102F2000C0010020D4010020E9270008F40100209E
:102F300014020020C12B000808000020E126000830
:102F4000540200207D28000810B5002821D0114B24
:102F50000022001F196803E0814203D80A4649682D
:102F60000029F9D152B11368841A9C4204D1006837
:102F700018441060104602E0506000E0186039B15B
:102F800002680B1A934203D10B681A440260496825
:102F9000416010BD3000002010B588B0FEF736FA51
:102FA000FFF7F6FAFFF7A8F9FFF750F9FFF768F90E
:102FB000FFF732FBFFF768FAFFF7CCFAFFF79AFA50
:102FC000FFF70CFAFFF752FAFFF766FB02223A49C5
:102FD0003A48FDF75BFEFEF707FA044638A207CA37
:102FE00005AB07C300200490052101A8FFF791FD60
:102FF00061E09DF81000401CC0B2049004A901A833
:10300000FFF762FD9DF81000401CC0B2049004A9B7
:1030100001A8FFF759FD9DF81000401CC0B20490B4
:1030200004A901A8FFF750FD9DF81000401CC0B294
:10303000049004A901A8FFF747FD9DF81000401C6B
:10304000C0B2049004A901A8FFF73EFD9DF810004E
:10305000401CC0B2049004A901A8FFF735FD01A8E7
:10306000FFF745FD0078049001A8FFF740FD0078C8
:10307000049001A8FFF73BFD0078049001A8FFF73A
:1030800036FD0078049001A8FFF731FD0078049028
:1030900001A8FFF72CFD00780490FFF77FF9FEF7F9
:1030A000A3F9001BB0F57A7F05D9FEF79DF9044618
:1030B0000648FFF74AFB9CE700000020380000208C
:1030C0000102030405060708090000002001002092
:1030D000F0B50B30154D20F007010024144A0FE025
:1030E00003688B420BD38B4205D95E1A431847689D
:1030F000C3E9006700E04368136002C004E0021DFA
:1031000010680028ECD12046002802D1286808B1B8
:103110000020F0BD064A07481060074A121A22F044
:103120000702C0E9002401202860D7E7340000200E
:10313000300000207C020020780400200000000005
:103140000000000001020304060708090000000057
:103150000102030441524D00432B2B0000000000EC
:1031600058330008D8310008C83100085833000827
:10317000FA310008C8310008583300081C32000832
:103180006C310008583300084032000860310008F4
:1031900058330008653200086031000858330008D1
:1031A0008B320008C831000858330008B3320008D9
:1031B000C031000858330008C2320008C03100088E
:1031C00048330008CF32000848330008DC320008DA
:1031D00068330008E93200084E31305F5F63787869
:1031E000616269763131375F5F636C6173735F74FD
:1031F0007970655F696E666F45004E31305F5F6361
:103200007878616269763131375F5F7062617365CA
:103210005F747970655F696E666F45004E31305F2F
:103220005F637878616269763131395F5F706F69A9
:103230006E7465725F747970655F696E666F450064
:103240004E31305F5F637878616269763132305F2A
:103250005F73695F636C6173735F747970655F69D5
:103260006E666F45004E31305F5F637878616269EA
:10327000763132315F5F766D695F636C6173735F66
:10328000747970655F696E666F45004E31305F5FBF
:10329000637878616269763132335F5F66756E6438
:1032A000616D656E74616C5F747970655F696E667F
:1032B0006F4500537431306261645F747970656981
:1032C00064005374396261645F616C6C6F630053B6
:1032D0007439657863657074696F6E0053743974FE
:1032E0007970655F696E666F00760000000000000F
:1032F00000000000BB2600080000000000000000E5
:10330000EF2600080000000000000000B9270008B8
:10331000000000000000000031280008000000004C
:1033200000000000852800080000000000000000E8
:103330004F2B00080000000000000000752D000861
:1033400000000000603100080000000000000000E4
:1033500000000000843100080000000000000000B0
:10336000000000009C310008000000000000000088
:1033700000000000A8310008312C00080000000007
:103380000000000000000000B4310008592C0008C3
:10339000000000000000000000000000C031000834
:1033A000000000000000000000000000D033000812
:1033B0000000002038000000EC2D00080834000850
:1033C0003800002040080000FC2D000841FAFFFFF3
:1033D00000000000000000000000000000000000ED
:1033E0000000000010000000010000000024F400B4
:1033F00000000000000000000000000000000000CD
:083400000000000000000000C4
:04000005080000ED02
:00000001FF
