:020000040800F2
:10000000C8080020A9010008653B00085D3B000806
:10001000613B000869140008154100080000000059
:10002000000000000000000000000000913B0008FC
:10003000A914000800000000673B0008933B00087B
:10004000C3010008C3010008C3010008C301000880
:10005000C3010008C3010008C3010008C301000870
:10006000C3010008C3010008C30100086D140008A3
:10007000C3010008C3010008C3010008C301000850
:10008000C3010008C301000805130008C3010008EC
:10009000C3010008C3010008C3010008C301000830
:1000A000C3010008C3010008C3010008C301000820
:1000B000C3010008C3010008C3010008C301000810
:1000C000C3010008C3010008C3010008C301000800
:1000D000C301000805410008C3010008C30100086E
:1000E000C3010008C3010008C3010008DFF814D0F1
:1000F00001F0A8F800F0D2F8004800478558000841
:1001000000F001FDC8080020FEB442464B465446AC
:100110005D463EB400F075F83EBC90469946A24656
:10012000AB46FEBC00F030F880EC200B7047C0EC12
:10013000200B704790EC200B7047D0EC200B7047E1
:1001400085460D98DDF838E00F9B5DF8042B20E91B
:100150000C009DE8FE1F854601BD4DF808ED0DF130
:10016000080E4DF804ED2DE9FF1F002102B4694689
:1001700081B000F0BAFFDDF840E012B07047000037
:10018000085C0000086100004DF808ED0DF1080E54
:100190004DF804ED2DE9FF1F002102B4694681B03E
:1001A00001F00AB8704700BF06488047064800477C
:1001B000FEE7FEE7FEE7FEE7FEE7FEE7FEE7FEE717
:1001C000FEE7FEE7413C0008ED00000870B505467B
:1001D00000F069F90446284600F0B2F838B1294623
:1001E000A06900F03BF9C169491CC16102E0A5F1B9
:1001F0002000C169012902D1A1698161A0610120AA
:1002000070BD70B500F04FF9846905460CB900F077
:100210007DF804F12006304600F092F868B1E069FC
:100220002668012802D0401EE0610BE0A16904F1BC
:100230007800A96100F059F804E0E069012801D1D3
:10024000A069A861304670BD002300F069B90123A0
:1002500000F066B940EA01039B0703D009E008C932
:10026000121F08C0042AFAD203E011F8013B00F87B
:10027000013B521EF9D27047D2B201E000F8012BC7
:10028000491EFBD270470022F6E710B513460A4616
:1002900004461946FFF7F0FF204610BD70B5054C27
:1002A000054D03E0206820448047241DAC42F9D16D
:1002B00070BD0000845D0008885D00082DE9F041F4
:1002C000074615460E46102005F018FB04000AD01C
:1002D0006760C4E9026500F007FC01682160046002
:1002E0000020BDE8F0810120FBE710B5044600F0D6
:1002F000DAF8783CC069214600F06AFC002804D195
:100300002046BDE8104005F095BA10BD10B500F0CC
:10031000CAF8016919B100220261884701E08068CA
:100320008047AFF30080000002680B689A4205D155
:1003300040684968884201D1012070470020704719
:1003400010B50349FFF7F0FF80F0010010BD000079
:10035000045A00082DE9F14DD0E90C8581B006461C
:10036000D0F828A000F09FF80446A6F120073046F8
:1003700000F086FC3046FFF7E3FF08B1606800E05C
:10038000B868206100F068FDBDE8FC8D00F078FCE5
:100390006669BE4202D100F04EFC0DE0306960613A
:1003A00000F049FC05E000F06BFCFFF7AFFF00F048
:1003B00042FC60693061666100273C4606F1200B13
:1003C00011E02E686B4600223146584600F0B8FC1A
:1003D00008B100F007FC3146104804F0BAFF00B144
:1003E00001274544641C5445EBD38FB1684604F0A3
:1003F000F5FF042000F0A8FB694604F0E7FF04467F
:10040000684604F0FAFF064A0449204600F07DFCE5
:10041000584600F007F800F00EFCB5E7645A0008F3
:10042000FB53000870B5054600F03DF804461DB1C9
:100430002846FFF785FF08B1A06801E055F8140CC5
:10044000206101202073BDE87040FFF75FBF04000A
:1004500001D000F015FC2046FFF7E4FF70B5040062
:100460000D4609D004F12000FFF75EFF20B120689F
:10047000A84201D1204670BD002000F065FBD5E9FF
:100480000023A0F15801C1E90023002240F85C2CB0
:1004900040F8642C40F8682C40F8785D70BD00008E
:1004A00010B5AFF3008070B500F024FB046805467A
:1004B000A4B9202005F022FA040011D00949002037
:1004C0002C60C4E900010849A160207320616061CB
:1004D0000649A06109B100F067FBE061204670BDEC
:1004E000AFF30080730E0008A104000800000000B4
:1004F000017A51B9417A89B1491E417241680A1D98
:1005000042600968016004210172C9B2491E01728A
:1005100001680A0E0902016010467047B02070475A
:100520002DE9FF4D8CB05FEA000B4FF0000016463E
:100530000D4607900990059008900DD0BBF1010F72
:100540000AD0BBF1020F01D0002204E2A86BA8641C
:10055000E86B04902C6C0FE095F85000C007E86C35
:10056000049078D10F9818B104980068C0F3074040
:10057000049901EB800442E00F98022811D02788EB
:10058000002F68D06088241D00F00102394662F314
:100590005F0161B1012934D002297DD00329EBD15B
:1005A0002FE12768002FECD060680834ECE7BBF13E
:1005B000000F24D0A96C002301EB000806A90091CC
:1005C00030460F22194600F06EFC0698804516D87A
:1005D00008EB0701814212D9A96CA963201D049977
:1005E000C5E90F102846FFF7F1FD0028ACD02068C0
:1005F0000F2240F31E0004443046049423E0241DDF
:10060000BAE7BBF1000F27D006A9002300913046BE
:100610000D22194600F047FC0698296A88426ED1DF
:10062000E86AA0426BD1206804A940F31E0004448C
:100630000023009130460F220494194600F01CFC60
:1006400030460022049504A900230091194600F0C9
:1006500013FC22463DE2D6E0A96C002301EB000822
:100660000AA9009130460F22194600F01CFC0A9896
:100670007F1E804543D808EB070181423FD9676858
:10068000B81C0ED0781C0ED0206806ABC20F3946BD
:10069000284600F055FB00E033E078B302281DD077
:1006A00004E0022257E105F15800069004A9002356
:1006B000009130460D22194600F0F5FB0498EC62DB
:1006C0002862069868622068022140F31E00021921
:1006D0002846FFF767FD3A4680215FE004A9002322
:1006E000009130460D22194600F0DDFB0498EC62C3
:1006F00028620698A86205F12800E3E7FFE70834BE
:100700003AE72168069121F00048BBF1000F10D0B4
:100710000AA90023009130460D22194600F0C3FBC0
:100720000A98296A884240D1E86AA0423DD1012056
:100730003CE0A96C401E01EB000A0AA900230091CD
:1007400030460F22194600F0AEFB0A9882453AD88F
:100750000AEB0701814236D904F1040A00270AE0B6
:100760006B4600222846DAF8001000F0E9FA20B9BA
:100770000AF1040A7F1C4745F2D3474523D104A957
:100780000023009130460D22194600F08CFB04989E
:10079000EC6228620020D34A022168622846FFF7F3
:1007A00001FD062010B0BDE8F08D002058B10020FA
:1007B000C5E90A8004202863201D68630698404527
:1007C00006D1012007900698404515D1002014E07D
:1007D00004EB8800002250F8041F134641F31E0169
:1007E0000C1804A9009130460495114600F044FB12
:1007F00030460F22049465E1042000EB8800044495
:10080000FDE60122A7E00498006801900498001D0D
:1008100002900F9810B30198000C8DF80D0001980C
:100820000004019002208DF80C0001A8FFF760FE83
:100830000446B0281AD03F2C41D800F03F010420D4
:1008400000EB810706A90D240023009130462246C3
:10085000194600F028FB0698384442E000208DF845
:100860000D000198000201900320DCE70998B0B95F
:1008700005980028C5D004A8002300900E22194630
:10088000304600F010FB0499059105A90023009162
:1008900030460F22194600F0EFFA01200890079821
:1008A000002870D0002204A9009130461346049518
:1008B000114600F0E1FA0898002878D0FEE07F2C7D
:1008C00019D800F03F01042000EB810706A90D2490
:1008D0000023009130462246194600F0E4FA0698BB
:1008E000C01B049004A800230090224619463046FD
:1008F00000F0C2FA99E78F2C1AD80007040C01A85F
:10090000FFF7F6FD54EA00143FF4CBAE0023224675
:100910001946304600F0DEFA08B103221BE020043D
:1009200001D5012009906004E4D5012005907CE701
:100930009F2C16D800F00F020D2A0BD00F2A09D0D9
:1009400006A9002300910D243046194600F0ABFAA9
:100950000698C6E7042201212846FFF723FC092058
:1009600020E7AF2C10D804F007000121401C814083
:100970000A01103A200703D5012042F48042059075
:100980000023194658E0AAE0B72C35D8B12C0FD077
:10099000B22C15D0B328DDD101A8FFF7A9FD00F0D6
:1009A0000F0100F0F000491C41EA00322BE073E037
:1009B00001A8FFF79DFD0200CCD00F2AE0D9C9E7BE
:1009C00000273C4601A8FFF793FD00F07F01A140FE
:1009D0000F43000601D5E41DF4E706A90D2400230A
:1009E000009130462246194600F05DFA069800EB69
:1009F000870000F5017074E7BF2C07D800F00700EE
:100A0000401C40F400220123012115E0C72C25D809
:100A100009D101A8FFF76CFD02009BD00F2A99D8DD
:100A20000023042108E0C62C0DD000F00700401C74
:100A300040F4202203231946304600F04BFA0028E8
:100A40003FF458AF69E701A8FFF752FD00F00F012E
:100A500000F0F000491C41EA0032EBE7C82C0BD053
:100A6000C92C09D0CF2CAAD9D72CA8D800F00700C0
:100A7000401C40F400220DE001A8FFF739FD00F012
:100A80000F01491C00F0F00041EA0032C82C01D1EE
:100A900002F580120523B7E704A8002300900F2277
:100AA0001946304600F0FFF90499059105A9002385
:100AB000009130460E22194600F0DEF90949304611
:100AC0000F22049104A900230091194600F0D4F9E3
:100AD000044A03212846FFF765FB072062E6082049
:100AE00060E6000055030008004870471C00002025
:100AF000034870470248001D011F8860001D7047B1
:100B00002000002070472DE9F0410646FFF7ECFF7A
:100B10008046454613E016B1E068B0420ED1206829
:100B20002860D4E90101D8F800708847204604F015
:100B300081FED8F80000B842EBD100E025462C68D1
:100B4000002CE8D1BDE8F08170B50446FFF7ABFC9E
:100B5000783405462646204604F0D0FE040007D12E
:100B60003146E86900F029F8040001D1FFF75AFC8A
:100B70000AA104F12000D1E90021C0E900210021EF
:100B8000A162E16261612161A161E161A868E06047
:100B90006868A06004F1780070BD000041524D000B
:100BA000432B2B000000000010B5882004F0A6FEA7
:100BB000002801D00021017010BD802902D808B1A1
:100BC000017809B100207047012100F8081B704727
:100BD00018B100F10802914201D0002070470021B5
:100BE0000170704770B5FFF75EFC4469054614B9A3
:100BF0000020FFF717FCE06904F12006401CE061CB
:100C00003046FFF79DFB002801D0266803E02868E6
:100C100000F10100286002D04FF0000200E02268DD
:100C20004FF000013046FFF7BDFA3046FFF795FA66
:100C30003046FFF70CFC70B5FFF735FC44690546FC
:100C40000CB9FFF763FB6069401E606117D104F1C6
:100C500020063046FFF774FB21696961E56928B118
:100C600004F178002668FFF740FB01E000202061D6
:100C7000002D04D13046BDE8704000F00FBB70BDC0
:100C800070B50546466AFFF70EFC04462846FFF796
:100C900057FB20B129466069FFF7E0FB07E0A5F1AB
:100CA0002000C169491EC1612168491E2160416956
:100CB000491C4161016911B961690161606128469E
:100CC00000F090FA304670BD73B50C46FFF7EBFBB1
:100CD00054F80C1C203C31B1E169491EE161016806
:100CE000491E01607CBD616804F1780509B12846A0
:100CF00088472846BDE87C40FFF7F7BAFFF7C0FFFA
:100D00002846FFF7F2FAFFF76DFF70B50D46A0F128
:100D100058044C49A160012140F85C1C40E91E5276
:100D2000FFF7C1FB01682A46491C016000212046EB
:100D3000FFF738FA2046FFF710FA2046FFF787FB47
:100D40002DE9FF4D9A4693460E468046FFF7F8FA86
:100D5000002875D1A8F12000012708F1580805687E
:100D60000024CDF808803146284604F0F2FA10B18C
:100D7000CAF8008062E0284604F0B4FB01903046D7
:100D800004F0B0FB00903049019804F0E2FA20B979
:100D90002D49009804F0DDFA20B1DDE9001004F0DF
:100DA000E8FA08BB2849019804F0D3FAC0B1307AB8
:100DB000297A00F0030001F00301641C31EA00020B
:100DC0003ED130EA010100D077B1C00700D1002741
:100DD0000298ED68F6680028C5D000680290C2E766
:100DE000012C02D06CB109D02AE01849304604F039
:100DF000B0FA18B1BBF1000F22D1B9E7BBF1000F77
:100E00001ED11349019804F0A4FA20B911490198A0
:100E100004F09FFAA0B100200090019033462A46CA
:100E200003A902A804F08EFB002804D00399CAF895
:100E300000101CB1022004B0BDE8F08D0120FAE7DB
:100E40000020F8E7C90C0008285A00088C5A00084E
:100E5000345A0008405A000810B5FFF724FB016916
:100E600019B100220261884701E040688047AFF372
:100E70000080FFF74BBA000010B5029C31B1012988
:100E80000DD003290BD004290BD108E04BB90F2A50
:100E900007D800EB820021684160002010BD0120CE
:100EA00010BD022010BD10B5029C31B101290DD03A
:100EB00003290BD004290BD108E04BB90F2A07D81E
:100EC00000EB820040682060002010BD012010BDB2
:100ED000022010BD2DE9F04DC0B09846044631B156
:100EE000012918D0032979D0042979D176E0B8F105
:100EF000000F75D190B2231D00F40052A16B05E0E4
:100F0000C50701D020C91D6040081B1D0028F7D16E
:100F1000F2BBA1635EE0150C96B2102D01D2012048
:100F200000E000208246A819102801D9012700E01E
:100F30000027B8F1010F03D0B8F1050F50D101E03F
:100F40003FBB01E020284BD84FF0000BBAF1000F57
:100F500008D02078012805D184F800B004F14800B9
:100F600080EC200B47B16078012805D184F801B0EE
:100F700004F1C800C0EC200BBAF1000F02D06846A3
:100F800080EC200B20A883460FB1C0EC200B01E0C1
:100F900020E025E06B46A06B08E0014603EBC502AC
:100FA000D1E900C1C2E900C108306D1C761EF4D23F
:100FB0004146B8F1010F00D0002100EB8100A06391
:100FC000BAF1000F02D0184690EC200B17B158462A
:100FD000D0EC200B002040B0BDE8F08D0120FAE7F6
:100FE0000220F8E710B50468904801F10802436850
:100FF00003444FF0FF30934204D0136843F31E03C1
:10100000134400E003460A6842F31E021144A14261
:1010100002D89C4201D3012010BD002010BD33B581
:101020000446824881B0824D016842680144104400
:10103000401AC21002980823801E029002A8009550
:1010400000F033F97B49002370B1026842F31E02BD
:101050000244A2644268012A09D0002A0ADA001D6B
:10106000E064012020650BE00422636115E00222A8
:10107000636112E042F31E02001D1044C4E9130331
:10108000E26C1068002815DAC0F3036050B1012843
:101090000AD002280CD0012263612046FFF782F8B3
:1010A00009203EBD644800E06448606100203EBD08
:1010B0006348FAE740F31E001044F6E70C46054685
:1010C0002846216CFFF7ABFF50B9206C28616B6993
:1010D0002246294601209847072803D00828EFD048
:1010E000AFF30080201DFFF72BF8F0B50446C06871
:1010F000D3B00E46012768B3582004F0FFFB05006B
:101100002AD0142204F10C0105F10C00FFF7A2F81B
:10111000182204F1200105F12000FFF79BF804F1EB
:10112000380005F1380C0FC88CE80F00E560F06B53
:1011300030644022311D01A8FFF78CF88DF8007053
:101140008DF8017012AF32AD20461099FFF767FF9E
:10115000D0B910E0E760EAE7052236492046FFF7FC
:1011600021F805E09DF8010010B92846D0EC200BCD
:1011700053B00920F0BD63696A46214600209847B4
:10118000062809D00828DFD09DF800000028E9D102
:10119000384690EC200BE5E79DF8000010B9384682
:1011A00090EC200B9DF8010010B92846D0EC200BE4
:1011B00031462046FFF782FF0546006908640C4669
:1011C0000A466B69294602209847072803D0082859
:1011D00004D0AFF30080201DFEF7B2FF2146284661
:1011E000FFF76CFF70B5C1680546D1B101291AD06F
:1011F0000C46142205F10C000C31FFF72BF81822D5
:1012000004F1200105F12000FFF724F804F1380073
:1012100038350FC885E80F002046BDE8704004F05F
:1012200009BBAFF300800020E86070BD80010008BA
:10123000E50F0008010000FF490200084F02000806
:1012400000000000064C074D06E0E06840F0010396
:1012500094E8070098471034AC42F6D3FEF74AFFF3
:10126000645D0008845D00087047000038B568467A
:1012700004F098F80420FFF767FC694604F08AF848
:101280000446684604F09DF8024A03492046FFF7E9
:101290003CFD0000C3530008585A00088268002A29
:1012A00002D001460120104770472DE9F05F9946B2
:1012B00015460F4683464FF0FF36DDF828A011E0B3
:1012C000A819441009FB047080460146584652464E
:1012D0009047002802D004DA254603E04046BDE8E6
:1012E000F09F2646A5EB06000128E9DC0020F6E782
:1012F000FFF7A1FCFFF79FFCFEF706FFFFF79BFC43
:10130000FEF702FF10B5024800F029FA10BD0000F8
:101310003400002070B5044600252068806800F085
:101320000100F0B12068806820F001002168886029
:1013300001F0BEFA05460EE001F0BAFA401B0228A1
:1013400009D9A06A40F01000A062E06A40F00100F4
:10135000E062012070BD2068806800F00100002874
:10136000EAD10020F6E770B505466C6AA06A00F085
:101370005000E0B9A06A40F40070A0622068806864
:1013800000F46020B0F5602F0DD1207B58B9A06A21
:1013900020F48070A062A06A00F4805018B9A06A9E
:1013A00040F00100A062204600F032F903E0206A1C
:1013B000016B2846884770BD70B505466C6AA06A07
:1013C00040F04000A062E06A40F00400E062204685
:1013D00000F0C4F970BD70B50446656A284600F097
:1013E00035F970BD38B5044600250020009020680E
:1013F000806800F0010080BB2068806840F0010038
:1014000021688860164800681649B0FBF1F000902A
:1014100002E00098401E009000980028F9D101F0E9
:1014200047FA054613E001F043FA401B02280ED9A3
:10143000A06A40F01000A062E06A40F00100E062A3
:1014400000BF002084F8240000BF012038BD2068C0
:10145000806800F001000028E5D00020F6E70000D9
:101460001800002040420F0000BFFEE710B5024800
:1014700000F048FE10BD00006400002030B590F878
:1014800040500124AC40C56B6C60046863604468E4
:10149000102C04D10468A2600468E16003E00468D1
:1014A000A1600468E26030BD70477047704700007B
:1014B00038B5024600230020009000BF92F82400B7
:1014C000012801D1022038BD012082F8240000BF8C
:1014D0004868072812D21068406B0C79641E04EB30
:1014E00084051F24AC40A0430D796D1E05EB8505D6
:1014F0000C68AC4020431468606327E048680D28FE
:1015000012D21068006B0C79E41F04EB84051F24D1
:10151000AC40A0430D79ED1F05EB85050C68AC4090
:1015200020431468206311E01068C06A0C790D3CF8
:1015300004EB84051F24AC40A0430D790D3D05EB61
:1015400085050C68AC4020431468E06208680A28EE
:1015500012D31068C0680C780A3C04EB44050724D9
:10156000AC40A0430D780A3D05EB45058C68AC40C6
:1015700020431468E0600FE0106800690C7804EB09
:1015800044050724AC40A0430D7805EB45058C6865
:10159000AC402043146820610868102802D0086815
:1015A000112827D1174C1068A0421ED110688068FE
:1015B00000F40000F0B91068806840F4000014687E
:1015C000A0600868102815D10F4800680F4CB0FBC8
:1015D000F4F000EB80004000009002E00098401E14
:1015E000009000980028F9D104E0906A40F02000B3
:1015F0009062012300BF002082F8240000BF18463B
:1016000061E70000002401401800002040420F0064
:1016100010B504460948A0420ED10948018809487E
:1016200003F0B0F906484188074803F0ABF90222FD
:101630000349024800F0DAFA10BD0000340000202F
:1016400000000020D4010020F401002070470000B9
:1016500070B5044600250CB9012070BDA06A40F0A9
:101660000200A0622046FFF755FE0546002D69D115
:101670006FF01F0021680860206840683549084005
:101680002168486020688068334908402168886084
:101690002068C06800F07F402168C8602068006949
:1016A00000F0404021680861206840696FF30B003A
:1016B00021684861206880696FF30B0021688861A8
:1016C0002068C0696FF30B002168C8612068006A58
:1016D0006FF30B00216808622068406A6FF30B000B
:1016E000216848622068806A6FF30B002168886275
:1016F0002068C06A00F07F402168C8622068C06A24
:1017000000F07F402168C8622068006B00F0404014
:10171000216808632068406B00F0404021684863FE
:101720002068806B6FF31500216888632068806BE8
:101730006FF3150021688863204600F045F900200A
:10174000E062A06200BF002084F8240000BF2846A9
:1017500083E7000000003FFFF00601FF704710B56F
:1017600004462068406800F0200020282FD120681F
:10177000006800F00200022829D1A06A00F01000E1
:1017800018B9A06A40F40070A0622068806800F474
:101790006020B0F5602F13D1207B88B920684068A5
:1017A00020F0200021684860A06A20F48070A062C8
:1017B000A06A00F4805018B9A06A40F00100A0624D
:1017C0002046FFF725FF6FF01200216808602068AF
:1017D000406800F0800080283BD12068006800F05D
:1017E0000400042835D1A06A00F0100018B9A06ADE
:1017F00040F40050A0622068806800F4E040B0F53A
:10180000E04F0DD02068406800F48060D0B92068B7
:10181000806800F46020B0F5602F13D1207B88B978
:101820002068406820F0800021684860A06A20F4A9
:101830008050A062A06A00F4807018B9A06A40F0DD
:101840000100A0622046FFF731FE6FF00C00216816
:1018500008602068406800F0400040280FD12068F0
:10186000006800F0010050B1A06A40F48030A0622E
:10187000204600F0A7F86FF001002168086010BD55
:101880002DE9F0410446002700250026A84614B99A
:101890000120BDE8F081A06810B1207D00B100BF3B
:1018A000A06A30B90020E06284F82400204600F0ED
:1018B000A9F82046FFF72EFD0746A06A00F01000A9
:1018C000002873D1002F71D1A06A20F4885040F015
:1018D0000200A062E16960680843217B40EA4100A0
:1018E0000643A068B0F5807F02D0A068012802D12D
:1018F0004FF4807000E000200543207D012811D1C5
:10190000207B38B9A069401E4FF4006141EA4030A5
:10191000054307E0A06A40F02000A062E06A40F0C2
:101920000100E0622068406820F469402843216893
:1019300048602068806821490840304321688860F9
:10194000A068B0F5807F02D0A068012802D14FF4D2
:10195000807000E00020B0F5807F03D1208A401E17
:101960004FEA00582068C06A20F4700040EA08007E
:101970002168C8622068806811490840B04208D1D7
:101980000020E062A06A20F0020040F00100A062A6
:1019900011E0A06A20F0020040F01000A062E06AAE
:1019A00040F00100E062012705E0FFE7A06A40F097
:1019B0001000A062012738466BE70000FDF7E1FF49
:1019C000FE0E1FFF7047000010B504460A4920684C
:1019D00088420FD10948806920F400700749886166
:1019E0000321074800F02CFD206A00F057FB12206D
:1019F00001F0B0F810BD00000024014000100240CA
:101A00000008014010B586B0044600200290039003
:101A10000490059024492068884242D100BF2348A1
:101A2000806940F40070214988610846806900F4AB
:101A30000070019000BF00BF0846806940F00400BC
:101A400088610846806900F00400019000BF03200F
:101A50000290039002A9164800F08CFD1548164923
:101A60000860002048600021134881608021C16027
:101A7000490001618900416100218161C16100F07B
:101A80000FFC08B1FFF711FD00BF0B482062446254
:101A900000BF00221146122001F092F8122001F03E
:101AA0007BF806B010BD0000002401400010024089
:101AB00000080140080002406400002070B50446A0
:101AC000002500BF94F82400012801D1022070BD38
:101AD000012084F8240000BF2046FFF783FC054660
:101AE000002D77D1A06A40F20121884340F4807034
:101AF000A0623C492068884208D13B48006800F455
:101B0000702008B9012002E0002000E0012078B137
:101B1000A06A20F48010A0622068406800F4806011
:101B200000B3A06A20F4005040F48050A06219E095
:101B3000A06A40F48010A0622B49091F20688842E7
:101B400003D028492068884204D12748006800F45F
:101B5000806000E0002028B1A06A20F4005040F42A
:101B60008050A062A06A00F4805020B1E06A20F0AA
:101B70000600E06201E00020E06200BF002084F87F
:101B8000240000BFC01E216808602068806800F43F
:101B90006020B0F5602F16D112492068884208D124
:101BA0001148006800F4702008B9012002E000200C
:101BB00000E0012038B12068806840F4A00021686E
:101BC00088600CE006E02068806840F4801021689E
:101BD000886004E000BF002084F8240000BF28468D
:101BE00075E7000000280140042401402DE9F04180
:101BF00004460D461646002757492068884203D000
:101C000056492068884205D15348001D006800F4F9
:101C1000702000E0002000287ED100BF94F824004E
:101C2000012802D10220BDE8F081012084F82400BF
:101C300000BF2046FFF7D6FB0746002F6DD1A06AF4
:101C400040F60161884340F48070A06243492068F7
:101C5000884209D14048001D006800F4702008B98E
:101C6000012002E0002000E0012078B1A06A20F409
:101C70008010A0622068406800F4806000B3A06A11
:101C800020F4005040F48050A06219E0A06A40F4B3
:101C90008010A06230492068884203D02F49206814
:101CA000884205D12C48001D006800F4806000E0E7
:101CB000002028B1A06A20F4005040F48050A062B7
:101CC000A06A00F4805020B1E06A20F00600E062D3
:101CD00001E00020E06200BF002084F8240000BF83
:101CE0001F48216A88621F48216AC8621E48216A0B
:101CF00008636FF00200216808602068806840F483
:101D0000807021688860226802F14C0133462A46BF
:101D1000206A00F032FB01E01AE014E020688068DD
:101D200000F46020B0F5602F06D12068806840F490
:101D3000A000216888600CE02068806840F4801072
:101D40002168886005E000BF002084F8240000E0DE
:101D50000127384667E700000024014000280140C1
:101D600067130008D7130008B913000870B50446BC
:101D7000002500BF94F82400012801D1022070BD85
:101D8000012084F8240000BF2046FFF72BFB054606
:101D9000002D7DD1A06A40F60161884340F4807037
:101DA000A0623F492068884208D13E48006800F49C
:101DB000702008B9012002E0002000E0012078B185
:101DC000A06A20F48010A0622068406800F480605F
:101DD00000B3A06A20F4005040F48050A06219E0E3
:101DE000A06A40F48010A0622E49091F2068884232
:101DF00003D02B492068884204D12A48006800F4A7
:101E0000806000E0002028B1A06A20F4005040F477
:101E10008050A062A06A00F4805020B1E06A20F0F7
:101E20000600E06201E00020E06200BF002084F8CC
:101E3000240000BFC01E216808602068406840F090
:101E40002000216848602068806800F46020B0F5B8
:101E5000602F16D112492068884208D111480068C5
:101E600000F4702008B9012002E0002000E0012009
:101E700038B12068806840F4A000216888600CE0D8
:101E800006E02068806840F480102168886004E0E3
:101E900000BF002084F8240000BF28466FE7000040
:101EA000002801400424014070B50446002500BF0D
:101EB00094F82400012801D1022070BD012084F88B
:101EC000240000BF2046FFF725FA05462DB9A06A79
:101ED00020F4885040F00100A06200BF002084F888
:101EE000240000BF2846E8E770B50446002500BF7F
:101EF00094F82400012801D1022070BD012084F84B
:101F0000240000BF2046FFF705FA0546ADB920685A
:101F1000806820F4807021688860206A00F03AF8B8
:101F2000054635B9A06A20F4885040F00100A0624F
:101F300003E0A06A40F04000A06200BF002084F8E7
:101F4000240000BF2846D8E770B50446002500BF2E
:101F500094F82400012801D1022070BD012084F8EA
:101F6000240000BF2046FFF7D5F905465DB920687B
:101F7000406820F0200021684860A06A20F4885062
:101F800040F00100A06200BF002084F8240000BFE0
:101F90002846E2E70146002291F82100022808D0F5
:101FA0000420886300BF002081F8200000BF0120CA
:101FB00070470868006820F00E000B681860086819
:101FC000006820F001000B68186091F84030012093
:101FD0009840CB6B5860012081F8210000BF0020A1
:101FE00081F8200000BF1046E2E7000070B504460B
:101FF000002594F82100022803D00420A0630125C5
:1020000048E02068006820F00E0021680860206821
:10201000006820F00100216808601F49206888429C
:1020200001D1012026E01C4914312068884201D1E9
:1020300010201FE0184928312068884201D18015FE
:1020400018E015493C312068884201D1801411E024
:10205000114950312068884202D14FF4803009E0A4
:102060000D4964312068884202D14FF4801001E0AC
:102070004FF08070084908394860012084F8210039
:1020800000BF002084F8200000BF606B10B1204624
:10209000616B8847284670BD08000240014609B9B7
:1020A000012070470868006820F001000A6810608D
:1020B00000200A6810600A6850600A6890600A6828
:1020C000D0600F4A0868801A1422B0FBF2F080003A
:1020D00008640B480838C86391F8402001209040FC
:1020E000CA6B506000208862C862086348638863D6
:1020F00081F8210000BF81F8200000BF00BFD0E7B9
:102100000800024070B50446E06B05682068066868
:1021100094F84010042088402840002846D006F05B
:102120000400002842D02068006800F0200028B990
:102130002068006820F00400216808605749206882
:10214000884201D1042027E0544914312068884294
:1021500001D1402020E0514928312068884201D136
:10216000001519E04D493C312068884202D14FF4F6
:10217000804011E0494950312068884202D14FF433
:10218000802009E0454964312068884202D14FF43B
:10219000800001E04FF08060404908394860E06A03
:1021A00000287AD02046E16A884776E094F840100B
:1021B000022088402840A0B306F0020088B32068BF
:1021C000006800F0200040B92068006820F00A0094
:1021D00021680860012084F8210030492068884285
:1021E00001D1022028E02D4914312068884201D114
:1021F000202021E0294928312068884201D140155A
:102200001AE026493C312068884202D14FF4005040
:1022100012E0224950312068884203D14FF4003047
:102220000AE017E01D4964312068884202D14FF46A
:10223000001001E04FF0007018490839486000BFF5
:10224000002084F8200000BFA06A30B32046A16AB5
:10225000884722E094F84010082088402840E0B1E8
:1022600006F00800C8B12068006820F00E00216860
:10227000086094F8401001208840E16B486001201C
:10228000A06384F8210000BF002084F8200000BF74
:10229000206B10B12046216B884770BD08000240BA
:1022A0000146002209B901207047164B0868C01A80
:1022B0001423B0FBF3F08000086412480838C863A8
:1022C000022081F821000868026843F6F07082431A
:1022D000D1E901031843CB6818430B6918434B69D4
:1022E00018438B691843CB6918430243086802609E
:1022F00000208863012081F82100002081F820005F
:1023000000BFD1E7080002402DE9F04104460D4628
:1023100016461F464FF0000800BF94F82000012821
:1023200002D10220BDE8F081012084F8200000BF26
:1023300094F82100012817D1022084F82100002000
:10234000A0632068006820F00100216808603B4617
:10235000324629462046FFF791F82068006840F091
:1023600001002168086006E000BF002084F820001A
:1023700000BF4FF002084046D4E72DE9F041044683
:102380000D4616461F464FF0000800BF94F8200087
:10239000012802D10220BDE8F081012084F820004C
:1023A00000BF94F8210001282CD1022084F82100DC
:1023B0000020A0632068006820F001002168086008
:1023C0003B46324629462046FFF758F8E06A30B1CE
:1023D0002068006840F00E00216808600BE020686B
:1023E000006820F00400216808602068006840F060
:1023F0000A00216808602068006840F00100216838
:10240000086006E000BF002084F8200000BF4FF005
:1024100002084046BFE7000070B5044600F048FAE5
:1024200006462546681C10B104480078054400BFE4
:1024300000F03EFA801BA842FAD370BD14000020C1
:102440002DE9F04102460B4600207FE0012787403E
:1024500007EA0301002978D0404F4FEA900C57F863
:102460002C4087074FEA177C0F2707FA0CF73C40F0
:102470003B4FBA4201D100270FE03A4FBA4201D197
:1024800001270AE0384FBA4201D1022705E0374F51
:10249000BA4201D1032700E004274FEA807C4FEACB
:1024A0001C7C07FA0CF7A74230D187074FEA177C4C
:1024B0000F2707FA0CF4294F4FEA900C57F82C70AD
:1024C000A743DFF898C04FEA90084CF82870284FCF
:1024D0003F688F43DFF898C0CCF800700CF1040718
:1024E0003F688F430CF1040CCCF800700CF104072A
:1024F0003F688F430CF1040CCCF800700CF104071A
:102500003F688F430CF1040CCCF80070FF2901D810
:10251000174600E0171D3D46FF2901D8870002E05D
:10252000A0F10807BF003E462F684FF00F0C0CFAD1
:1025300006FC27EA0C074FF0040C0CFA06FC47EAED
:102540000C072F60D7688F43D760401C23FA00F731
:10255000002F7FF47BAFBDE8F08100000800014050
:1025600000080140000C014000100140001401402F
:10257000000401402DE9F8470346002294466EE12D
:102580004FF0010808FA02F4D1F8008008EA0400CC
:10259000A0427DD1DFF8DCA2D1F80480A8EB0A09C3
:1025A000D0453AD014DCB8F1030F50D009DCB8F1B3
:1025B000000F31D0B8F1010F1CD0B8F1020F49D192
:1025C00020E0B8F1110F18D0B8F1120F42D11EE07F
:1025D000B9F5881F25D006DCB9F5803F20D0B9F5C4
:1025E000801F37D11AE0B9F5001F18D0B9F5041FC4
:1025F00030D117E0D1F80CC02DE0D1F80C8008F1F3
:10260000040C28E0D1F80C8008F1080C23E0D1F884
:102610000C8008F10C0C1EE000BF00BF00BF00BF23
:1026200000BF00BFD1F80880B8F1000F02D14FF011
:10263000040C0BE0D1F80880B8F1010F03D14FF082
:10264000080C1C6102E04FF0080C5C6103E04FF0E5
:10265000000C00E000BF00BFFF2801D8984601E051
:1026600003F104084646FF2802D84FEA820803E037
:10267000A2F108084FEA88084746D6F800804FF0D4
:102680000F0909FA07F928EA09080CFA07F900E026
:1026900088E048EA0908C6F80080D1F8048008F00C
:1026A0008058B8F1805F7DD100BFDFF8CC81D8F8C9
:1026B000188048F00108DFF8C091C9F81880C846B2
:1026C000D8F8188008F00108CDF8008000BF00BFDE
:1026D0004FEAB9384FEA920958F829504FEA827800
:1026E0004FEA18794FF00F0808FA09F825EA0805AB
:1026F000DFF88881434502D14FF0000816E0DFF88B
:102700008081434502D14FF001080FE0DFF874816A
:10271000434502D14FF0020808E0DFF86C814345E1
:1027200002D14FF0030801E04FF004084FEA82792C
:102730004FEA197908FA09F848EA0505DFF84C81EB
:102740004FEA920948F82950D1F8048008F48038FB
:10275000B8F5803F0AD1DFF83881D8F8008048EA20
:102760000008DFF82C91C9F8008009E0DFF820812B
:10277000D8F8008028EA0008DFF81491C9F8008032
:10278000D1F8048008F40038B8F5003F10D1DFF824
:10279000008108F10408D8F8008048EA0008DFF852
:1027A000F09000E05AE009F10409C9F800800DE05A
:1027B000DFF8DC8008F10408D8F8008028EA000877
:1027C000DFF8CC9009F10409C9F80080D1F8048041
:1027D00008F48018B8F5801F0ED1DFF8B48008F136
:1027E0000808D8F8008048EA0008DFF8A49009F14A
:1027F0000809C9F800800DE0DFF8948008F10808A6
:10280000D8F8008028EA0008DFF8849009F1080968
:10281000C9F80080D1F8048008F40018B8F5001F4A
:102820000ED1DFF86C8008F10C08D8F8008048EA77
:102830000008DFF85C9009F10C09C9F800800DE090
:10284000DFF84C8008F10C08D8F8008028EA00086E
:10285000DFF83C9009F10C09C9F80080521CD1F84E
:10286000008028FA02F8B8F1000F7FF489AEBDE8C5
:10287000F88700000000111000100240000801401D
:10288000000C01400010014000140140080001400C
:1028900000040140024693680B400BB1012000E0A8
:1028A000002070470AB1016101E00B040361704729
:1028B00001480068704700000C00002001480078C3
:1028C00070470000140000200148006870470000B5
:1028D0001000002010B504460CB9012010BD94F87A
:1028E000390028B9002084F83800204600F0FCFEAA
:1028F000242084F839002068C06820F40050216842
:10290000C860204601F0C4FA2068006920F49040B5
:10291000216808612068406920F022002168486130
:102920002068406940F00800216848612068C0685C
:1029300040F400502168C8600020E063202084F843
:10294000390084F83A000020C8E700000348006816
:102950000349097808440149086070470C000020C9
:102960001400002010B50848006840F01000064927
:102970000860032000F062F9002000F007F800F082
:1029800073F8002010BD00000020024070B504461E
:102990000E4800784FF47A71B1FBF0F00C490968E9
:1029A000B1FBF0F5284600F05BFD08B1012070BDD9
:1029B000102C07D200222146501E00F001F90548D4
:1029C000046001E00120F2E70020F0E7140000209D
:1029D000180000201000002070B504460D460CB908
:1029E000012070BD94F8390028B9002084F838001F
:1029F000204600F079FE242084F839002068C06861
:102A000020F400502168C860204601F041FA206897
:102A1000006920F40060216808612068406920F0A6
:102A20002A00216848612068006940F480402168DC
:102A300008612068006920F0200021680861206892
:102A400000692843216808612068C06840F400508C
:102A50002168C8600020E063202084F8390084F8F1
:102A60003A000020BDE7000008B500BF10488069AB
:102A700040F001000E4988610846806900F00100BD
:102A8000009000BF00BF0846C06940F08050C86198
:102A90000846C06900F08050009000BF00BF0549A3
:102AA000486820F0E06040F08070486000BF08BDDA
:102AB000001002400000014070B504460D46164665
:102AC0000CB9012070BD94F8390028B9002084F8B1
:102AD0003800204600F008FE242084F839002068E1
:102AE000C06820F400502168C860204601F0D0F989
:102AF0002068006920F490402168086120684069DE
:102B000020F02A00216848612068006920F00F0049
:102B100021680861206800692843216808612068ED
:102B2000C06820F400602168C8602068C068304335
:102B30002168C8602068C06840F400502168C860FF
:102B40000020E063202084F8390084F83A00002057
:102B5000B8E7000010B501460846002817DB00F072
:102B60001F0301229A400B4B440943F8242000BF65
:102B700000BF00BFBFF34F8F00BF00BF00BF00BF4B
:102B800000BF00BFBFF36F8F00BF00BF00BF00BF1B
:102B900010BD000080E100E001460846002809DB86
:102BA00000F01F0301229A4043099B0003F1E02338
:102BB000C3F8002100BF704710B502F0A3FC10BDA0
:102BC0002DE9F05F80460D461646002702F09AFC7C
:102BD000074639462A46334601F00700C0F1070A86
:102BE000BAF1040F02D94FF0040A01E0C0F1070A5C
:102BF000D14600F1040ABAF1070F02D24FF0000AE1
:102C000001E0A0F1030AD4464FF0010A0AFA09FADA
:102C1000AAF1010A0AEA020A0AFA0CFA4FF0010BB9
:102C20000BFA0CFBABF1010B0BEA030B4AEA0B04AA
:102C30002146404602F06EFCBDE8F09F00BF00F068
:102C40000702064B19684FF6FF031940044B0B436C
:102C500043EA0221014B196000BF70470CED00E010
:102C60000000FA05F8B5044600260025207800F09B
:102C7000010000286AD000274248C06900F0805057
:102C800068B900BF3F48C06940F080503D49C86105
:102C90000846C06900F08050009000BF01273A4804
:102CA000006800F48070B0B93748006840F4807064
:102CB00035490860FFF7FCFD064606E0FFF7F8FD22
:102CC000801B642801D90320F8BD2F48006800F458
:102CD00080700028F2D02B48006A00F440752DB3B4
:102CE000A08800F44070A84220D02648006A20F452
:102CF00040750120254908600020086021480562D0
:102D000005F0010090B1FFF7D3FD064608E0FFF79C
:102D1000CFFD801B41F28831884201D90320D3E7DF
:102D20001848006A00F002000028F0D01548006A38
:102D300020F440706168084312490862012F04D1F1
:102D40000846C06920F08050C86100BF207800F0BC
:102D50000200022807D10B48406820F44040A168D7
:102D6000084308494860207800F01000102807D177
:102D70000448406820F48000E16808430149486045
:102D80000020A1E7001002400070004040044242D1
:102D900070B504460D460CB9012070BD5A48006854
:102DA00000F00700A8420ED25748006820F0070044
:102DB0002843554908600846006800F00700A8420B
:102DC00001D00120E9E7207800F0020002281DD19F
:102DD000207800F00400042805D14C48406840F4F5
:102DE000E0604A494860207800F00800082805D1D2
:102DF0004648406840F46050444948604348406851
:102E000020F0F000A168084340494860207800F0B5
:102E1000010078B36068012806D13C48006800F4DE
:102E2000003090B90120B8E76068022806D1374821
:102E3000006800F0007040B90120AEE73348006838
:102E400000F0020008B90120A7E73048406820F0F0
:102E50000300616808432D494860FFF729FD0646D5
:102E600009E0FFF725FD801B41F28831884202D935
:102E7000032092E707E02548406800F00C006168F5
:102E8000B0EB810FEDD12048006800F00700A842A8
:102E90000ED91D48006820F0070028431A49086031
:102EA0000846006800F00700A84201D0012074E73E
:102EB000207800F00400042807D11448406820F46A
:102EC000E060E168084311494860207800F008009C
:102ED000082808D10D48406820F46050216940EA74
:102EE000C1000A49486000F03FF808494968C1F349
:102EF0000311074A515CC84006490860064800684B
:102F0000FFF744FD002048E7002002400010024087
:102F1000EC5900081800002010000020014800684B
:102F2000704700001800002000B5FFF7F7FF0449C4
:102F30004968C1F30221034A515CC84000BD00004A
:102F400000100240FC59000800B5FFF7E7FF0449F4
:102F50004968C1F3C221034A515CC84000BD00006A
:102F600000100240FC590008F0B585B00FF26C0C5F
:102F70009CE8E01001A8A0E8E0101CA52D680095D1
:102F800000210022002300240020194D696801F06F
:102F90000C05F5B1042D02D0082D19D101E015481A
:102FA00019E001ADC1F38346AC5D01F4803555B144
:102FB0000F4D6D68C5F340451DF805200D4D654367
:102FC000B5FBF2F302E00C4D04FB05F3184602E0FA
:102FD00000BF084800BF00BF05B0F0BD02030405F4
:102FE000060708090A0B0C0D0E0F10100102000055
:102FF0000010024000127A0000093D00F8B50446B6
:103000000CB90120F8BD207800F00100002878D02C
:10301000F848406800F00C0004280CD0F5484068DF
:1030200000F00C00082811D1F248406800F480300C
:10303000B0F5803F0AD1EF48006800F40030002866
:103040005FD0606800285CD10120DBE700BF6068CA
:10305000B0F5803F06D1E748006840F48030E5498C
:10306000086028E0606858B9E248006820F48030C1
:10307000E04908600846006820F4802008601AE0F3
:103080006068B0F5A02F0BD1DA48006840F48020CA
:10309000D84908600846006840F4803008600AE0BB
:1030A000D448006820F48030D2490860084600689F
:1030B00020F48020086000BF606888B1FFF7F8FB4B
:1030C000054606E0FFF7F4FB401B642801D9032006
:1030D00098E7C848006800F400300028F2D010E0FB
:1030E000FFF7E6FB054606E0FFF7E2FB401B64281E
:1030F00001D9032086E7BF48006800F400300028AB
:10310000F2D1207800F00200022857D1B948406877
:1031100000F00C0050B1B748406800F00C000828DF
:1031200018D1B448406800F4803098B9B1480068BC
:1031300000F0020020B12069012801D0012061E7E0
:10314000AC48006820F0F800616940EAC100A94974
:10315000086033E02069E8B10120A7490860FFF763
:10316000A7FB054606E0FFF7A3FB401B022801D999
:10317000032047E79F48006800F002000028F2D0D3
:103180009C48006820F0F800616940EAC100994954
:10319000086013E0002098490860FFF789FB0546A6
:1031A00006E0FFF785FB401B022801D9032029E731
:1031B0009048006800F002000028F2D1207800F06A
:1031C000080008282DD1A069B8B101208B490860FA
:1031D000FFF76EFB054606E0FFF76AFB401B02287F
:1031E00001D903200EE78348406A00F0020000285E
:1031F000F2D0012000F0B8FC13E000207F49086005
:10320000FFF756FB054606E0FFF752FB401B02287E
:1032100001D90320F6E67748406A00F00200002852
:10322000F2D1207800F00400042873D100277148FF
:10323000C06900F0805070B900BF6E48C06940F0AE
:1032400080506C49C8610846C06900F08050009009
:1032500000BF00BF01276A48006800F48070B0B961
:103260006748006840F4807065490860FFF720FBFC
:10327000054606E0FFF71CFB401B642801D903202C
:10328000C0E65F48006800F480700028F2D000BFFC
:10329000E068012806D15748006A40F0010055490E
:1032A000086227E0E06858B95248006A20F001003F
:1032B000504908620846006A20F00400086219E0DC
:1032C000E06805280BD14B48006A40F004004949EA
:1032D00008620846006A40F0010008620AE04548BA
:1032E000006A20F00100434908620846006A20F0A5
:1032F0000400086200BFE068A0B1FFF7D9FA0546F4
:1033000009E0FFF7D5FA401B41F28831884202D923
:10331000032077E622E03748006A00F00200002828
:10332000EFD012E0FFF7C4FA054608E0FFF7C0FA55
:10333000401B41F28831884201D9032062E62D48C2
:10334000006A00F002000028F0D1012F05D12948C1
:10335000C06920F080502749C86100BFE069C8B348
:103360002448406800F00C00082860D0E06902287A
:1033700048D1002020490866FFF79AFA054606E082
:10338000FFF796FA401B022801D903203AE61948B4
:10339000006800F000700028F2D1206AB0F5803F8C
:1033A00007D11448406820F40030A168084311494F
:1033B0004860D4E9080108430E49496821F47411B2
:1033C00008430C49486001200B490866FFF770FA72
:1033D000054607E03DE0FFF76BFA401B022801D9E4
:1033E00003200FE60348006800F000700028F2D0C8
:1033F0002FE00000001002400000424280044242E0
:1034000000700040002014490866FFF751FA054695
:1034100006E0FFF74DFA401B022801D90320F1E531
:103420000E48006800F000700028F2D111E0E06959
:10343000012800D1E6E50948466806F48031206A93
:10344000814204D106F47011606A814201D00120EA
:10345000D8E50020D6E500000000424200100240FE
:1034600070B504462546681EB0F1807F01D3012067
:103470000FE0681E4FF0E02148610F214FF0FF3050
:1034800002F048F800204FF0E02188610720086131
:10349000002070BD70B50446002507480078A042A2
:1034A00007D006480068FFF771FA05460DB90248D3
:1034B0000470284670BD0000140000201000002099
:1034C00070B50446002520684069C0F3C01594F823
:1034D000390021280ED16DB12068406920F08000AC
:1034E00021684861206B10B1206BFEF753FD204628
:1034F00000F070FC20684069C0F3801594F83A0031
:1035000022280ED16DB12068406920F0400021686A
:103510004861606B10B1606BFEF73CFD204600F027
:1035200039FC002070BD70472DE9F0470446206843
:1035300005682068C668206847694FF00008C146E2
:1035400005F00F08B8F1000F0AD105F0200038B1DE
:1035500006F0200020B1204600F046FCBDE8F087D0
:10356000B8F1000F6DD007F0010018B906F49070A3
:10357000002866D005F0010030B106F4807018B163
:10358000E06B40F00100E06305F0040030B107F0AB
:10359000010018B1E06B40F00200E06305F00200AA
:1035A00030B107F0010018B1E06B40F00400E063B7
:1035B00005F0080030B107F0010018B1E06B40F0F1
:1035C0000800E063E06B68B305F0200028B106F066
:1035D000200010B1204600F007FC20684069C0F3CD
:1035E0008019E06B00F0080010B9B9F1000F22D08B
:1035F000204600F0CFFB2068406900F04000B0B1E9
:103600002068406920F0400021684861606B50B13B
:103610001748616B4863606BFEF7E8FC10B1606BA4
:10362000416B88470CE02046FFF77DFF08E020460D
:10363000FFF779FF04E02046FFF775FF0020E06305
:103640008CE705F0800030B106F0800018B120460C
:1036500000F0EEFC82E705F0400030B106F04000DB
:1036600018B1204600F0A6FB78E700BF76E700001F
:10367000993C000810B504460CB9012010BDA069A2
:1036800000B100E000BF94F8390028B9002084F8A8
:103690003800204600F028F8242084F839002068FB
:1036A000C06820F400502168C860204600F0F0FB9C
:1036B0002068006920F49040216808612068406912
:1036C00020F02A00216848612068C06840F400505A
:1036D0002168C8600020E063202084F8390084F865
:1036E0003A000020CAE7000010B586B0044600206A
:1036F00002900390049005901D492068884234D1BF
:1037000000BF1C48806940F480401A49886108461F
:10371000806900F48040019000BF00BF08468069C6
:1037200040F0040088610846806900F004000190C0
:1037300000BF48150290022003900320059002A9C3
:103740000D48FEF717FF4FF48060029000200390B1
:10375000049002A90848FEF70DFF0022114625201B
:10376000FFF72EFA2520FFF717FA06B010BD00006C
:103770000038014000100240000801402DE9F843E4
:1037800004460D4616461F464FF0000994F83A00CD
:10379000202860D105B116B90120BDE8F88300BF2B
:1037A00094F83800012801D10220F6E7012084F8BE
:1037B000380000BF0020E063222084F83A00FFF7C1
:1037C00077F88146A685E68539E0E08D401EE085E4
:1037D000A068B0F5805F1BD14B4600222021204617
:1037E000009700F059FC08B10320D6E7A8462069ED
:1037F00038B920684068C0F30800A8F80000AD1C84
:103800001DE020684068C0B2A8F800006D1C16E0FA
:103810004B46002220212046009700F03DFC08B1D5
:103820000320BAE7206920B92068406805F8010B39
:1038300005E02068406800F07F0005F8010BE08D8E
:103840000028C2D1202084F83A0000BF002084F86C
:10385000380000BFA1E702209FE7000077B581B0E4
:103860000446154694F83A00202850D1029800B139
:1038700015B9012004B070BD00BF94F838000128CC
:1038800001D10220F6E7012084F8380000BF029839
:10389000A062A5850020E063222084F83A001D483C
:1038A000616B88621C48616BC8621C48616B08636D
:1038B0000020616B486302AE32682368191D2B46F5
:1038C000606BFEF75AFD00BF002000902068006882
:1038D000009020684068009000BF00BF00BF00203B
:1038E00084F8380000BF2068C06840F48070216808
:1038F000C8602068406940F0010021684861206884
:10390000406940F04000216848610020B2E7022091
:10391000B0E70000FD3C0008433D0008AD3C000856
:1039200010B5034693F83A0020282FD101B10AB907
:10393000012010BD00BF93F83800012801D10220FA
:10394000F7E7012083F8380000BF99629A85DA858D
:103950000020D863222083F83A0000BF002083F8BB
:10396000380000BF1868C06840F480701C68E060D0
:103970001868406940F001001C6860611868C06800
:1039800040F020001C68E0600020D2E70220D0E771
:1039900070B50546FF2400BF0F4890F83800012895
:1039A00004D1201EA4F10101CCB2F5DC0A4890F844
:1039B0003800012805D100BF0020074981F83800F0
:1039C00000BF06480178064800F0FDFF01220349C8
:1039D0000148FFF7A5FF70BDA800002004000020EB
:1039E0007002002070472DE9F84304460D46164644
:1039F0001F464FF0000994F8390020285CD105B12A
:103A000016B90120BDE8F88300BF94F838000128FA
:103A100001D10220F6E7012084F8380000BF002021
:103A2000E063212084F83900FEF742FF8146A68436
:103A3000E6842BE0E08C401EE084A068B0F5805F57
:103A400016D14B46002280212046009700F024FB2F
:103A500008B10320D6E7A846B8F80000C0F3080074
:103A600021684860206908B9AD1C0FE06D1C0DE0AD
:103A70004B46002280212046009700F00DFB08B144
:103A80000320BFE715F8010B21684860E08C00288F
:103A9000D0D14B46002240212046009700F0FCFA8E
:103AA00008B10320AEE7202084F8390000BF0020D1
:103AB00084F8380000BFA5E70220A3E7F7B5044665
:103AC000154694F8390020283DD1019800B10DB970
:103AD0000120FEBD00BF94F83800012801D102206A
:103AE000F7E7012084F8380000BF01982062A58420
:103AF000E5840020E063212084F839001348216B1D
:103B000088621348216BC8621248216B0863002049
:103B1000216B486301AE23681A1D31682B46206B68
:103B2000FEF72BFC6FF040002168086000BF00200A
:103B300084F8380000BF2068406940F080002168A8
:103B400048610020C5E70220C3E70000513D00089E
:103B5000873D0008AD3C00087047704700BFFEE796
:103B600000BFFEE77047704708B508490968C908F3
:103B70004FF47A72B1FBF2F14143009100BF00BFF4
:103B800000994A1E00920029F9D108BD18000020B2
:103B9000704710B5FEF7DAFE10BD000010B5002129
:103BA00000200022214B5B6803F00C0121B10429A5
:103BB00006D0082928D107E01D4B1E4C236027E0C2
:103BC0001B4B1C4C236023E0184B5B6803F4701004
:103BD000164B5B6803F48032022303EB904022B95A
:103BE000154B4343134C23600DE0104B5B6803F40B
:103BF000003323B1104B43430E4C236003E00C4BC6
:103C000043430C4C236003E0094B0A4C236000BF84
:103C100000BF064B5B68C3F30313084CE15C054B24
:103C20001B68CB40034C236010BD00000010024015
:103C300000127A001800002000093D00EC5900082D
:103C40001148006840F001000F49086008464068CC
:103C50000E4908400C494860084600680C49084075
:103C6000094908600846006820F48020086008467A
:103C7000406820F4FE0048604FF41F008860C803CD
:103C80000449086070470000001002400000FFF87F
:103C9000FFFFF6FE08ED00E070B505466C6A0020F7
:103CA000E085E0842046FFF73EFC70BD70B5064617
:103CB0000025746A20684069C0F3C01594F8390083
:103CC000212805D125B10020E084204600F082F8AB
:103CD00020684069C0F3801594F83A00222805D185
:103CE00025B10020E085204600F054F8E06B40F05C
:103CF0001000E0632046FFF716FC70BD70B5054666
:103D00006C6A2868006800F02000B0B90020E085E7
:103D10002068C06820F480702168C860206840690D
:103D200020F00100216848612068406920F04000CF
:103D300021684861202084F83A002046FFF728FED9
:103D400070BD70B50446656A2846FFF74BFE70BD2E
:103D500070B505466C6A2868006800F0200070B9EC
:103D60000020E0842068406920F0800021684861DC
:103D70002068C06840F040002168C86002E020462A
:103D8000FFF7EAFE70BD70B50446656A2846FFF786
:103D9000E4FE70BD0168C96821F490710268D160C9
:103DA0000168496921F0010102685161202180F810
:103DB0003A10704710B504462068C06820F04000F3
:103DC0002168C860202084F839002046FFF7C4FE2F
:103DD000002010BD0168C96821F0C0010268D160EF
:103DE000202180F83910704770B5044694F83A00E5
:103DF00022284AD1A068B0F5805F13D1A56A206956
:103E000040B920684068C0F308002880A06A801C80
:103E1000A06219E020684068C0B22880A06A401CF7
:103E2000A06211E0206938B920684068C1B2A26A76
:103E3000501CA062117007E02068406800F07F010C
:103E4000A26A501CA0621170E08D401E80B2E08515
:103E5000C8B92068C06820F020002168C8602068C8
:103E6000C06820F480702168C8602068406920F034
:103E7000010021684861202084F83A002046FFF7BD
:103E800087FD002070BD0020FCE70220FAE700005B
:103E900070B504462168096921F44051E268114374
:103EA000226811612269A1681143626941EA020531
:103EB0002168C96841F20C62914329432268D160AC
:103EC0002168496921F44071A26911432268516156
:103ED000564A2168914254D1FFF736F800EBC001F1
:103EE00001EB001162689200B1FBF2F100EBC0023D
:103EF00002EB001263689B00B2FBF3F26423B2FB97
:103F0000F3F202EBC20303EB0212A1EB82013222B5
:103F100002EB01116422B1FBF2F101F0F00100EBC0
:103F2000C00202EB001263689B00B2FBF3F2642351
:103F3000B2FBF3F201EB021200EBC00101EB001146
:103F400063689B00B1FBF3F100EBC00303EB0013CC
:103F50006668B600B3FBF6F36426B3FBF6F303EB37
:103F6000C30606EB0313A1EB8301322303EB01111C
:103F70006423B1FBF3F101F00F0111442268916059
:103F800053E0FEF7D1FF00EBC00101EB00116268C6
:103F90009200B1FBF2F100EBC00202EB0012636889
:103FA0009B00B2FBF3F26423B2FBF3F202EBC20319
:103FB00003EB0212A1EB8201322202EB0111642217
:103FC000B1FBF2F101F0F00100EBC00202EB0012D4
:103FD00063689B00B2FBF3F26423B2FBF3F201EBE4
:103FE000021200EBC00101EB001163689B00B1FB02
:103FF000F3F100EBC00303EB00136668B600B3FBFC
:10400000F6F36426B3FBF6F303EBC30606EB0313E8
:10401000A1EB8301322303EB01116423B1FBF3F124
:1040200001F00F0111442268916070BD0038014019
:10403000014691F8390021282CD18868B0F5805FBD
:104040000FD10A6A1088C0F308000B68586008692D
:1040500018B9086A801C086209E0086A401C0862F6
:1040600005E00B6A581C086218780B685860C88C09
:10407000401E80B2C88458B90868C06820F080002B
:104080000B68D8600868C06840F040000B68D860D2
:10409000002070470220FCE72DE9F04104460D4660
:1040A00017469846069E21E0701CF8B12EB1FEF727
:1040B000FFFBA0EB0800B04218D92068C06820F4CC
:1040C000D0702168C8602068406920F00100216834
:1040D0004861202084F8390084F83A0000BF0020AD
:1040E00084F8380000BF0320BDE8F0812068006834
:1040F0002840A84201D1012000E00020B842D3D0DE
:104100000020F1E710B50248FFF70EFA10BD0000DD
:10411000A800002000BFFEE708B500BF0A484069BC
:1041200040F00100084948610846406900F001007C
:10413000009000BF002211460B20FEF741FD0B202E
:10414000FEF72AFD08BD0000001002400EB5002059
:10415000009001900290194819490860811518488B
:10416000816001210173002101754FF46021C1615B
:10417000002013494860022111480161FDF780FBCE
:1041800008B1FDF792F90020009001200190032072
:10419000029069460A48FDF78BF908B1FDF785F9E9
:1041A00001200090022001900320029069460448FB
:1041B000FDF77EF908B1FDF778F90EBD0024014046
:1041C0003400002000B585B00020019002900390DB
:1041D000049000BF3E48806940F020003C4988615F
:1041E0000846806900F02000009000BF00BF08462C
:1041F000806940F0040088610846806900F004008E
:10420000009000BF00BF0846806940F00800886148
:104210000846806900F00800009000BF00224FF4BB
:1042200000412C48FEF73EFB4FF400400190012076
:104230000290002003900220049001A92548FEF777
:1042400099F9002202212348FEF72CFB00224FF4AB
:1042500080612048FEF726FB00224FF400611D48D4
:10426000FEF720FB00224FF400511A48FEF71AFB1C
:1042700042F60240019001200290002003900320AA
:10428000049001A91348FEF775F901200190002060
:1042900002900120039001A90E48FEF76BF94FF43C
:1042A00080500190002002900120039001A909484C
:1042B000FEF760F94FF48070019000200290012019
:1042C000039001A90448FEF755F905B000BD0000B0
:1042D00000100240000C01400008014010B50F48DA
:1042E0000078102802DB00200C4908700C480B49AC
:1042F000097850F8210058B1094A084B1B7852F848
:104300002300064B1B7852F8232012681168884757
:1043100002480078401C0149087010BD05000020CB
:10432000E800002000B58FB01048069010480790B4
:10433000104808901048099010480A9010480B90B7
:1043400010480C9010480D9010480E90182209A9A2
:104350006846FBF77FFF0E4806A90EC900F095FFDF
:104360000B4800F0D1F80FB000BD0000280100207C
:104370003C01002050010020640100207801002051
:10438000A4010020BC010020D4010020F401002081
:104390001402002010B5044601231A4621460448A1
:1043A000FFF7ECF908B9012010BD0020FCE7000080
:1043B000A800002010B5044609480068006800F015
:1043C000200008B1002010BD01231A4621460448F0
:1043D000FFF709FB08B90120F5E70020F3E700002B
:1043E000A800002010B50849084800F0ADF90849B8
:1043F000064800F023FA0749044800F0D2F90348C0
:10440000001D00F081F810BD1402002054020020AD
:10441000BC020020B128000810B500234FF4004270
:104420002B492C4800F04CFA2B492A4800F041FA5D
:104430002A49284800F040FA00234FF4005224494A
:10444000274800F03DFA2449254800F032FA234974
:10445000234800F031FA00234FF400621C49214840
:1044600000F02EFA1C491F4800F023FA1B491D4892
:1044700000F022FA00234FF4806215491A4800F038
:104480001FFA1549184800F014FA1449164800F0AC
:1044900013FA002302220E49144800F011FA0E49C3
:1044A000124800F006FA0D49104800F005FA0948D4
:1044B00000F02AF80A4800F027F80A4800F024F82B
:1044C000094800F021F8094800F01EF810BD00006E
:1044D000000C0140280100203D45000895460008D9
:1044E0003C010020500100206401002078010020E0
:1044F00000B5034800F008F8024800F005F800BDD8
:10450000D4010020F401002001460A480078102858
:104510000DDA51B1074802780078401C054B18703D
:10452000054840F82210012070470020FCE70020D9
:10453000FAE7000005000020E800002070B50446FE
:104540000D461646324629462046FEF7ABF970BDA9
:1045500010B51149114800F07BFAFF210F4800F017
:1045600076FA0D490E4800F073FAFF210C4800F06E
:104570006EFA09490B4800F06BFAFF21094800F078
:1045800066FA0648FFF7C0FF0548FFF7BDFF05487C
:10459000FFF7BAFF10BD0000954600088C0100200F
:1045A000A4010020BC01002000B593B0282109A877
:1045B000FBF769FE142104A8FBF765FE00200090BC
:1045C0000190029003900120099000040A900020BD
:1045D0000B9001200D9002201090C10311914FF417
:1045E000E011129109A8FEF709FD08B1FCF75DFF83
:1045F0000F20049002200590002006904FF4806068
:1046000007900890022104A8FEF7C2FB08B1FCF74E
:104610004CFF022000904FF4404002906846FEF7A5
:1046200021FB08B1FCF741FF13B000BD10B50B48EA
:104630000B4908604FF4E130486000210848816070
:10464000C16001610C21416100218161C161FFF7FD
:1046500011F808B1FCF729FF10BD00000038014037
:10466000A800002038B5684600F0D4FE0420FCF70E
:104670006BFA694600F0C6FE0446684600F0D9FEB3
:10468000024A03492046FCF740FB0000335400086F
:10469000705A000870B504460D4629462046FEF7BC
:1046A000F9F8012800D170BD0020FCE710B50849D9
:1046B000084800F017F80848FFF726FF0748FFF7FB
:1046C00023FF0448FFF720FF0548FFF71DFF10BD3B
:1046D000B5430008A0020020700200207C020020E8
:1046E000B80200204161704738B50446606900B9DE
:1046F00038BD201D00F006FD38B1201D00F022FD60
:10470000009068466169884700BF00BFF0E700007D
:1047100070B504460D46204600F0EEFD04462946DD
:10472000201D00F02DFD041F024820600020606164
:10473000204670BDC45B000810B50446201D00F083
:1047400035FD041F204610BD01B10161704710B551
:104750000446206900F031FD10BD10B50446206903
:1047600000F03AFD10BD10B50446206900F03DFD93
:1047700010BD10B50446206900F040FD10BD10B515
:104780000446206900F040FD10BD10B504462069C4
:1047900000F046FD10BD10B50446206900F046FD4E
:1047A00010BD8161704710B50446206900F044FDDA
:1047B00010BD10B50446206900F044FD10BD2DE980
:1047C000F0470446206908B9BDE8F087A06998B3AE
:1047D000A0698047A168401AE16888422CD9A06985
:1047E0008047A060D4E9040500F0A4FD8146286854
:1047F0004946026828469047D4E9040600F094FD33
:10480000814630684946426830469047D4E90407FB
:1048100000F093FD814638684946C26838469047A3
:10482000D4E9040800F08FFD8146D8F8000049461D
:1048300082684046904700BF00BFC5E741617047AE
:1048400010B50446206900F035FD10BD70B5044672
:104850000D46204600F084F80446201D00F04CFD73
:10486000041F054820603430606029462046FFF769
:104870006BFF204670BD0000D05B000810B50446F9
:10488000204600F06DF80446201D00F035FD041FA1
:1048900006482060343060600020A0606420E06042
:1048A000002020616061204610BD0000D05B000840
:1048B000704701B1C160704701B101617047704735
:1048C000416002818372704710B50446206908B1C7
:1048D000606808B9002010BD21892269606890478E
:1048E000F9E710B50446E06808B1606800B910BD8A
:1048F00021890122E3686068984700BFF7E710B597
:104900000446E06808B1606800B910BD2189002242
:10491000E3686068984700BFF7E710B50446204693
:10492000FFF7D2FF18B12046FFF7E9FF02E020466B
:10493000FFF7D7FF10BD000010B50446204600F079
:10494000DBFC044604482060002060602081A072E7
:10495000E0602061204610BD105C00087047000038
:1049600001490160704700001C5C00084369C2688F
:10497000D21AC260C2680A44C260037CC2681A418B
:104980004261704730B504460D46A5602946204671
:10499000FFF7ECFF30BD704710B50446204600F02D
:1049A000ABFC04460648206000206060A060E06028
:1049B0000920207400206061A061E061204610BDE4
:1049C0004C5C0008704770B504460D462946606887
:1049D00000F0A1FB70BD10B50446606800F0B2FBAA
:1049E00010BD38B5044600200090A06840B168466C
:1049F000A168884720B19DF800102046FFF7E3FF2B
:104A000038BD00002DE9F04104460E46204600F076
:104A100073FC04460948206000206060A060002705
:104A2000102000F04BFD05460127314600F0A8FBA1
:104A30000546002760602046BDE8F081585C00080C
:104A400017B1284600F035FDFBF75EFB7047704755
:104A500001B10161704770B504466068F8B1206922
:104A6000E8B1A07A30B1218922696068904780F06E
:104A7000010003E021892269606890470546E07AD9
:104A8000A8420AD0A089401C80B2A081E189884256
:104A900005DDE5720020A08101E00020A08170BD4D
:104AA0000146C87A704700002DE9F04104460D46E2
:104AB00016461F46204600F01FFC044605482060AD
:104AC00065602681A7720020E07220616061204647
:104AD000BDE8F081645C000810B50446204600F093
:104AE0000BFC044605482060002060602081A07215
:104AF000E07220616061204610BD0000645C000827
:104B0000704770B505460C4622460221284600F043
:104B10000AF870BD70B505460C46224601212846AC
:104B200000F001F870BD2DE9FE4305460F469046A2
:104B30000026002401208DF80000ADF80270CDF8A9
:104B40000480AA208DF80800A968081D3C2100F007
:104B5000E2FA01266C4605E014F8011BAA68101D54
:104B600000F0D9FA301EA6F10101CEB2F4D102262E
:104B70000DF1020405E014F8011BAA68101D00F0F5
:104B8000CAFA301EA6F10101CEB2F4D1042601AC5E
:104B900005E014F8011BAA68101D00F0BCFA301ED5
:104BA000A6F10101CEB2F4D1012602AC05E014F861
:104BB000011BAA68101D00F0AEFA301EA6F101011B
:104BC000CEB2F4D1A968081D3E2100F0A4FABDE8D8
:104BD000FE8370B505460C46224604212846FFF7A1
:104BE000A2FF70BD70B505460C462246032128463B
:104BF000FFF799FF70BD704770B504460D4620461B
:104C000000F07AFB0446201D00F076FA041F0348EA
:104C100020601C306060A560204670BD705C00089C
:104C2000704770B504460D4600262E467078C01EAB
:104C30000D283DD2DFE800F00708090A0F14191EFD
:104C400023282D32370034E033E032E0206A026856
:104C5000116888472DE0206A02685168884728E07B
:104C6000206A02681169884723E0206A0268516956
:104C700088471EE0206A02689169884719E0206A27
:104C80000268D169884714E0206A0268116A88477F
:104C90000FE0206A0268516A88470AE0206A0268C9
:104CA0009168884705E0206A0268D168884700E07B
:104CB00000BF00BF70BD70B50446606800B970BD2C
:104CC0006068FFF788FE05463C2D0AD10120A077D9
:104CD000002020812189481C208104F10A004554CC
:104CE000EDE7A07FA0B12189481C208104F10A00D2
:104CF00045543E2D06D10020A07704F10B0120463B
:104D0000FFF78FFF2089142802D100202081A0778F
:104D100000BFD4E770B504460D461646204600F0A5
:104D2000EBFA044605482060002060602081A077EF
:104D3000206265602662204670BD0000A45C000809
:104D400070472DE9F041054614460E46506900F0C3
:104D500000FB012718B1E7602562BDE8F081206AF9
:104D60000028FAD0E069A842F7D13046A16900F0E6
:104D7000F0FA0028F1D0606A18B100202761606263
:104D8000EBE7206A6062E8E710B51446506900F06E
:104D9000E0FA002802D000202062E06010BD000090
:104DA0002DE9F0411468984616460D460746A0477F
:104DB000284600F097FB214900F0CBFA30B10023E0
:104DC00032463846A968FFF7EBFF2AE0284600F094
:104DD00089FB1B4900F0BDFA18B305F110041AE075
:104DE000F06810B12079800714D544B1207910F013
:104DF000010F04D02146384600F084F802E06068D4
:104E000007EB2020234632462168FFF7C9FF3069AF
:104E1000002811D10834E96805EBC1001030A04228
:104E2000DED87468002C07D04346324629463846FF
:104E3000A446BDE8F0416047BDE8F081345A00085F
:104E4000405A00082DE9FF4D82B0824614468B4639
:104E50004FF0000810460E9D00F044FB274900F07B
:104E600078FA78B1DA4504D1A068059900F071FAB2
:104E700040BB0095A26859465046059BFFF7E2FFEC
:104E8000804636E0204600F02DFB1D4900F061FA17
:104E900078B32646103426E06068C10705D0214665
:104EA000504600F02FF8074601E00AEB20275F4547
:104EB0000BD12068059900F04CFA30B12079A0465A
:104EC000800716D50120286013E02079800709D5D6
:104ED0000095226859463846059BFFF7B3FF804688
:104EE000286830B90834F06806EBC0001030A042E2
:104EF000D2D806B04046BDE8F08D0000345A000814
:104F0000405A00080268496802EB212109680844F8
:104F1000704700002DE9FF4D8CB01446DDE91C6898
:104F20008B4600271046199D00F0DCFA704900F00E
:104F300010FA98B3A0680F9900F00BFAC8B1DBF82B
:104F4000000010B10C99884204D13078022801D0B9
:104F5000286828B1012028600020CBF80000C3E0B9
:104F6000012030701A98C8F800000C98CBF80000A7
:104F700012E0DDE91A1202A880E846011898CDE98E
:104F80000005A26859460F9B0C98FFF7C3FF002845
:104F900003D02868002800D10127A5E0FFE72046BC
:104FA00000F0A0FA534900F0D4F9002869D018980D
:104FB0000B9440F3400008901898103440F3000020
:104FC000099089E0606800F001010A910C9969B1CB
:104FD0000A9969B121460C98FFF794FF82461A9806
:104FE00050B12079800707D5012006E00020F5E7C1
:104FF0000C9901EB2020F1E70020009020680F9928
:1050000000F0A7F920B3DBF8000008B1504507D144
:105010006068C10702D03178012901D0296829B11F
:10502000012028600020CBF8000029E0C00701D053
:10503000022000E0012030700098C8F80000CBF892
:1050400000A03DE0089800E00998401C4CD142E0E7
:10505000009900208DF81C0007AACDE904280690CD
:1050600006AB1898CDE90213CDE900052268594630
:1050700050460F9BFFF74EFF0028286802D020B152
:10508000002731E00028FBD125E0069820B92079DF
:10509000C00701D020680690307858B19DF81C10E8
:1050A000022901D1022805D01B98006880B1069919
:1050B00088420DD19DF81C0030701B980699016044
:1050C000D8F80000012730B10A980028BCD0B9E711
:1050D00001202860D4E708340B98C16800EBC100B8
:1050E0001030A0423FF66EAF10B03846BDE8F08DEC
:1050F000345A0008405A0008014901607047000016
:10510000B05C0008014648890A89904201D001201C
:1051100070470020FCE730B504460D46207B38B9C7
:105120002189606845542189204600F01EF82081BD
:1051300020896189884202D10120207301E000208A
:10514000207330BD30B5044600256089218988422E
:1051500009D00020207361896068455C6189204620
:1051600000F003F86081284630BD02461388481CD1
:10517000834201D100207047481C80B20146FAE703
:105180002DE9F04104460E46002020816081207305
:1051900026800027012000F091F90546207828702C
:1051A0000020074665602046BDE8F08110B5044642
:1051B000606800F07AF9204610BD10B50446A06A78
:1051C000FFF79DFB606AFFF78CFB10BD10B504462E
:1051D000606AFFF779FB10BD10B50446606AFFF7FF
:1051E0008EFBA06AFFF77DFB10BD10B50446A06AD8
:1051F000FFF785FB606AFFF782FB10BD10B5044620
:10520000206AFFF76EFB10BD10B50446A069FFF7DA
:1052100068FB10BD10B50446A06AFFF755FB10BD32
:1052200010B50446206AFFF76AFB10BD10B50446AE
:10523000A069FFF764FB10BD10B50446E069FFF7F5
:1052400050FB10BD10B50446E069FFF758FB10BDD8
:1052500010B50446E06AFFF723FC30B12046FFF7A3
:10526000B5FF10B12046FFF7C0FF206BFFF718FC19
:1052700030B12046FFF7CEFF10B12046FFF7B5FF53
:10528000606B00F04EF8A06010BD0FB40199816111
:105290000299C16103990162049941620599816291
:1052A0000699C1620799016308994163099981636D
:1052B00004B0704710B504462046FFF796FF20461D
:1052C000FFF7AEFF10BD000010B50446204600F009
:1052D00013F8044606482060022020710620607101
:1052E0000020A060E06020616061E063204610BDA6
:1052F000C85C000870470000014901607047000069
:10530000D45C00087047000010B504462046FFF743
:10531000F3FF044601482060204610BDE05C000811
:10532000704701464869704710B50446A06BFFF707
:10533000F8FF10BD01468868704710B50446206B21
:10534000FFF7AEFB10BD10B50446E06AFFF7A8FBFF
:1053500010BD70B50C46A04207D0406800BF05469E
:105360002046406800BF854201D1012070BD002069
:1053700070BD70B50C46A04209D0406800BF05461C
:105380002046406800BF854201D0012070BD00204A
:1053900070BD000010B500F051F80149016010BD6A
:1053A0001C5D000810B500F04FF80149016010BD08
:1053B0001C5D000810B500F004F8BDE8104000F0D6
:1053C00078B810B5AFF3008010BD000010B500F044
:1053D00035F80149016010BD305D000810B500F0DE
:1053E00033F80149016010BD305D000810B500F0D0
:1053F00004F8BDE8104000F05CB810B5AFF30080D1
:1054000010BD000010B500F019F80149016010BD91
:10541000445D000810B500F017F80149016010BDA7
:10542000445D000810B500F004F8BDE8104000F03D
:1054300040B810B5AFF3008010BD00000149016015
:1054400070470000585D0008014901607047000086
:10545000585D000810B50446241F2046FFF7AFF939
:1054600010BD70B504460D46241F29462046FFF79F
:1054700048FB70BD70B504460D46241F29462046E2
:10548000FFF748FB70BD70B504460D46241F294642
:105490002046FFF79EFB70BD70B504460D46241FE5
:1054A00029462046FFF79EFB70BD10B500F001F8BD
:1054B00010BD10B500F0BEF910BD000010B504001D
:1054C00007D1012405E0FBF713FB006800B904488D
:1054D0008047204600F012FA0028F4D010BD0000EA
:1054E0006546000810B530B1006820B14038C46B83
:1054F0002CB1204610BDFBF7B9FE002010BDFBF714
:10550000B5FEF6E702480068C0F3022070470000CD
:105510000CED00E010B5002804DB0A07130E054A65
:10552000135406E00A07140E034A00F00F031B1F72
:10553000D45410BD00E400E018ED00E00020FBF7BB
:10554000E1BA00002DE9F04D00248AB00126CDE932
:1055500008649B4617468A46254600B10068CAF88B
:10556000005080461046FFF7BDFF1149FFF7F1FEDE
:1055700008B1B86800E0032008A907AACDE9042112
:105580008DF81C5006AB069509A9CDE90263CDE95B
:1055900000015B463A4651464046FFF7BBFC10B15E
:1055A000089800B101240AB02046BDE8F08D000043
:1055B000405A00082DE9F0450E4601688BB082463E
:1055C00051F8081C150001EB00040A9400684FF024
:1055D000000850F8047C18D0214800902148CDF8EC
:1055E0000C80CDF8108001900DF1140CCDF80880DE
:1055F000CDF82080CDF824808CE860043946002363
:105600006A462046FFF7CCFB099C24BB0120029090
:10561000B7420BD002A8009033463A465146CDF827
:1056200008800A98FFF70EFC0298A0B12946384678
:10563000FFF78FFE08B10A9C0DE0CDF80C80CDF885
:1056400000802B463A4603A90AA8CDF80480FFF74C
:1056500079FF00B1039C0BB02046BDE8F085000047
:10566000434D0008894D000802E008C8121F08C118
:10567000002AFAD170477047002001E001C1121FD3
:10568000002AFBD17047000010B54C48FFF754F9D1
:1056900004464B4A4B49FAF711FE4B48FFF74CF9C9
:1056A0000446474A4749FAF709FE4848FFF744F9D4
:1056B0000446434A4349FAF701FE4548FFF73CF9DF
:1056C00004463F4A3F49FAF7F9FD4248FFF734F9EB
:1056D00004463B4A3B49FAF7F1FD00234FF4807240
:1056E0003D493E48FFF7E0F90446354A3C49FAF7A0
:1056F000E5FD01231A463B493B48FFF7D5F904462F
:105700002F4A3749FAF7DAFD01231A03354937489A
:10571000FFF7CAF904462A4A3149FAF7CFFD34485F
:10572000FFF73AF90446264A3249FAF7C7FD3248EC
:10573000FFF732F90446224A2E49FAF7BFFD2F48F7
:10574000FFF7C2FD04461E4A2D49FAF7B7FD2D4862
:10575000FFF794F804461A4A2B49FAF7AFFD2B4895
:10576000FFF7D2FD0446164A2949FAF7A7FD322170
:105770002848FFF747F90446114A2749FAF79EFDE2
:10578000204A24492548FFF7C5FA04460C4A244913
:10579000FAF794FD32212348FEF7BAFF0446084A7F
:1057A0002149FAF78BFD1F492048FFF725FA0446E7
:1057B000034A1F49FAF782FD10BD000028010020AE
:1057C000000000085D4900083C0100205001002055
:1057D0006401002078010020000801408C010020B5
:1057E000014B0008000C0140A4010020BC01002076
:1057F000D4010020C5490008F40100201402002053
:10580000F552000854020020B148000808000020AA
:1058100021530008700200204D4A00087C0200203D
:10582000414D0008A002002039470008B8020020BE
:10583000214C000810B5002821D0114B0022001F78
:10584000196803E0814203D80A4649680029F9D162
:1058500052B11368841A9C4204D100681844106045
:10586000104602E0506000E0186039B102680B1A7F
:10587000934203D10B681A4402604968416010BD2D
:105880002C00002010B5FDF76DF8FEF78DFEFEF739
:1058900099FCFEF741FCFEF759FCFEF7C7FEFEF748
:1058A000BBFDFEF755FEFEF723FEFEF73BFDFEF7C0
:1058B00099FDFEF7FBFE02220C490D48FCF796F914
:1058C000FCF7F6FF044601220A490B48FEF728F8C8
:1058D0000AE0FEF703FDFCF7EBFF001BB0F5FA7FD3
:1058E00002D9FCF7E5FF0446F3E7000000000020C2
:1058F0003400002004000020A8000020F0B50B3088
:10590000154D20F007010024144A0FE003688B4274
:105910000BD38B4205D95E1A43184768C3E9006769
:1059200000E04368136002C004E0021D1068002814
:10593000ECD12046002802D1286808B10020F0BD33
:10594000064A07481060074A121A22F00702C0E907
:10595000002401202860D7E7300000202C00002020
:10596000CC020020C8040020B0B0AC8002002C00A3
:10597000D1F0FF7F0000000000A70181B0B00084DB
:1059800000000000B0B0A880020017000100000075
:10599000705A000800000000DF8401800B005000F6
:1059A00007AAFF7FFFFFFFFF21002600E1A9FF7F7D
:1059B000FFFFFFFF0A0046003DB9FF7F04005A00C9
:1059C00031B9FF7F68005E002DB9FF7F0000000045
:1059D000B0AA018019002A0025B3FF7FFFFFFFFF57
:1059E0000200420019B9FF7F000000000000000023
:1059F000000000000102030406070809000000007F
:105A00000102030441524D00432B2B000000000013
:105A1000FC5C0008945A0008845A0008FC5C0008EA
:105A2000B65A0008845A0008FC5C0008D85A0008DE
:105A30001C5A0008FC5C0008FC5A0008105A0008B8
:105A4000FC5C0008215B0008105A0008FC5C0008A0
:105A5000475B0008845A0008FC5C00086F5B000884
:105A60007C5A0008FC5C00087E5B00087C5A000839
:105A7000FC5C0008905B00087C5A0008EC5C0008A5
:105A80009D5B0008EC5C0008AA5B00080C5D000848
:105A9000B75B00084E31305F5F637878616269768A
:105AA0003131375F5F636C6173735F747970655F09
:105AB000696E666F45004E31305F5F637878616272
:105AC00069763131375F5F70626173655F747970D9
:105AD000655F696E666F45004E31305F5F63787851
