:020000040800F2
:10000000C8080020050100086D22000865220008CC
:10001000692200087D0700087D2600080000000016
:10002000000000000000000000000000992200080D
:10003000BD070008000000006F2200089B22000896
:100040001F0100081F0100081F0100081F01000810
:100050001F0100081F0100081F0100081F01000800
:100060001F0100081F0100081F0100088107000888
:100070001F0100081F0100081F0100081F010008E0
:100080001F0100081F010008190600081F010008D1
:100090001F0100081F0100081F0100081F010008C0
:1000A0001F0100081F0100081F0100081F010008B0
:1000B0001F0100081F0100081F0100081F010008A0
:1000C0001F0100081F0100081F0100081F01000890
:1000D0001F0100086D2600081F0100081F0100080D
:1000E0001F0100081F0100081F010008DFF810D0E1
:1000F00000F068FA00F03CF8004800477D3A00083C
:10010000C80800200648804706480047FEE7FEE78B
:10011000FEE7FEE7FEE7FEE7FEE7FEE7FEE7FEE7B7
:10012000A5220008ED00000840EA01039B0703D068
:1001300009E008C9121F08C0042AFAD203E011F826
:10014000013B00F8013B521EF9D27047D2B201E0E8
:1001500000F8012B491EFBD270470022F6E710B5CC
:1001600013460A4604461946FFF7F0FF204610BD25
:1001700070B5054C054D03E0206820448047241DE0
:10018000AC42F9D170BD0000C43E0008C83E000872
:100190000920704709207047704770470920704751
:1001A000024801464860001D704700002000002002
:1001B00070B5054600F04FF804461DB1284600F022
:1001C0001FF808B1A06801E055F8140C2061012067
:1001D0002073BDE8704000F02EB8040001D000F09C
:1001E00004F92046FFF7E4FF02680B689A4205D144
:1001F00040684968884201D101207047002070475B
:1002000010B50349FFF7F0FF80F0010010BD0000BA
:10021000783B000810B5044600F01DF8783CC06932
:10022000214600F07EF8002804D12046BDE81040A9
:1002300003F0FCBB10BD10B500F00DF8016919B159
:1002400000220261884701E080688047AFF30080A8
:1002500010B5AFF3008070B5FFF7A2FF0468054644
:10026000A4B9202003F046FC040011D00949002065
:100270002C60C4E900010849A1602073206160611D
:100280000649A06109B100F038F8E061204670BD70
:10029000AFF30080000000005102000800000000E1
:1002A00070B504000D4609D004F12000FFF79CFF53
:1002B00020B12068A84201D1204670BD002000F086
:1002C0003BF8D5E90023A0F15801C1E90023002241
:1002D00040F85C2C40F8642C40F8682C40F8785DBD
:1002E00070BD0000004870472800002070470000E3
:1002F000004870472C000020704710B5882003F09C
:10030000F9FB002801D00021017010BD802902D81E
:1003100008B1017809B100207047012100F8081BDD
:10032000704718B100F10802914201D000207047D7
:10033000002101707047000070B50446FFF78BFF85
:10034000783405462646204603F0D4FB040007D146
:100350003146E869FFF7DAFF040001D1FFF728FF13
:100360000AA104F12000D1E90021C0E90021002107
:10037000A162E16261612161A161E161A868E0605F
:100380006868A06004F1780070BD000041524D0023
:10039000432B2B000000000070B5FFF75CFF4469A1
:1003A000054614B90020FFF703FFE06904F12006B9
:1003B000401CE0613046FFF723FF002801D026688B
:1003C00003E0286800F10100286002D04FF000022D
:1003D00000E022684FF000013046AFF30080304665
:1003E000092000BF3046FFF7F8FE70B50546466AA3
:1003F000FFF731FF04462846FFF702FF20B12946E8
:100400006069FFF74DFF07E0A5F12000C169491EB3
:10041000C1612168491E21604169491C416101692E
:1004200011B96169016160612846AFF3008030460F
:1004300070BD000073B50C46FFF70DFF54F80C1C9F
:10044000203C31B1E169491EE1610168491E01604A
:100450007CBD616804F1780509B1284688472846C3
:10046000BDE87C40FFF7D6BEFFF7BFFF2846FFF789
:10047000D1FEFFF791FF70B50D46A0F158044C492D
:10048000A160012140F85C1C40E91E52FFF7E3FE29
:1004900001682A46491C016000212046AFF3008014
:1004A0002046092000BF2046FFF797FE2DE9FF4DAB
:1004B0009A4693460E468046FFF7A2FE002875D165
:1004C000A8F12000012708F1580805680024CDF89C
:1004D00008803146284603F084F810B1CAF800803D
:1004E00062E0284603F01AF90190304603F016F94D
:1004F00000903049019803F074F820B92D49009814
:1005000003F06FF820B1DDE9001003F07AF808BBC2
:100510002849019803F065F8C0B1307A297A00F0D3
:10052000030001F00301641C31EA00023ED130EA0D
:10053000010100D077B1C00700D100270298ED6813
:10054000F6680028C5D000680290C2E7012C02D0EE
:100550006CB109D02AE01849304603F042F818B1CE
:10056000BBF1000F22D1B9E7BBF1000F1ED1134937
:10057000019803F036F820B91149019803F031F8D9
:10058000A0B100200090019033462A4603A902A89A
:1005900003F02EF9002804D00399CAF800101CB10A
:1005A000022004B0BDE8F08D0120FAE70020F8E752
:1005B000350400089C3B0008F43B0008A83B0008F9
:1005C000B43B0008064C074D06E0E06840F001032C
:1005D00094E8070098471034AC42F6D3FFF78AFD41
:1005E000A43E0008C43E000838B5684603F022F86F
:1005F0000420FFF7A1FE694603F014F8044668469C
:1006000003F020F8024A03492046FFF734FF0000B8
:1006100045360008CC3B000810B5024800F0A2F9AE
:1006200010BD00003800002070B504460025206889
:10063000806800F00100F0B12068806820F00100BF
:100640002168886000F026FF05460EE000F022FFDA
:10065000401B022809D9A06A40F01000A062E06A9D
:1006600040F00100E062012070BD2068806800F069
:1006700001000028EAD10020F6E770B505466C6A53
:10068000A06A00F05000E0B9A06A40F40070A062D7
:100690002068806800F46020B0F5602F0DD1207BC9
:1006A00058B9A06A20F48070A062A06A00F480505B
:1006B00018B9A06A40F00100A062204600F032F9AB
:1006C00003E0206A016B2846884770BD70B5054677
:1006D0006C6AA06A40F04000A062E06A40F004004A
:1006E000E062204600F03DF970BD70B50446656AD1
:1006F000284600F035F970BD38B5044600250020C5
:1007000000902068806800F0010080BB206880684D
:1007100040F0010021688860164800681649B0FB67
:10072000F1F0009002E00098401E00900098002830
:10073000F9D100F0AFFE054613E000F0ABFE401B20
:1007400002280ED9A06A40F01000A062E06A40F0D2
:100750000100E06200BF002084F8240000BF0120F7
:1007600038BD2068806800F001000028E5D0002036
:10077000F6E700001C00002040420F0000BFFEE72B
:1007800010B5024800F098FB10BD00006800002082
:1007900030B590F840500124AC40C56B6C600468E3
:1007A00063604468102C04D10468A2600468E160AE
:1007B00003E00468A1600468E26030BD70477047E0
:1007C0007047000038B5024600230020009000BFAB
:1007D00092F82400012801D1022038BD012082F8BE
:1007E000240000BF4868072812D21068406B0C79BB
:1007F000641E04EB84051F24AC40A0430D796D1EDC
:1008000005EB85050C68AC4020431468606327E065
:1008100048680D2812D21068006B0C79E41F04EBB5
:1008200084051F24AC40A0430D79ED1F05EB850521
:100830000C68AC4020431468206311E01068C06A63
:100840000C790D3C04EB84051F24AC40A0430D79CA
:100850000D3D05EB85050C68AC4020431468E06253
:1008600008680A2812D31068C0680C780A3C04EBA8
:1008700044050724AC40A0430D780A3D05EB45052F
:100880008C68AC4020431468E0600FE01068006999
:100890000C7804EB44050724AC40A0430D7805EB2D
:1008A00045058C68AC402043146820610868102816
:1008B00002D00868112827D1174C1068A0421ED119
:1008C0001068806800F40000F0B91068806840F497
:1008D00000001468A0600868102815D10F4800684F
:1008E0000F4CB0FBF4F000EB80004000009002E001
:1008F0000098401E009000980028F9D104E0906A0A
:1009000040F020009062012300BF002082F8240004
:1009100000BF184661E70000002401401C000020D1
:1009200040420F0010B504460948A0420ED10948C4
:100930000188094802F07EFA06484188074802F01B
:1009400079FA02220349024800F09EF910BD000026
:100950003800002000000020D8010020F80100200D
:100960007047704710B504462068406800F02000CA
:1009700020282FD12068006800F00200022829D129
:10098000A06A00F0100018B9A06A40F40070A062DC
:100990002068806800F46020B0F5602F13D1207BC0
:1009A00088B92068406820F0200021684860A06A6B
:1009B00020F48070A062A06A00F4805018B9A06A88
:1009C00040F00100A0622046FFF7ACFF6FF012007C
:1009D000216808602068406800F0800080283BD1D2
:1009E0002068006800F00400042835D1A06A00F0F7
:1009F000100018B9A06A40F40050A0622068806816
:100A000000F4E040B0F5E04F0DD02068406800F4FD
:100A10008060D0B92068806800F46020B0F5602F55
:100A200013D1207B88B92068406820F080002168BD
:100A30004860A06A20F48050A062A06A00F4807030
:100A400018B9A06A40F00100A0622046FFF7B8FE86
:100A50006FF00C00216808602068406800F04000DA
:100A600040280FD12068006800F0010050B1A06A52
:100A700040F48030A062204600F0A8F86FF001003A
:100A80002168086010BD00002DE9F04104460027F0
:100A900000250026A84614B90120BDE8F081A06811
:100AA00010B1207D00B100BFA06A30B90020E06223
:100AB00084F82400204600F08BF82046FFF7B4FDB0
:100AC0000746A06A00F01000002873D1002F71D1F2
:100AD000A06A20F4885040F00200A062E1696068DA
:100AE0000843217B40EA41000643A068B0F5807FBF
:100AF00002D0A068012802D14FF4807000E00020ED
:100B00000543207D012811D1207B38B9A069401E02
:100B10004FF4006141EA4030054307E0A06A40F02D
:100B20002000A062E06A40F00100E06220684068B6
:100B300020F4694028432168486020688068214982
:100B40000840304321688860A068B0F5807F02D0FB
:100B5000A068012802D14FF4807000E00020B0F5B9
:100B6000807F03D1208A401E4FEA00582068C06A67
:100B700020F4700040EA08002168C862206880689C
:100B800011490840B04208D10020E062A06A20F07C
:100B9000020040F00100A06211E0A06A20F0020013
:100BA00040F01000A062E06A40F00100E06201271E
:100BB00005E0FFE7A06A40F01000A0620127384678
:100BC0006BE70000FDF7E1FFFE0E1FFF704700001E
:100BD00010B586B004460020029003900490059062
:100BE00024492068884242D100BF2348806940F4EC
:100BF0000070214988610846806900F40070019006
:100C000000BF00BF0846806940F0040088610846C4
:100C1000806900F00400019000BF0320029003905F
:100C200002A9164800F098FA1548164908600020F5
:100C300048600021134881608021C1604900016142
:100C40008900416100218161C16100F003FA08B1AE
:100C5000FFF7B5FD00BF0B482062446200BF0022D1
:100C60001146122000F09AFC122000F087FC06B01A
:100C700010BD0000002401400010024000080140A7
:100C800008000240680000202DE9F04104460D46AE
:100C90001646002757492068884203D056492068E5
:100CA000884205D15348001D006800F4702000E020
:100CB000002000287ED100BF94F82400012802D132
:100CC0000220BDE8F081012084F8240000BF204606
:100CD000FFF712FD0746002F6DD1A06A40F60161B3
:100CE000884340F48070A06243492068884209D15B
:100CF0004048001D006800F4702008B9012002E09F
:100D0000002000E0012078B1A06A20F48010A062E9
:100D10002068406800F4806000B3A06A20F40050AE
:100D200040F48050A06219E0A06A40F48010A062F4
:100D300030492068884203D02F492068884205D175
:100D40002C48001D006800F4806000E0002028B1FD
:100D5000A06A20F4005040F48050A062A06A00F421
:100D6000805020B1E06A20F00600E06201E000203F
:100D7000E06200BF002084F8240000BF1F48216A01
:100D800088621F48216AC8621E48216A08636FF0A2
:100D90000200216808602068806840F48070216843
:100DA0008860226802F14C0133462A46206A00F02E
:100DB00085F901E01AE014E02068806800F4602002
:100DC000B0F5602F06D12068806840F4A00021684B
:100DD00088600CE02068806840F48010216888609A
:100DE00005E000BF002084F8240000E00127384619
:100DF00067E7000000240140002801407B0600084E
:100E0000EB060008CD06000870B50446002594F8EE
:100E10002100022803D00420A063012548E02068B7
:100E2000006820F00E00216808602068006820F04B
:100E30000100216808601F492068884201D1012013
:100E400026E01C4914312068884201D110201FE09F
:100E5000184928312068884201D1801518E01549C9
:100E60003C312068884201D1801411E01149503191
:100E70002068884202D14FF4803009E00D49643186
:100E80002068884202D14FF4801001E04FF080705A
:100E9000084908394860012084F8210000BF00207B
:100EA00084F8200000BF606B10B12046616B88475A
:100EB000284670BD0800024070B50446E06B056826
:100EC0002068066894F840100420884028400028D4
:100ED00046D006F00400002842D02068006800F0E8
:100EE000200028B92068006820F00400216808600C
:100EF00057492068884201D1042027E05449143121
:100F00002068884201D1402020E0514928312068E2
:100F1000884201D1001519E04D493C3120688842D2
:100F200002D14FF4804011E0494950312068884295
:100F300002D14FF4802009E045496431206888429D
:100F400002D14FF4800001E04FF080604049083941
:100F50004860E06A00287AD02046E16A884776E057
:100F600094F84010022088402840A0B306F0020008
:100F700088B32068006800F0200040B9206800684D
:100F800020F00A0021680860012084F8210030491F
:100F90002068884201D1022028E02D4914312068C0
:100FA000884201D1202021E0294928312068884247
:100FB00001D140151AE026493C312068884202D10F
:100FC0004FF4005012E0224950312068884203D18A
:100FD0004FF400300AE017E01D4964312068884270
:100FE00002D14FF4001001E04FF0007018490839A9
:100FF000486000BF002084F8200000BFA06A30B322
:101000002046A16A884722E094F8401008208840D2
:101010002840E0B106F00800C8B12068006820F060
:101020000E002168086094F8401001208840E16BB0
:1010300048600120A06384F8210000BF002084F8EC
:10104000200000BF206B10B12046216B884770BD87
:10105000080002400146002209B901207047164BE2
:101060000868C01A1423B0FBF3F08000086412482B
:101070000838C863022081F821000868026843F636
:10108000F0708243D1E901031843CB6818430B6920
:1010900018434B6918438B691843CB6918430243C3
:1010A0000868026000208863012081F82100002088
:1010B00081F8200000BFD1E7080002402DE9F0418F
:1010C00004460D4616461F464FF0000800BF94F830
:1010D0002000012802D10220BDE8F081012084F81F
:1010E000200000BF94F8210001282CD1022084F8B0
:1010F00021000020A0632068006820F00100216822
:1011000008603B46324629462046FFF741FBE06A2D
:1011100030B12068006840F00E00216808600BE0E4
:101120002068006820F004002168086020680068DA
:1011300040F00A00216808602068006840F0010063
:101140002168086006E000BF002084F8200000BF8E
:101150004FF002084046BFE72DE9F847034600225A
:1011600094466EE14FF0010808FA02F4D1F80080CD
:1011700008EA0400A0427DD1DFF8DCA2D1F80480A7
:10118000A8EB0A09D0453AD014DCB8F1030F50D0CF
:1011900009DCB8F1000F31D0B8F1010F1CD0B8F163
:1011A000020F49D120E0B8F1110F18D0B8F1120F99
:1011B00042D11EE0B9F5881F25D006DCB9F5803F85
:1011C00020D0B9F5801F37D11AE0B9F5001F18D02B
:1011D000B9F5041F30D117E0D1F80CC02DE0D1F8DB
:1011E0000C8008F1040C28E0D1F80C8008F1080C00
:1011F00023E0D1F80C8008F10C0C1EE000BF00BF0A
:1012000000BF00BF00BF00BFD1F80880B8F1000FD9
:1012100002D14FF0040C0BE0D1F80880B8F1010FB7
:1012200003D14FF0080C1C6102E04FF0080C5C6128
:1012300003E04FF0000C00E000BF00BFFF2801D822
:10124000984601E003F104084646FF2802D84FEA19
:10125000820803E0A2F108084FEA88084746D6F85A
:1012600000804FF00F0909FA07F928EA09080CFA7B
:1012700007F900E088E048EA0908C6F80080D1F8DC
:10128000048008F08058B8F1805F7DD100BFDFF89E
:10129000CC81D8F8188048F00108DFF8C091C9F86F
:1012A0001880C846D8F8188008F00108CDF80080EA
:1012B00000BF00BF4FEAB9384FEA920958F82950E9
:1012C0004FEA82784FEA18794FF00F0808FA09F8C8
:1012D00025EA0805DFF88881434502D14FF0000870
:1012E00016E0DFF88081434502D14FF001080FE09E
:1012F000DFF87481434502D14FF0020808E0DFF8BF
:101300006C81434502D14FF0030801E04FF004081F
:101310004FEA82794FEA197908FA09F848EA05058F
:10132000DFF84C814FEA920948F82950D1F804803F
:1013300008F48038B8F5803F0AD1DFF83881D8F852
:10134000008048EA0008DFF82C91C9F8008009E025
:10135000DFF82081D8F8008028EA0008DFF814912F
:10136000C9F80080D1F8048008F40038B8F5003FCF
:1013700010D1DFF8008108F10408D8F8008048EAAD
:101380000008DFF8F09000E05AE009F10409C9F81C
:1013900000800DE0DFF8DC8008F10408D8F8008058
:1013A00028EA0008DFF8CC9009F10409C9F80080A8
:1013B000D1F8048008F48018B8F5801F0ED1DFF84A
:1013C000B48008F10808D8F8008048EA0008DFF87F
:1013D000A49009F10809C9F800800DE0DFF89480B5
:1013E00008F10808D8F8008028EA0008DFF884909F
:1013F00009F10809C9F80080D1F8048008F4001840
:10140000B8F5001F0ED1DFF86C8008F10C08D8F891
:10141000008048EA0008DFF85C9009F10C09C9F87F
:1014200000800DE0DFF84C8008F10C08D8F800804F
:1014300028EA0008DFF83C9009F10C09C9F800809F
:10144000521CD1F8008028FA02F8B8F1000F7FF49E
:1014500089AEBDE8F88700000000111000100240BE
:1014600000080140000C0140001001400014014040
:101470000800014000040140024693680B400BB194
:10148000012000E0002070470AB1016101E00B0477
:101490000361704701480068704700001000002099
:1014A0000348006803490978084401490860704707
:1014B000100000201800002010B50848006840F017
:1014C000100006490860032000F0A6F8002000F094
:1014D00007F800F02BF8002010BD000000200240AB
:1014E00070B504460E4800784FF47A71B1FBF0F005
:1014F0000C490968B1FBF0F5284600F09FFC08B1E3
:10150000012070BD102C07D200222146501E00F091
:1015100045F80548046001E00120F2E70020F0E70B
:10152000180000201C0000201400002008B500BF97
:101530001048806940F001000E49886108468069C2
:1015400000F00100009000BF00BF0846C06940F0F5
:101550008050C8610846C06900F08050009000BF0C
:1015600000BF0549486820F0E06040F080704860A6
:1015700000BF08BD001002400000014001460846BF
:10158000002809DB00F01F0301229A4043099B0059
:1015900003F1E023C3F8002100BF70472DE9F05F9D
:1015A00080460D461646002702F0C8F80746394621
:1015B0002A46334601F00700C0F1070ABAF1040FCA
:1015C00002D94FF0040A01E0C0F1070AD14600F148
:1015D000040ABAF1070F02D24FF0000A01E0A0F1AD
:1015E000030AD4464FF0010A0AFA09FAAAF1010ADD
:1015F0000AEA020A0AFA0CFA4FF0010B0BFA0CFB8A
:10160000ABF1010B0BEA030B4AEA0B0421464046FF
:1016100002F09CF8BDE8F09F00BF00F00702064B07
:1016200019684FF6FF031940044B0B4343EA0221AC
:10163000014B196000BF70470CED00E00000FA0597
:10164000F8B5044600260025207800F001000028A7
:101650006AD000274248C06900F0805068B900BFD6
:101660003F48C06940F080503D49C8610846C069A4
:1016700000F08050009000BF01273A48006800F455
:101680008070B0B93748006840F480703549086010
:10169000FFF700FF064606E0FFF7FCFE801B64280C
:1016A00001D90320F8BD2F48006800F4807000289D
:1016B000F2D02B48006A00F440752DB3A08800F4E6
:1016C0004070A84220D02648006A20F440750120CE
:1016D00025490860002008602148056205F00100E6
:1016E00090B1FFF7D7FE064608E0FFF7D3FE801B58
:1016F00041F28831884201D90320D3E71848006AB3
:1017000000F002000028F0D01548006A20F4407074
:101710006168084312490862012F04D10846C06974
:1017200020F08050C86100BF207800F0020002283D
:1017300007D10B48406820F44040A168084308499D
:101740004860207800F01000102807D10448406855
:1017500020F48000E1680843014948600020A1E7C7
:1017600000100240007000404004424270B5044640
:101770000D460CB9012070BD5A48006800F0070002
:10178000A8420ED25748006820F007002843554968
:1017900008600846006800F00700A84201D0012058
:1017A000E9E7207800F0020002281DD1207800F03F
:1017B0000400042805D14C48406840F4E0604A49E0
:1017C0004860207800F00800082805D146484068A5
:1017D00040F46050444948604348406820F0F000BD
:1017E000A168084340494860207800F0010078B3C0
:1017F0006068012806D13C48006800F4003090B9C8
:101800000120B8E76068022806D13748006800F078
:10181000007040B90120AEE73348006800F00200D4
:1018200008B90120A7E73048406820F0030061684C
:1018300008432D494860FFF72DFE064609E0FFF7F3
:1018400029FE801B41F28831884202D9032092E7A9
:1018500007E02548406800F00C006168B0EB810F9C
:10186000EDD12048006800F00700A8420ED91D48BD
:10187000006820F0070028431A49086008460068FD
:1018800000F00700A84201D0012074E7207800F0A2
:101890000400042807D11448406820F4E060E1689F
:1018A000084311494860207800F00800082808D152
:1018B0000D48406820F46050216940EAC1000A499F
:1018C000486000F03FF808494968C1F30311074A2E
:1018D000515CC8400649086006480068FFF700FEF2
:1018E000002048E70020024000100240603B000852
:1018F0001C00002014000020014800687047000010
:101900001C00002000B5FFF7F7FF04494968C1F348
:101910000221034A515CC84000BD00000010024093
:10192000703B000800B5FFF7E7FF04494968C1F3C1
:10193000C221034A515CC84000BD000000100240B3
:10194000703B0008F0B585B00FF26C0C9CE8E0101D
:1019500001A8A0E8E0101CA52D6800950021002238
:10196000002300240020194D696801F00C05F5B131
:10197000042D02D0082D19D101E0154819E001AD60
:10198000C1F38346AC5D01F4803555B10F4D6D68F0
:10199000C5F340451DF805200D4D6543B5FBF2F339
:1019A00002E00C4D04FB05F3184602E000BF0848B6
:1019B00000BF00BF05B0F0BD02030405060708091B
:1019C0000A0B0C0D0E0F1010010200000010024057
:1019D00000127A0000093D00F8B504460CB9012058
:1019E000F8BD207800F00100002878D0F848406861
:1019F00000F00C0004280CD0F548406800F00C0002
:101A0000082811D1F248406800F48030B0F5803FDA
:101A10000AD1EF48006800F4003000285FD0606809
:101A200000285CD10120DBE700BF6068B0F5803F93
:101A300006D1E748006840F48030E549086028E0B6
:101A4000606858B9E248006820F48030E0490860D6
:101A50000846006820F4802008601AE06068B0F54D
:101A6000A02F0BD1DA48006840F48020D8490860E4
:101A70000846006840F4803008600AE0D4480068F6
:101A800020F48030D24908600846006820F48020A5
:101A9000086000BF606888B1FFF7FCFC054606E0FF
:101AA000FFF7F8FC401B642801D9032098E7C848D9
:101AB000006800F400300028F2D010E0FFF7EAFCE4
:101AC000054606E0FFF7E6FC401B642801D9032029
:101AD00086E7BF48006800F400300028F2D1207883
:101AE00000F00200022857D1B948406800F00C000D
:101AF00050B1B748406800F00C00082818D1B4482D
:101B0000406800F4803098B9B148006800F00200E5
:101B100020B12069012801D0012061E7AC480068AC
:101B200020F0F800616940EAC100A949086033E08B
:101B30002069E8B10120A7490860FFF7ABFC054622
:101B400006E0FFF7A7FC401B022801D9032047E766
:101B50009F48006800F002000028F2D09C4800680E
:101B600020F0F800616940EAC1009949086013E07B
:101B7000002098490860FFF78DFC054606E0FFF756
:101B800089FC401B022801D9032029E790480068FE
:101B900000F002000028F2D1207800F008000828A8
:101BA0002DD1A069B8B101208B490860FFF772FC04
:101BB000054606E0FFF76EFC401B022801D9032012
:101BC0000EE78348406A00F002000028F2D00120AE
:101BD00000F04EFB13E000207F490860FFF75AFC3D
:101BE000054606E0FFF756FC401B022801D90320FA
:101BF000F6E67748406A00F002000028F2D120782B
:101C000000F00400042873D100277148C06900F077
:101C1000805070B900BF6E48C06940F080506C4978
:101C2000C8610846C06900F08050009000BF00BF46
:101C300001276A48006800F48070B0B967480068FE
:101C400040F4807065490860FFF724FC054606E013
:101C5000FFF720FC401B642801D90320C0E65F4841
:101C6000006800F480700028F2D000BFE06801280E
:101C700006D15748006A40F001005549086227E044
:101C8000E06858B95248006A20F0010050490862E3
:101C90000846006A20F00400086219E0E0680528A0
:101CA0000BD14B48006A40F00400494908620846DD
:101CB000006A40F0010008620AE04548006A20F02E
:101CC0000100434908620846006A20F004000862E7
:101CD00000BFE068A0B1FFF7DDFB054609E0FFF7B4
:101CE000D9FB401B41F28831884202D9032077E6B4
:101CF00022E03748006A00F002000028EFD012E02E
:101D0000FFF7C8FB054608E0FFF7C4FB401B41F2A4
:101D10008831884201D9032062E62D48006A00F02C
:101D200002000028F0D1012F05D12948C06920F018
:101D300080502749C86100BFE069C8B324484068A3
:101D400000F00C00082860D0E069022848D100208B
:101D500020490866FFF79EFB054606E0FFF79AFB61
:101D6000401B022801D903203AE61948006800F018
:101D700000700028F2D1206AB0F5803F07D11448E6
:101D8000406820F40030A168084311494860D4E954
:101D9000080108430E49496821F4741108430C49AD
:101DA000486001200B490866FFF774FB054607E011
:101DB0003DE0FFF76FFB401B022801D903200FE62F
:101DC0000348006800F000700028F2D02FE0000007
:101DD0000010024000004242800442420070004075
:101DE000002014490866FFF755FB054606E0FFF79B
:101DF00051FB401B022801D90320F1E50E48006881
:101E000000F000700028F2D111E0E069012800D153
:101E1000E6E50948466806F48031206A814204D12B
:101E200006F47011606A814201D00120D8E50020DB
:101E3000D6E50000000042420010024070B50446A2
:101E40002546681EB0F1807F01D301200FE0681E97
:101E50004FF0E02148610F214FF0FF3001F076FC98
:101E600000204FF0E021886107200861002070BD4C
:101E7000704700002DE9F047044620680568206897
:101E8000C668206847694FF00008C14605F00F0892
:101E9000B8F1000F0AD105F0200038B106F020009B
:101EA00020B1204600F054FABDE8F087B8F1000FE9
:101EB0006DD007F0010018B906F49070002866D0C4
:101EC00005F0010030B106F4807018B1E06B40F00D
:101ED0000100E06305F0040030B107F0010018B123
:101EE000E06B40F00200E06305F0020030B107F063
:101EF000010018B1E06B40F00400E06305F0080059
:101F000030B107F0010018B1E06B40F00800E06369
:101F1000E06B68B305F0200028B106F0200010B196
:101F2000204600F015FA20684069C0F38019E06B84
:101F300000F0080010B9B9F1000F22D0204600F0DF
:101F4000E7F92068406900F04000B0B120684069BE
:101F500020F0400021684861606B50B11748616B08
:101F60004863606BFEF750FF10B1606B416B8847B0
:101F70000CE02046FFF77CFF08E02046FFF778FFE3
:101F800004E02046FFF774FF0020E0638CE705F0D3
:101F9000800030B106F0800018B1204600F0FCFA55
:101FA00082E705F0400030B106F0400018B120464D
:101FB00000F0BEF978E700BF76E70000FD220008D8
:101FC00010B504460CB9012010BDA06900B100E0B5
:101FD00000BF94F8390028B9002084F83800204662
:101FE00000F028F8242084F839002068C06820F424
:101FF00000502168C860204600F0FEF920680069A2
:1020000020F49040216808612068406920F02A008F
:10201000216848612068C06840F400502168C860A9
:102020000020E063202084F8390084F83A00002082
:10203000CAE7000010B586B0044600200290039065
:10204000049005901D492068884234D100BF1C4887
:10205000806940F480401A4988610846806900F42C
:102060008040019000BF00BF0846806940F0040036
:1020700088610846806900F00400019000BF48159F
:102080000290022003900320059002A90D48FFF75B
:1020900063F84FF48060029000200390049002A93E
:1020A0000848FFF759F8002211462520FFF776FA75
:1020B0002520FFF763FA06B010BD0000003801408C
:1020C000001002400008014010B5034693F83A00A2
:1020D00020282FD101B10AB9012010BD00BF93F80B
:1020E0003800012801D10220F7E7012083F83800E9
:1020F00000BF99629A85DA850020D863222083F890
:102100003A0000BF002083F8380000BF1868C0689C
:1021100040F480701C68E0601868406940F001007D
:102120001C6860611868C06840F020001C68E060AE
:102130000020D2E70220D0E770B50546FF2400BF9B
:102140000F4890F83800012804D1201EA4F10101A5
:10215000CCB2F5DC0A4890F83800012805D100BF60
:102160000020074981F8380000BF0648017806487A
:1021700000F081FE012203490148FFF7A5FF70BD71
:10218000AC00002004000020740200202DE9F84378
:1021900004460D4616461F464FF0000994F83900D4
:1021A00020285CD105B116B90120BDE8F88300BF35
:1021B00094F83800012801D10220F6E7012084F8C4
:1021C000380000BF0020E063212084F83900FFF7C9
:1021D00061F98146A684E6842BE0E08C401EE08411
:1021E000A068B0F5805F16D14B46002280212046C2
:1021F000009700F005FA08B10320D6E7A846B8F822
:102200000000C0F3080021684860206908B9AD1CCF
:102210000FE06D1C0DE04B46002280212046009708
:1022200000F0EEF908B10320BFE715F8010B2168B3
:102230004860E08C0028D0D14B4600224021204647
:10224000009700F0DDF908B10320AEE7202084F804
:10225000390000BF002084F8380000BFA5E7022045
:10226000A3E7704700BFFEE700BFFEE77047704777
:1022700008B508490968C9084FF47A72B1FBF2F150
:102280004143009100BF00BF00994A1E00920029FF
:10229000F9D108BD1C000020704710B5FFF700F908
:1022A00010BD00001148006840F001000F490860AF
:1022B000084640680E4908400C49486008460068D6
:1022C0000C490840094908600846006820F480204D
:1022D00008600846406820F4FE0048604FF41F0084
:1022E0008860C8030449086070470000001002407D
:1022F0000000FFF8FFFFF6FE08ED00E070B50546B0
:102300006C6A0020E085E0842046FFF7B1FD70BDD7
:102310000168C96821F490710268D1600168496957
:1023200021F0010102685161202180F83A107047C4
:1023300010B504462068C06820F040002168C860DD
:10234000202084F839002046FFF78BFF002010BDC5
:1023500070B5044694F83A0022284AD1A068B0F536
:10236000805F13D1A56A206940B920684068C0F336
:1023700008002880A06A801CA06219E020684068DC
:10238000C0B22880A06A401CA06211E0206938B960
:1023900020684068C1B2A26A501CA062117007E0B8
:1023A0002068406800F07F01A26A501CA062117092
:1023B000E08D401E80B2E085C8B92068C06820F07A
:1023C00020002168C8602068C06820F480702168FF
:1023D000C8602068406920F0010021684861202021
:1023E00084F83A002046FFF7A7FE002070BD0020C9
:1023F000FCE70220FAE7000070B50446216809698D
:1024000021F44051E2681143226811612269A168F8
:102410001143626941EA02052168C96841F20C6210
:10242000914329432268D1602168496921F44071B0
:10243000A269114322685161564A2168914254D1E0
:10244000FFF770FA00EBC00101EB00116268920027
:10245000B1FBF2F100EBC00202EB001263689B00DB
:10246000B2FBF3F26423B2FBF3F202EBC20303EB21
:102470000212A1EB8201322202EB01116422B1FBB4
:10248000F2F101F0F00100EBC00202EB0012636810
:102490009B00B2FBF3F26423B2FBF3F201EB0212F6
:1024A00000EBC00101EB001163689B00B1FBF3F18D
:1024B00000EBC00303EB00136668B600B3FBF6F352
:1024C0006426B3FBF6F303EBC30606EB0313A1EBA1
:1024D0008301322303EB01116423B1FBF3F101F01B
:1024E0000F0111442268916053E0FFF70BFA00EBF3
:1024F000C00101EB001162689200B1FBF2F100EB48
:10250000C00202EB001263689B00B2FBF3F264238B
:10251000B2FBF3F202EBC20303EB0212A1EB820166
:10252000322202EB01116422B1FBF2F101F0F00161
:1025300000EBC00202EB001263689B00B2FBF3F2F7
:102540006423B2FBF3F201EB021200EBC00101EBDA
:10255000001163689B00B1FBF3F100EBC00303EBD8
:1025600000136668B600B3FBF6F36426B3FBF6F31C
:1025700003EBC30606EB0313A1EB8301322303EB4A
:1025800001116423B1FBF3F101F00F011144226842
:10259000916070BD00380140014691F83900212852
:1025A0002CD18868B0F5805F0FD10A6A1088C0F31B
:1025B00008000B685860086918B9086A801C08622E
:1025C00009E0086A401C086205E00B6A581C0862B2
:1025D00018780B685860C88C401E80B2C88458B9FF
:1025E0000868C06820F080000B68D8600868C06880
:1025F00040F040000B68D860002070470220FCE7E4
:102600002DE9F04104460D4617469846069E21E006
:10261000701CF8B12EB1FEF73DFFA0EB0800B042F0
:1026200018D92068C06820F4D0702168C86020687C
:10263000406920F0010021684861202084F83900B9
:1026400084F83A0000BF002084F8380000BF03205F
:10265000BDE8F081206800682840A84201D101202F
:1026600000E00020B842D3D00020F1E710B50248C6
:10267000FFF700FC10BD0000AC00002000BFFEE72B
:1026800008B500BF0A48406940F0010008494861A8
:102690000846406900F00100009000BF002211468A
:1026A0000B20FEF77BFF0B20FEF768FF08BD000044
:1026B000001002400EB500200090019002901948D1
:1026C00019490860811518488160012101730021B2
:1026D00001754FF46021C161002013494860022157
:1026E00011480161FEF7D0F908B1FEF768F8002043
:1026F0000090012001900320029069460A48FEF7ED
:1027000061F808B1FEF75BF801200090022001900B
:102710000320029069460448FEF754F808B1FEF71A
:102720004EF80EBD002401403800002000B585B0F1
:102730000020019002900390049000BF3E48806901
:1027400040F020003C4988610846806900F0200084
:10275000009000BF00BF0846806940F00400886117
:102760000846806900F00400009000BF00BF0846E2
:10277000806940F0080088610846806900F0080020
:10278000009000BF00224FF400412C48FEF77CFE71
:102790004FF400400190012002900020039002209D
:1027A000049001A92548FEF7D7FC00220221234806
:1027B000FEF76AFE00224FF480612048FEF764FEB7
:1027C00000224FF400611D48FEF75EFE00224FF428
:1027D00000511A48FEF758FE42F6024001900120CF
:1027E0000290002003900320049001A91348FEF7F3
:1027F000B3FC4FF480500190002002900120039020
:1028000001A90E48FEF7A8FC0120019000200290CB
:102810000120039001A90948FEF79EFC4FF4807047
:102820000190002002900120039001A90448FEF7C6
:1028300093FC05B000BD000000100240000C0140F8
:102840000008014010B50F480078102802DB002076
:102850000C4908700C480B49097850F8210058B110
:10286000094A084B1B7852F82300064B1B7852F894
:10287000232012681168884702480078401C0149EB
:10288000087010BD05000020EC00002000B58FB0DE
:10289000104806901048079010480890104809907A
:1028A00010480A9010480B9010480C9010480D905A
:1028B00010480E90182209A96846FDF735FC0E480D
:1028C00006A90EC900F029FE0B4800F0ABF80FB0C6
:1028D00000BD00002C010020400100205401002018
:1028E000680100207C010020A8010020C001002018
:1028F000D8010020F80100201802002010B504467D
:1029000009480068006800F0200008B1002010BDF0
:1029100001231A4621460448FFF738FC08B9012074
:10292000F5E70020F3E70000AC00002010B50849EF
:10293000084800F097F90849064800F00DFA0749E1
:10294000044800F0BCF90348001D00F06BF810BD0E
:102950001802002058020020C00200209514000830
:1029600010B500234FF400422149224800F01BFA21
:102970002149204800F013FA00234FF400521C496B
:102980001E4800F010FA1C491C4800F008FA002309
:102990004FF4006216491A4800F005FA1649184823
:1029A00000F0FDF900234FF480621149154800F052
:1029B000FAF91149134800F0F2F9002302220C49F8
:1029C000114800F0F0F90C490F4800F0E8F9094807
:1029D00000F028F8094800F025F8094800F022F82E
:1029E000084800F01FF8084800F01CF810BD00006F
:1029F000000C01402C010020592A00084001002051
:102A000054010020680100207C01002000B503482B
:102A100000F008F8024800F005F800BDD8010020D9
:102A2000F801002001460A48007810280DDA51B15B
:102A3000074802780078401C054B1870054840F89C
:102A40002210012070470020FCE70020FAE7000078
:102A500005000020EC00002070B504460D46164627
:102A6000324629462046FEF70FFD70BD10B51149CC
:102A7000114800F03FFAFF210F4800F03AFA0D49E3
:102A80000E4800F037FAFF210C4800F032FA0949ED
:102A90000B4800F02FFAFF21094800F02AFA0648F7
:102AA000FFF7C0FF0548FFF7BDFF0548FFF7BAFF76
:102AB00010BD0000B12B000890010020A8010020EB
:102AC000C001002000B593B0282109A8FDF745FBFF
:102AD000142104A8FDF741FB002000900190029012
:102AE00003900120099000040A9000200B9001201F
:102AF0000D9002201090C10311914FF4E01112913A
:102B000009A8FEF769FF08B1FDF759FE0F200490F0
:102B100002200590002006904FF4806007900890F6
:102B2000022104A8FEF722FE08B1FDF748FE0220AC
:102B300000904FF4404002906846FEF781FD08B1D6
:102B4000FDF73DFE13B000BD10B50B480B49086002
:102B50004FF4E1304860002108488160C1600161A4
:102B60000C21416100218161C161FFF729FA08B19F
:102B7000FDF725FE10BD000000380140AC0000202C
:102B800038B5684600F06AFD0420FDF7D5FB6946BC
:102B900000F05CFD0446684600F068FD024A034907
:102BA0002046FDF768FC00006D360008D83B0008A1
:102BB00070B504460D4629462046FEF75DFC012807
:102BC00000D170BD0020FCE710B50849084800F0AE
:102BD00017F80848FFF726FF0748FFF723FF0448C8
:102BE000FFF720FF0548FFF71DFF10BDFD28000877
:102BF000A40200207402002080020020BC020020F9
:102C00004161704738B50446606900B938BD201D80
:102C100000F0D4FB38B1201D00F0F0FB00906846B6
:102C20006169884700BF00BFF0E7000070B5044647
:102C30000D46204600F0A8FC04462946201D00F061
:102C4000FBFB041F0248206000206061204670BD2D
:102C5000183D000810B50446201D00F003FC041FB9
:102C6000204610BD01B10161704710B504462069CE
:102C700000F0FFFB10BD10B50446206900F002FC17
:102C800010BD10B50446206900F005FC10BD10B55C
:102C90000446206900F008FC10BD10B50446206908
:102CA00000F008FC10BD10B50446206900F008FCD7
:102CB00010BD10B50446206900F008FC10BD81610C
:102CC000704710B50446206900F006FC10BD10B531
:102CD0000446206900F006FC10BD2DE9F0470446CB
:102CE000206908B9BDE8F087A06998B3A06980475A
:102CF000A168401AE16888422CD9A0698047A06089
:102D0000D4E9040500F05EFC814628684946026863
:102D100028469047D4E9040600F04EFC814630680E
:102D20004946426830469047D4E9040700F04DFC1C
:102D3000814638684946C26838469047D4E9040855
:102D400000F049FC8146D8F80000494682684046B8
:102D5000904700BF00BFC5E74161704710B504460A
:102D6000206900F0EFFB10BD10B50446204600F0CE
:102D70004FF80446201D00F007FC041F06482060A1
:102D8000343060600020A0606420E060002020619A
:102D90006061204610BD0000243D0008704701B16D
:102DA000C16070477047416002818372704710B5FF
:102DB0000446E06808B1606800B910BD21890122AD
:102DC000E3686068984700BFF7E710B50446E0681D
:102DD00008B1606800B910BD21890022E36860680D
:102DE000984700BFF7E7000010B50446204600F002
:102DF000CBFB044604482060002060602081A07264
:102E0000E0602061204610BD643D0008704700006E
:102E10000149016070470000703D00084369C268C5
:102E2000D21AC260C2680A44C260037CC2681A41F6
:102E30004261704730B504460D46A56029462046DC
:102E4000FFF7ECFF30BD704710B50446204600F098
:102E50009BFB04460648206000206060A060E060A4
:102E60000920207400206061A061E061204610BD4F
:102E7000A03D0008704770B504460D4629466068BD
:102E800000F0A5FA70BD10B50446606800F0B6FA0F
:102E900010BD38B5044600200090A06840B16846D7
:102EA000A168884720B19DF800102046FFF7E3FF96
:102EB00038BD00002DE9F04104460E46204600F0E2
:102EC00063FB04460948206000206060A060002782
:102ED000102000F00FFC05460127314600F0ACFA47
:102EE0000546002760602046BDE8F081AC3D000843
:102EF0007047704701B10161704770B50446606862
:102F0000F8B12069E8B1A07A30B1218922696068FE
:102F1000904780F0010003E02189226960689047B2
:102F20000546E07AA8420AD0A089401C80B2A08160
:102F3000E189884205DDE5720020A08101E00020E2
:102F4000A08170BD0146C87A704700002DE9F041AC
:102F500004460D4616461F46204600F015FB044663
:102F60000548206065602681A7720020E07220611C
:102F700060612046BDE8F081B83D0008704770B53B
:102F800005460C4622460221284600F00AF870BD8C
:102F900070B505460C4622460121284600F001F88E
:102FA00070BD2DE9FE4305460F46904600260024DD
:102FB00001208DF80000ADF80270CDF80480AA2041
:102FC0008DF80800A968081D3C2100F000FA0126D0
:102FD0006C4605E014F8011BAA68101D00F0F7F913
:102FE0003000A6F10101CEB2F4D102260DF10204A7
:102FF00005E014F8011BAA68101D00F0E8F9300084
:10300000A6F10101CEB2F4D1042601AC05E014F81A
:10301000011BAA68101D00F0DAF93000A6F10101C9
:10302000CEB2F4D1012602AC05E014F8011BAA6867
:10303000101D00F0CCF93000A6F10101CEB2F4D1A0
:10304000A968081D3E2100F0C2F9BDE8FE8370B5F5
:1030500005460C46224604212846FFF7A2FF70BD14
:1030600070B505460C46224603212846FFF799FF16
:1030700070BD704770B504460D46204600F084FAD6
:103080000446201D00F094F9041F034820601C3002
:103090006060A560204670BDC43D0008704770B5F3
:1030A00004460D4600262E467078C01E0D283DD2DF
:1030B000DFE800F00708090A0F14191E23282D3233
:1030C000370034E033E032E0206A02681168884754
:1030D0002DE0206A02685168884728E0206A02686B
:1030E0001169884723E0206A0268516988471EE019
:1030F000206A02689169884719E0206A0268D169EC
:10310000884714E0206A0268116A88470FE0206A45
:103110000268516A88470AE0206A02689168884715
:1031200005E0206A0268D168884700E000BF00BF60
:1031300070BD70B50446606800B970BD6068FFF787
:10314000A2FE05463C2D0AD10120A0770020208157
:103150002189481C208104F10A004554EDE7A07F35
:10316000A0B12189481C208104F10A0045543E2D5C
:1031700006D10020A07704F10B012046FFF78FFF56
:103180002089142802D100202081A07700BFD4E735
:1031900070B504460D461646204600F0F5F9044683
:1031A00005482060002060602081A0772062656073
:1031B0002662204670BD0000F83D00087047026896
:1031C000496802EB21210968084470472DE9FF4D49
:1031D0008CB01446DDE91C688B4600271046199D0B
:1031E00000F09CFA704900F0FCF998B3A0680F99C0
:1031F00000F0F7F9C8B1DBF8000010B10C99884273
:1032000004D13078022801D0286828B10120286034
:103210000020CBF80000C3E0012030701A98C8F8F5
:1032200000000C98CBF8000012E0DDE91A1202A8A9
:1032300080E846011898CDE90005A26859460F9B21
:103240000C98FFF7C3FF002803D02868002800D19E
:103250000127A5E0FFE7204600F060FA534900F09F
:10326000C0F9002869D018980B9440F340000890EA
:103270001898103440F30000099089E0606800F06D
:1032800001010A910C9969B10A9969B121460C981A
:10329000FFF795FF82461A9850B12079800707D52D
:1032A000012006E00020F5E70C9901EB2020F1E772
:1032B0000020009020680F9900F093F920B3DBF80C
:1032C000000008B1504507D16068C10702D03178CD
:1032D000012901D0296829B1012028600020CBF8FC
:1032E000000029E0C00701D0022000E0012030707A
:1032F0000098C8F80000CBF800A03DE0089800E076
:103300000998401C4CD142E0009900208DF81C0027
:1033100007AACDE90428069006AB1898CDE9021358
:10332000CDE900052268594650460F9BFFF74EFF36
:103330000028286802D020B1002731E00028FBD106
:1033400025E0069820B92079C00701D020680690B2
:10335000307858B19DF81C10022901D1022805D0FF
:103360001B98006880B1069988420DD19DF81C0019
:1033700030701B9806990160D8F80000012730B121
:103380000A980028BCD0B9E701202860D4E70834A7
:103390000B98C16800EBC1001030A0423FF66EAF41
:1033A00010B03846BDE8F08DA83B0008B43B0008DB
:1033B0000149016070470000043E00080146488949
:1033C0000A89904201D0012070470020FCE730B507
:1033D00004460D46207B38B921896068455421890F
:1033E000204600F01EF8208120896189884202D1A0
:1033F0000120207301E00020207330BD30B5044669
:10340000002560892189884209D0002020736189C4
:103410006068455C6189204600F003F860812846B9
:1034200030BD02461388481C834201D100207047FA
:10343000481C80B20146FAE72DE9F04104460E46E9
:10344000002020816081207326800027012000F069
:1034500051F905462078287000200746656020460F
:10346000BDE8F08110B50446606800F03AF92046E6
:1034700010BD10B50446A06AFFF7A7FC606AFFF70D
:1034800096FC10BD10B50446606AFFF79EFCA06A6A
:10349000FFF78DFC10BD10B50446A06AFFF795FC40
:1034A000606AFFF792FC10BD10B50446206AFFF772
:1034B0007EFC10BD10B50446A069FFF778FC10BD76
:1034C00010B50446206AFFF780FC10BD10B5044615
:1034D000A069FFF77AFC10BD10B50446E069FFF75C
:1034E00066FC10BD10B50446E069FFF76EFC10BD28
:1034F00010B50446E06AFFF725FD10B12046FFF73E
:10350000CAFF206BFFF71EFD10B12046FFF7C3FF77
:10351000606B00F04EF8A06010BD0FB4019981619E
:103520000299C1610399016204994162059981621E
:103530000699C162079901630899416309998163FA
:1035400004B0704710B504462046FFF7A4FF20469C
:10355000FFF7B6FF10BD000010B50446204600F08E
:1035600013F804460648206002202071062060718E
:103570000020A060E06020616061E063204610BD33
:103580001C3E0008704700000149016070470000C0
:10359000283E00087047000010B504462046FFF79B
:1035A000F3FF044601482060204610BD343E000869
:1035B000704701464869704710B50446A06BFFF795
:1035C000F8FF10BD01468868704710B50446206BAF
:1035D000FFF7B8FC10BD10B50446E06AFFF7B2FC77
:1035E00010BD70B50C46A04207D0406800BF05462C
:1035F0002046406800BF854201D1012070BD0020F7
:1036000070BD70B50C46A04209D0406800BF0546A9
:103610002046406800BF854201D0012070BD0020D7
:1036200070BD000010B500F025F80149016010BD23
:10363000703E000810B500F023F80149016010BD8C
:10364000703E000810B5AFF3008010BD10B500F05B
:1036500011F80149016010BD843E000810B500F06A
:103660000FF80149016010BD843E000810B5AFF3AA
:10367000008010BD0149016070470000983E0008BD
:103680000149016070470000983E000810B50446EB
:10369000241F2046FFF721FB10BD70B504460D46E0
:1036A000241F29462046FFF76AFC70BD70B504460A
:1036B0000D46241F29462046FFF76AFC70BD70B5F1
:1036C00004460D46241F29462046FFF7C0FC70BD66
:1036D00070B504460D46241F29462046FFF7C0FC5E
:1036E00070BD10B500F001F810BD10B500F09EF9E6
:1036F00010BD000010B5040007D1012405E0FCF75F
:10370000F7FD006800B904488047204600F0F2F950
:103710000028F4D010BD0000812B000810B530B196
:10372000006820B14038C46B2CB1204610BDFCF7B6
:103730005BFF002010BDFCF757FFF6E7024800686A
:10374000C0F30220704700000CED00E010B5002827
:1037500004DB0A07130E054A135406E00A07140E89
:10376000034A00F00F031B1FD45410BD00E400E017
:1037700018ED00E02DE9F041074690460E46002581
:10378000102000F0B7F904000BD0C4F80C80C4E995
:103790000176FCF7A7FD0168216004602846BDE8BA
:1037A000F0810125FAE72DE9F0410646FCF79AFD84
:1037B000804613E026B1E068B04201D025460EE015
:1037C00020682860D4E90101D8F8007088472046B5
:1037D00000F02CF9D8F80000B84200D045462C681B
:1037E000002CE7D1BDE8F0810020FCF785BD00008A
:1037F0002DE9F04D00248AB00126CDE908649B46EE
:1038000017468A46254600B10068CAF8005080462F
:103810001046FFF783FF1149FFF7E3FE08B1B868D0
:1038200000E0032008A907AACDE904218DF81C5067
:1038300006AB069509A9CDE90263CDE900015B4617
:103840003A4651464046FFF7C1FC10B1089800B116
:1038500001240AB02046BDE8F08D0000B43B00080A
:1038600002E008C8121F08C1002AFAD17047704749
:10387000002001E001C1121F002AFBD170470000A7
:1038800010B54C48FFF7B0FA04464B4A4B49FFF7D6
:1038900071FF4B48FFF7A8FA0446474A4749FFF72C
:1038A00069FF4848FFF7A0FA0446434A4349FFF737
:1038B00061FF4548FFF798FA04463F4A3F49FFF742
:1038C00059FF4248FFF790FA04463B4A3B49FFF74D
:1038D00051FF00234FF480723D493E48FFF736FB0D
:1038E0000446354A3C49FFF745FF01231A033B498B
:1038F0003B48FFF72BFB04462F4A3749FFF73AFFB7
:1039000001231A4635493748FFF720FB04462A4A67
:103910003149FFF72FFF3448FFF796FA0446264A4D
:103920003249FFF727FF3248FFF78EFA0446224A52
:103930002E49FFF71FFF2F48FFF70EFE04461E4AD1
:103940002D49FFF717FF2D48FFF70EFA04461A4AD4
:103950002B49FFF70FFF2B48FFF71EFE0446164AC0
:103960002949FFF707FF32212848FFF7A3FA044649
:10397000114A2749FFF7FEFE204A24492548FFF750
:1039800007FC04460C4A2449FFF7F4FE3221234881
:10399000FFF74CF90446084A2149FFF7EBFE1F499F
:1039A0002048FFF767FB0446034A1F49FFF7E2FE82
:1039B00010BD00002C010020000000080D2E0008A2
:1039C0004001002054010020680100207C010020FB
:1039D00000080140900100207D2F0008000C0140EC
:1039E000A8010020C0010020D8010020752E000889
:1039F000F801002018020020853500085802002038
:103A00009D2D000808000020B13500087402002038
:103A1000F12E000880020020BD310008A402002021
:103A2000552C0008BC0200209D30000810B500286D
:103A300021D0114B0022001F196803E0814203D8F6
:103A40000A4649680029F9D152B11368841A9C4288
:103A500004D1006818441060104602E0506000E095
:103A6000186039B102680B1A934203D10B681A44EB
:103A700002604968416010BD3000002010B5FDF7BC
:103A80001BFDFFF71FF8FEF751FEFEF7F9FDFEF7ED
:103A900011FEFFF759F8FEF763FFFEF7E7FFFEF7A9
:103AA000B5FFFEF7F3FEFEF741FFFFF78DF80222A8
:103AB0000C490D48FDF7E8F8FDF7ECFC044601223F
:103AC0000A490B48FEF700FB0AE0FEF7BBFEFDF7D4
:103AD000E1FC001BB0F5FA7F02D9FDF7DBFC0446E0
:103AE000F3E7000000000020380000200400002060
:103AF000AC000020F0B50B30154D20F0070100247C
:103B0000144A0FE003688B420BD38B4205D95E1A2F
:103B100043184768C3E9006700E04368136002C0C8
:103B200004E0021D10680028ECD12046002802D1D4
:103B3000286808B10020F0BD064A07481060074A0F
:103B4000121A22F00702C0E9002401202860D7E7FA
:103B50003400002030000020CC020020C8040020E7
:103B6000000000000000000001020304060708092D
:103B7000000000000102030441524D00432B2B00C2
:103B800000000000503E0008FC3B0008EC3B000831
:103B9000503E00081E3C0008EC3B0008503E000868
:103BA000403C0008903B0008503E0008643C000880
:103BB000843B0008503E0008893C0008843B000814
:103BC000503E0008AF3C0008EC3B0008503E0008A7
:103BD000D73C0008E43B0008503E0008E63C0008E3
:103BE000E43B0008403E0008F33C0008403E00086B
:103BF000003D0008603E00080D3D00084E31305F7A
:103C00005F637878616269763131375F5F636C61D9
:103C100073735F747970655F696E666F45004E31CE
:103C2000305F5F637878616269763131375F5F70EA
:103C3000626173655F747970655F696E666F450078
:103C40004E31305F5F637878616269763131395F18
:103C50005F706F696E7465725F747970655F696EAD
:103C6000666F45004E31305F5F63787861626976D8
:103C70003132305F5F73695F636C6173735F747956
:103C800070655F696E666F45004E31305F5F6378C7
:103C900078616269763132315F5F766D695F636C3E
:103CA0006173735F747970655F696E666F45004E0E
:103CB00031305F5F637878616269763132335F5F9C
:103CC00066756E64616D656E74616C5F7479706544
:103CD0005F696E666F4500537431306261645F7472
:103CE0007970656964005374396261645F616C6CFA
:103CF0006F6300537439657863657074696F6E0023
:103D0000537439747970655F696E666F0076000070
:103D10000000000000000000052C0008000000006A
:103D2000000000009B2C0008B32C0008C32C0008E6
:103D3000CF2C00086B2C0008772C0008832C00087F
:103D40008F2C0008A72C00085D2D0008DB2C000834
:103D5000FCFFFFFF000000008D360008000000009F
:103D600000000000A52D0008000000000000000079
:103D7000E9370008E9370008E9370008E9370008A3
:103D8000E9370008E9370008E9370008E937000893
:103D9000E9370008E93700080000000000000000D3
:103DA000472E00080000000000000000932E0008CD
:103DB0000000000000000000FB2E000800000000D2
:103DC0000000000073300008912F00087F2F0008CA
:103DD000613000084F300008FCFFFFFF00000000CA
:103DE000AD3600089B360008D1360008BF36000803
:103DF0000000000000000000333100080000000057
:103E000000000000E9370008E9370008E93700083A
:103E1000E93700080000000000000000F13400084D
:103E20000000000000000000E9370008000000006A
:103E3000000000009535000800000000843B0008E9
:103E4000000000000000000000000000A83B000887
:103E5000000000000000000000000000C03B00085F
:103E6000000000000000000000000000CC3B000843
:103E700045360008000000000000000000000000BF
:103E8000D83B00086D36000800000000000000006C
:103E900000000000E43B00080000000000000000FB
:103EA00000000000C83E00080000002038000000AC
:103EB00060380008003F000838000020900800002B
:103EC00070380008BDF9FFFF00000000000000008E
:103ED00000000000000000000000000010000000D2
:103EE000010000000024F4000000000000000000B9
:103EF00000000000000000000000000000000000C2
:04000005080000ED02
:00000001FF
