:020000040800F2
:100000001004002001010008C1090008B909000816
:10001000BD0900086D010008510A00080000000039
:10002000000000000000000000000000ED090008D2
:100030007101000800000000C3090008EF09000872
:100040001B0100081B0100081B0100081B01000820
:100050001B0100081B0100081B0100081B01000810
:100060001B0100081B0100081B0100081B01000800
:100070001B0100081B0100081B0100081B010008F0
:100080001B0100081B0100081B0100081B010008E0
:100090001B0100081B0100081B0100081B010008D0
:1000A0001B0100081B0100081B0100081B010008C0
:1000B0001B0100081B0100081B0100081B010008B0
:1000C0001B0100081B0100081B0100081B010008A0
:1000D0001B0100081B0100081B0100081B01000890
:1000E0001B0100081B0100081B010008DFF80CD0F1
:1000F00000F02AF800480047230C000810040020F4
:100100000648804706480047FEE7FEE7FEE7FEE7B1
:10011000FEE7FEE7FEE7FEE7FEE7FEE7F909000877
:10012000ED000008D2B201E000F8012B491EFBD21D
:1001300070470022F6E710B513460A4604461946F2
:10014000FFF7F0FF204610BD064C074D06E0E068C3
:1001500040F0010394E8070098471034AC42F6D30E
:10016000FFF7C8FF840C0008A40C000800BFFEE7DE
:100170007047704701480068704700000000002089
:10018000034800680349097808440149086070473A
:10019000000000200800002010B50848006840F06A
:1001A000100006490860032000F096F8002000F0D7
:1001B00007F800F02BF8002010BD000000200240DE
:1001C00070B504460E4800784FF47A71B1FBF0F038
:1001D0000C490968B1FBF0F5284600F0D3FB08B1E3
:1001E000012070BD102C07D200222146501E00F0C5
:1001F00035F80548046001E00120F2E70020F0E74F
:10020000080000200C0000200400002008B500BFFA
:100210001048806940F001000E49886108468069F5
:1002200000F00100009000BF00BF0846C06940F028
:100230008050C8610846C06900F08050009000BF3F
:1002400000BF0549486820F0E06040F080604860E9
:1002500000BF08BD00100240000001402DE9F05F22
:1002600080460D461646002700F0B0FC074639468A
:100270002A46334601F00700C0F1070ABAF1040F1D
:1002800002D94FF0040A01E0C0F1070AD14600F19B
:10029000040ABAF1070F02D24FF0000A01E0A0F100
:1002A000030AD4464FF0010A0AFA09FAAAF1010A30
:1002B0000AEA020A0AFA0CFA4FF0010B0BFA0CFBDD
:1002C000ABF1010B0BEA030B4AEA0B042146404653
:1002D00000F084FCBDE8F09F00BF00F00702064B71
:1002E00019684FF6FF031940044B0B4343EA022100
:1002F000014B196000BF70470CED00E00000FA05EB
:1003000070B504460D460CB9012070BD5A4800680E
:1003100000F00700A8420ED25748006820F00700FE
:100320002843554908600846006800F00700A842C5
:1003300001D00120E9E7207800F0020002281DD159
:10034000207800F00400042805D14C48406840F4AF
:10035000E0604A494860207800F00800082805D18C
:100360004648406840F4605044494860434840680B
:1003700020F0F000A168084340494860207800F070
:10038000010078B36068012806D13C48006800F499
:10039000003090B90120B8E76068022806D13748DC
:1003A000006800F0007040B90120AEE733480068F3
:1003B00000F0020008B90120A7E73048406820F0AB
:1003C0000300616808432D494860FFF7D3FE0646E5
:1003D00009E0FFF7CFFE801B41F28831884202D945
:1003E000032092E707E02548406800F00C006168B0
:1003F000B0EB810FEDD12048006800F00700A84263
:100400000ED91D48006820F0070028431A490860EB
:100410000846006800F00700A84201D0012074E7F8
:10042000207800F00400042807D11448406820F424
:10043000E060E168084311494860207800F0080056
:10044000082808D10D48406820F46050216940EA2E
:10045000C1000A49486000F019F808494968C1F329
:100460000311074A515CC840064908600648006805
:10047000FFF7A6FE002048E70020024000100240DF
:10048000480C00080C00002004000020F0B585B0E6
:100490000FF26C0C9CE8E01001A8A0E8E0101CA58D
:1004A0002D68009500210022002300240020194D12
:1004B000696801F00C05F5B1042D02D0082D19D1A1
:1004C00001E0154819E001ADC1F38346AC5D01F4CC
:1004D000803555B10F4D6D68C5F340451DF80520B9
:1004E0000D4D6543B5FBF2F302E00C4D04FB05F343
:1004F000184602E000BF084800BF00BF05B0F0BDCD
:1005000002030405060708090A0B0C0D0E0F101054
:10051000010200000010024000127A0000093D00B4
:10052000F8B504460CB90120F8BD207800F00100B0
:10053000002878D0F848406800F00C0004280CD05F
:10054000F548406800F00C00082811D1F2484068D6
:1005500000F48030B0F5803F0AD1EF48006800F425
:10056000003000285FD0606800285CD10120DBE704
:1005700000BF6068B0F5803F06D1E748006840F4EE
:100580008030E549086028E0606858B9E2480068B2
:1005900020F48030E04908600846006820F480209C
:1005A00008601AE06068B0F5A02F0BD1DA48006847
:1005B00040F48020D84908600846006840F4803044
:1005C00008600AE0D448006820F48030D24908600E
:1005D0000846006820F48020086000BF606888B189
:1005E000FFF7C8FD054606E0FFF7C4FD401B642881
:1005F00001D9032098E7C848006800F400300028BB
:10060000F2D010E0FFF7B6FD054606E0FFF7B2FDB9
:10061000401B642801D9032086E7BF48006800F426
:1006200000300028F2D1207800F00200022857D1D3
:10063000B948406800F00C0050B1B748406800F07D
:100640000C00082818D1B448406800F4803098B9EC
:10065000B148006800F0020020B12069012801D0F3
:10066000012061E7AC48006820F0F800616940EAC9
:10067000C100A949086033E02069E8B10120A74919
:100680000860FFF777FD054606E0FFF773FD401BA6
:10069000022801D9032047E79F48006800F00200C4
:1006A0000028F2D09C48006820F0F800616940EA18
:1006B000C1009949086013E0002098490860FFF7DD
:1006C00059FD054606E0FFF755FD401B022801D9FC
:1006D000032029E79048006800F002000028F2D1CA
:1006E000207800F0080008282DD1A069B8B10120B9
:1006F0008B490860FFF73EFD054606E0FFF73AFD2F
:10070000401B022801D903200EE78348406A00F00D
:1007100002000028F2D0012000F054F913E000207C
:100720007F490860FFF726FD054606E0FFF722FD3A
:10073000401B022801D90320F6E67748406A00F002
:1007400002000028F2D1207800F00400042873D1C0
:1007500000277148C06900F0805070B900BF6E4832
:10076000C06940F080506C49C8610846C06900F01B
:100770008050009000BF00BF01276A48006800F465
:100780008070B0B96748006840F4807065490860BF
:10079000FFF7F0FC054606E0FFF7ECFC401B642881
:1007A00001D90320C0E65F48006800F4807000288B
:1007B000F2D000BFE068012806D15748006A40F037
:1007C00001005549086227E0E06858B95248006ABC
:1007D00020F00100504908620846006A20F0040039
:1007E000086219E0E06805280BD14B48006A40F028
:1007F0000400494908620846006A40F001000862A6
:100800000AE04548006A20F00100434908620846B2
:10081000006A20F00400086200BFE068A0B1FFF7A2
:10082000A9FC054609E0FFF7A5FC401B41F2883111
:10083000884202D9032077E622E03748006A00F0B8
:1008400002000028EFD012E0FFF794FC054608E014
:10085000FFF790FC401B41F28831884201D9032008
:1008600062E62D48006A00F002000028F0D1012F56
:1008700005D12948C06920F080502749C86100BFD0
:10088000E069C8B32448406800F00C00082860D034
:10089000E069022848D1002020490866FFF76AFC79
:1008A000054606E0FFF766FC401B022801D903203D
:1008B0003AE61948006800F000700028F2D1206A7A
:1008C000B0F5803F07D11448406820F40030A1689B
:1008D000084311494860D4E9080108430E494968B2
:1008E00021F4741108430C49486001200B49086643
:1008F000FFF740FC054607E03DE0FFF73BFC401BEF
:10090000022801D903200FE60348006800F00070B8
:100910000028F2D02FE00000001002400000424208
:100920008004424200700040002014490866FFF72E
:1009300021FC054606E0FFF71DFC401B022801D9FB
:100940000320F1E50E48006800F000700028F2D1A5
:1009500011E0E069012800D1E6E50948466806F49F
:100960008031206A814204D106F47011606A8142AC
:1009700001D00120D8E50020D6E500000000424269
:100980000010024070B504462546681EB0F1807F15
:1009900001D301200FE0681E4FF0E02148610F21D4
:1009A0004FF0FF3000F01AF900204FF0E02188618D
:1009B00007200861002070BD00BFFEE700BFFEE712
:1009C0007047704708B508490968C9084FF47A723A
:1009D000B1FBF2F14143009100BF00BF00994A1EF4
:1009E00000920029F9D108BD0C000020704710B515
:1009F000FFF7C6FB10BD00001148006840F0010081
:100A00000F490860084640680E4908400C49486094
:100A1000084600680C490840094908600846006813
:100A200020F4802008600846406820F4FE004860FA
:100A30004FF41F008860C803044908607047000035
:100A4000001002400000FFF8FFFFF6FE08ED00E096
:100A500000BFFEE708B500BF0648806940F02000EF
:100A6000044988610846806900F02000009000BFBA
:100A700008BD00000010024000B58FB0282105A875
:100A8000FFF757FB14216846FFF753FB0120059041
:100A900000040690002007900120099002200C908D
:100AA000C1030D914FF4E0110E9105A8FFF738FD39
:100AB00008B1FFF75EFB0F2000900220019000209C
:100AC00002904FF480600390002004900221684659
:100AD000FFF716FC08B1FFF74CFB0FB000BD01B1EA
:100AE0004160704710B50446204600F069F804469E
:100AF0000248206000206060204610BD680C00089D
:100B00000021016081808171704700210160416096
:100B10008160C16070470021017041608160C160E7
:100B20007047000010B50446234924482060022085
:100B30002071062060710020A060E060206160618B
:100B400004F11800FFF7DCFFA0F1180404F1200005
:100B5000FFF7D6FFA0F1200404F12800FFF7D0FF33
:100B6000A0F1280404F13000FFF7CAFFA0F130041F
:100B700004F13800FFF7C4FFA0F1380404F140008D
:100B8000FFF7C9FFA0F1400404F15000FFF7C3FFD5
:100B9000A0F1500404F16000FFF7B7FFA0F160047A
:100BA00004F17000FFF7B1FFA0F170040020C4F859
:100BB0008000204610BD0000800C0008740C000866
:100BC0000149016070470000800C0008024800687D
:100BD000C0F30220704700000CED00E010B50028C3
:100BE00004DB0A07130E054A135406E00A07140E25
:100BF000034A00F00F031B1FD45410BD00E400E0B3
:100C000018ED00E002E008C8121F08C1002AFAD15E
:100C100070477047002001E001C1121F002AFBD17C
:100C20007047A4B0FFF7B8FAFFF726FFFFF712FFEF
:100C300003A8FFF777FF01A8FFF754FF03A901A856
:100C4000FFF74DFF00BFFEE70000000000000000BE
:100C50000102030406070809000000000102030462
:100C60000000000000000000000000000000000084
:100C70000000000000000000000000000000000074
:100C800000000000A40C000800000020100000007C
:100C9000040C0008B40C0008100000200004000040
:100CA000140C00080000000010000000010000000B
:040CB0000024F40028
:04000005080000ED02
:00000001FF
